{"abi":[{"type":"constructor","inputs":[],"stateMutability":"nonpayable"},{"type":"function","name":"CLOCK_MODE","inputs":[],"outputs":[{"name":"","type":"string","internalType":"string"}],"stateMutability":"pure"},{"type":"function","name":"DOMAIN_SEPARATOR","inputs":[],"outputs":[{"name":"","type":"bytes32","internalType":"bytes32"}],"stateMutability":"view"},{"type":"function","name":"allowance","inputs":[{"name":"owner","type":"address","internalType":"address"},{"name":"spender","type":"address","internalType":"address"}],"outputs":[{"name":"","type":"uint256","internalType":"uint256"}],"stateMutability":"view"},{"type":"function","name":"approve","inputs":[{"name":"spender","type":"address","internalType":"address"},{"name":"value","type":"uint256","internalType":"uint256"}],"outputs":[{"name":"","type":"bool","internalType":"bool"}],"stateMutability":"nonpayable"},{"type":"function","name":"balanceOf","inputs":[{"name":"account","type":"address","internalType":"address"}],"outputs":[{"name":"","type":"uint256","internalType":"uint256"}],"stateMutability":"view"},{"type":"function","name":"checkpoints","inputs":[{"name":"account","type":"address","internalType":"address"},{"name":"pos","type":"uint32","internalType":"uint32"}],"outputs":[{"name":"","type":"tuple","internalType":"struct Checkpoints.Checkpoint208","components":[{"name":"_key","type":"uint48","internalType":"uint48"},{"name":"_value","type":"uint208","internalType":"uint208"}]}],"stateMutability":"view"},{"type":"function","name":"clock","inputs":[],"outputs":[{"name":"","type":"uint48","internalType":"uint48"}],"stateMutability":"view"},{"type":"function","name":"decimals","inputs":[],"outputs":[{"name":"","type":"uint8","internalType":"uint8"}],"stateMutability":"view"},{"type":"function","name":"delegate","inputs":[{"name":"delegatee","type":"address","internalType":"address"}],"outputs":[],"stateMutability":"nonpayable"},{"type":"function","name":"delegateBySig","inputs":[{"name":"delegatee","type":"address","internalType":"address"},{"name":"nonce","type":"uint256","internalType":"uint256"},{"name":"expiry","type":"uint256","internalType":"uint256"},{"name":"v","type":"uint8","internalType":"uint8"},{"name":"r","type":"bytes32","internalType":"bytes32"},{"name":"s","type":"bytes32","internalType":"bytes32"}],"outputs":[],"stateMutability":"nonpayable"},{"type":"function","name":"delegates","inputs":[{"name":"account","type":"address","internalType":"address"}],"outputs":[{"name":"","type":"address","internalType":"address"}],"stateMutability":"view"},{"type":"function","name":"eip712Domain","inputs":[],"outputs":[{"name":"fields","type":"bytes1","internalType":"bytes1"},{"name":"name","type":"string","internalType":"string"},{"name":"version","type":"string","internalType":"string"},{"name":"chainId","type":"uint256","internalType":"uint256"},{"name":"verifyingContract","type":"address","internalType":"address"},{"name":"salt","type":"bytes32","internalType":"bytes32"},{"name":"extensions","type":"uint256[]","internalType":"uint256[]"}],"stateMutability":"view"},{"type":"function","name":"getPastTotalSupply","inputs":[{"name":"timepoint","type":"uint256","internalType":"uint256"}],"outputs":[{"name":"","type":"uint256","internalType":"uint256"}],"stateMutability":"view"},{"type":"function","name":"getPastVotes","inputs":[{"name":"account","type":"address","internalType":"address"},{"name":"timepoint","type":"uint256","internalType":"uint256"}],"outputs":[{"name":"","type":"uint256","internalType":"uint256"}],"stateMutability":"view"},{"type":"function","name":"getVotes","inputs":[{"name":"account","type":"address","internalType":"address"}],"outputs":[{"name":"","type":"uint256","internalType":"uint256"}],"stateMutability":"view"},{"type":"function","name":"name","inputs":[],"outputs":[{"name":"","type":"string","internalType":"string"}],"stateMutability":"view"},{"type":"function","name":"nonces","inputs":[{"name":"owner","type":"address","internalType":"address"}],"outputs":[{"name":"","type":"uint256","internalType":"uint256"}],"stateMutability":"view"},{"type":"function","name":"numCheckpoints","inputs":[{"name":"account","type":"address","internalType":"address"}],"outputs":[{"name":"","type":"uint32","internalType":"uint32"}],"stateMutability":"view"},{"type":"function","name":"permit","inputs":[{"name":"owner","type":"address","internalType":"address"},{"name":"spender","type":"address","internalType":"address"},{"name":"value","type":"uint256","internalType":"uint256"},{"name":"deadline","type":"uint256","internalType":"uint256"},{"name":"v","type":"uint8","internalType":"uint8"},{"name":"r","type":"bytes32","internalType":"bytes32"},{"name":"s","type":"bytes32","internalType":"bytes32"}],"outputs":[],"stateMutability":"nonpayable"},{"type":"function","name":"symbol","inputs":[],"outputs":[{"name":"","type":"string","internalType":"string"}],"stateMutability":"view"},{"type":"function","name":"totalSupply","inputs":[],"outputs":[{"name":"","type":"uint256","internalType":"uint256"}],"stateMutability":"view"},{"type":"function","name":"transfer","inputs":[{"name":"to","type":"address","internalType":"address"},{"name":"value","type":"uint256","internalType":"uint256"}],"outputs":[{"name":"","type":"bool","internalType":"bool"}],"stateMutability":"nonpayable"},{"type":"function","name":"transferFrom","inputs":[{"name":"from","type":"address","internalType":"address"},{"name":"to","type":"address","internalType":"address"},{"name":"value","type":"uint256","internalType":"uint256"}],"outputs":[{"name":"","type":"bool","internalType":"bool"}],"stateMutability":"nonpayable"},{"type":"event","name":"Approval","inputs":[{"name":"owner","type":"address","indexed":true,"internalType":"address"},{"name":"spender","type":"address","indexed":true,"internalType":"address"},{"name":"value","type":"uint256","indexed":false,"internalType":"uint256"}],"anonymous":false},{"type":"event","name":"DelegateChanged","inputs":[{"name":"delegator","type":"address","indexed":true,"internalType":"address"},{"name":"fromDelegate","type":"address","indexed":true,"internalType":"address"},{"name":"toDelegate","type":"address","indexed":true,"internalType":"address"}],"anonymous":false},{"type":"event","name":"DelegateVotesChanged","inputs":[{"name":"delegate","type":"address","indexed":true,"internalType":"address"},{"name":"previousVotes","type":"uint256","indexed":false,"internalType":"uint256"},{"name":"newVotes","type":"uint256","indexed":false,"internalType":"uint256"}],"anonymous":false},{"type":"event","name":"EIP712DomainChanged","inputs":[],"anonymous":false},{"type":"event","name":"Transfer","inputs":[{"name":"from","type":"address","indexed":true,"internalType":"address"},{"name":"to","type":"address","indexed":true,"internalType":"address"},{"name":"value","type":"uint256","indexed":false,"internalType":"uint256"}],"anonymous":false},{"type":"error","name":"CheckpointUnorderedInsertion","inputs":[]},{"type":"error","name":"ECDSAInvalidSignature","inputs":[]},{"type":"error","name":"ECDSAInvalidSignatureLength","inputs":[{"name":"length","type":"uint256","internalType":"uint256"}]},{"type":"error","name":"ECDSAInvalidSignatureS","inputs":[{"name":"s","type":"bytes32","internalType":"bytes32"}]},{"type":"error","name":"ERC20ExceededSafeSupply","inputs":[{"name":"increasedSupply","type":"uint256","internalType":"uint256"},{"name":"cap","type":"uint256","internalType":"uint256"}]},{"type":"error","name":"ERC20InsufficientAllowance","inputs":[{"name":"spender","type":"address","internalType":"address"},{"name":"allowance","type":"uint256","internalType":"uint256"},{"name":"needed","type":"uint256","internalType":"uint256"}]},{"type":"error","name":"ERC20InsufficientBalance","inputs":[{"name":"sender","type":"address","internalType":"address"},{"name":"balance","type":"uint256","internalType":"uint256"},{"name":"needed","type":"uint256","internalType":"uint256"}]},{"type":"error","name":"ERC20InvalidApprover","inputs":[{"name":"approver","type":"address","internalType":"address"}]},{"type":"error","name":"ERC20InvalidReceiver","inputs":[{"name":"receiver","type":"address","internalType":"address"}]},{"type":"error","name":"ERC20InvalidSender","inputs":[{"name":"sender","type":"address","internalType":"address"}]},{"type":"error","name":"ERC20InvalidSpender","inputs":[{"name":"spender","type":"address","internalType":"address"}]},{"type":"error","name":"ERC2612ExpiredSignature","inputs":[{"name":"deadline","type":"uint256","internalType":"uint256"}]},{"type":"error","name":"ERC2612InvalidSigner","inputs":[{"name":"signer","type":"address","internalType":"address"},{"name":"owner","type":"address","internalType":"address"}]},{"type":"error","name":"ERC5805FutureLookup","inputs":[{"name":"timepoint","type":"uint256","internalType":"uint256"},{"name":"clock","type":"uint48","internalType":"uint48"}]},{"type":"error","name":"ERC6372InconsistentClock","inputs":[]},{"type":"error","name":"InvalidAccountNonce","inputs":[{"name":"account","type":"address","internalType":"address"},{"name":"currentNonce","type":"uint256","internalType":"uint256"}]},{"type":"error","name":"InvalidShortString","inputs":[]},{"type":"error","name":"SafeCastOverflowedUintDowncast","inputs":[{"name":"bits","type":"uint8","internalType":"uint8"},{"name":"value","type":"uint256","internalType":"uint256"}]},{"type":"error","name":"StringTooLong","inputs":[{"name":"str","type":"string","internalType":"string"}]},{"type":"error","name":"VotesExpiredSignature","inputs":[{"name":"expiry","type":"uint256","internalType":"uint256"}]}],"bytecode":{"object":"0x6101606040818152346200041c57620000188262000420565b601582526020918281017f4d79546f6b656e54696d657374616d7042617365640000000000000000000000808252835190620000548262000420565b60158252858201528351946200006a8662000420565b600394858752624d544b60e81b82880152805192620000898462000420565b6001808552603160f81b84860190815282516001600160401b0399919391908a811162000327578154928484811c9416801562000411575b88851014620003fd578190601f94858111620003aa575b50889085831160011462000347575f926200033b575b50505f1982841b1c191690841b1781555b8a51918a8311620003275760049b8c548581811c911680156200031c575b898210146200030957828111620002c1575b50879184116001146200025a579383949184925f956200024e575b50501b925f19911b1c19161788555b62000164866200043c565b946101209586526200017685620005f4565b96610140978852519020938460e05251902096610100978089524660a0528251938401947f8b73c3c69bb8fe3d512ecc4cf759cc79239f7b179b0ffacaa9a75d522b39400f86528385015260608401524660808401523060a084015260a0835260c0830196838810908811176200023b57508590525190206080523060c052611dfc9384620007a2853960805184610f51015260a0518461100c015260c05184610f1b015260e05184610fa001525183610fc6015251826106e10152518161070a0152f35b604190634e487b7160e01b5f525260245ffd5b015193505f806200014a565b9190601f198416928d5f5284895f20945f5b8b89838310620002a957505050106200028f575b50505050811b01885562000159565b01519060f8845f19921b161c191690555f80808062000280565b8686015189559097019694850194889350016200026c565b8d5f52885f208380870160051c8201928b8810620002ff575b0160051c019086905b828110620002f35750506200012f565b5f8155018690620002e3565b92508192620002da565b60228e634e487b7160e01b5f525260245ffd5b90607f16906200011d565b634e487b7160e01b5f52604160045260245ffd5b015190505f80620000ee565b90869350601f19831691855f528a5f20925f5b8c8282106200039357505084116200037b575b505050811b018155620000ff565b01515f1983861b60f8161c191690555f80806200036d565b8385015186558a979095019493840193016200035a565b909150835f52885f208580850160051c8201928b8610620003f3575b918891869594930160051c01915b828110620003e4575050620000d8565b5f8155859450889101620003d4565b92508192620003c6565b634e487b7160e01b5f52602260045260245ffd5b93607f1693620000c1565b5f80fd5b604081019081106001600160401b038211176200032757604052565b80516020919082811015620004d8575090601f8251116200047957808251920151908083106200046b57501790565b825f19910360031b1b161790565b90604051809263305a27a960e01b82528060048301528251908160248401525f935b828510620004be575050604492505f838284010152601f80199101168101030190fd5b84810182015186860160440152938101938593506200049b565b6001600160401b03811162000327576005928354926001938481811c91168015620005e9575b83821014620003fd57601f8111620005b5575b5081601f84116001146200054f57509282939183925f9462000543575b50501b915f199060031b1c191617905560ff90565b015192505f806200052e565b919083601f198116875f52845f20945f905b888383106200059a575050501062000581575b505050811b01905560ff90565b01515f1960f88460031b161c191690555f808062000574565b85870151885590960195948501948793509081019062000561565b855f5284601f845f209201871c820191601f8601881c015b828110620005dd57505062000511565b5f8155018590620005cd565b90607f1690620004fe565b805160209081811015620006805750601f8251116200062157808251920151908083106200046b57501790565b90604051809263305a27a960e01b82528060048301528251908160248401525f935b82851062000666575050604492505f838284010152601f80199101168101030190fd5b848101820151868601604401529381019385935062000643565b906001600160401b0382116200032757600654926001938481811c9116801562000796575b83821014620003fd57601f81116200075f575b5081601f8411600114620006f757509282939183925f94620006eb575b50501b915f199060031b1c19161760065560ff90565b015192505f80620006d5565b919083601f19811660065f52845f20945f905b888383106200074457505050106200072b575b505050811b0160065560ff90565b01515f1960f88460031b161c191690555f80806200071d565b8587015188559096019594850194879350908101906200070a565b60065f5284601f845f20920160051c820191601f860160051c015b8281106200078a575050620006b8565b5f81550185906200077a565b90607f1690620006a556fe60806040526004361015610011575f80fd5b5f3560e01c806306fdde0314610184578063095ea7b31461017f57806318160ddd1461017a57806323b872dd14610175578063313ce567146101705780633644e5151461016b5780633a46b1a8146101665780634bf5d7e914610161578063587cde1e1461015c5780635c19a95c146101575780636fcfff451461015257806370a082311461014d5780637ecebe001461014857806384b0196e146101435780638e539e8c1461013e57806391ddadf41461013957806395d89b41146101345780639ab24eb01461012f578063a9059cbb1461012a578063c3cda52014610125578063d505accf14610120578063dd62ed3e1461011b5763f1127ed814610116575f80fd5b610c6f565b610c18565b610ae5565b610a1c565b6109d6565b61098f565b6108ea565b6108c8565b6107bf565b6106c9565b610691565b610659565b6105f3565b6105cf565b610596565b610548565b610421565b6103ff565b6103e4565b610339565b61031c565b6102eb565b6101db565b91908251928382525f5b8481106101b3575050825f602080949584010152601f8019910116010190565b602081830181015184830182015201610193565b9060206101d8928181520190610189565b90565b346102bb575f3660031901126102bb576040515f6003546101fb81610d03565b808452906020906001908181169081156102915750600114610238575b6102348561022881870382610dc4565b604051918291826101c7565b0390f35b60035f90815293507fc2575a0e9e593c00f959f8c92f12db2869c3395a3b0502d05e2516446f71f85b5b83851061027e5750505050810160200161022882610234610218565b8054868601840152938201938101610262565b8695506102349693506020925061022894915060ff191682840152151560051b8201019293610218565b5f80fd5b600435906001600160a01b03821682036102bb57565b602435906001600160a01b03821682036102bb57565b346102bb5760403660031901126102bb576103116103076102bf565b6024359033611214565b602060405160018152f35b346102bb575f3660031901126102bb576020600254604051908152f35b346102bb5760603660031901126102bb576103526102bf565b61035a6102d5565b6001600160a01b0382165f908152600160209081526040808320338452909152902060443591905492600184016103a2575b6103969350610e0d565b60405160018152602090f35b8284106103be576103b983610396950333836112c2565b61038c565b604051637dc7a0d960e11b81523360048201526024810185905260448101849052606490fd5b346102bb575f3660031901126102bb57602060405160128152f35b346102bb575f3660031901126102bb576020610419610f18565b604051908152f35b346102bb5760403660031901126102bb5761043a6102bf565b6024359065ffffffffffff908142168084101561051f57506001600160a01b03165f9081526009602052604090209161047290611032565b8254905f9082600581116104d1575b5061048d9350846114bc565b90816104b45750506102345f5b6040516001600160d01b0390911681529081906020820190565b6104c061023492611078565b905f5260205f20015460301c61049a565b90926104dc82611318565b820391821161051a5761048d94865f52808360205f20015416908516105f146105085750915b5f610481565b92915061051490611086565b90610502565b611064565b604051637669fc0f60e11b81526004810185905265ffffffffffff919091166024820152604490fd5b346102bb575f3660031901126102bb5761023460405161056781610d4f565b600e81526d06d6f64653d74696d657374616d760941b6020820152604051918291602083526020830190610189565b346102bb5760203660031901126102bb5760206001600160a01b03806105ba6102bf565b165f526008825260405f205416604051908152f35b346102bb5760203660031901126102bb576105f16105eb6102bf565b33611094565b005b346102bb5760203660031901126102bb576001600160a01b036106146102bf565b165f52600960205260405f205463ffffffff9081811161063a5760209160405191168152f35b604490604051906306dfcc6560e41b8252602060048301526024820152fd5b346102bb5760203660031901126102bb5760206104196106776102bf565b6001600160a01b03165f9081526020819052604090205490565b346102bb5760203660031901126102bb576001600160a01b036106b26102bf565b165f526007602052602060405f2054604051908152f35b346102bb575f3660031901126102bb576107626107057f000000000000000000000000000000000000000000000000000000000000000061166a565b61072e7f0000000000000000000000000000000000000000000000000000000000000000611768565b6040519061073b82610d70565b5f8252610770602091604051958695600f60f81b875260e0602088015260e0870190610189565b908582036040870152610189565b4660608501523060808501525f60a085015283810360c0850152602080845192838152019301915f5b8281106107a857505050500390f35b835185528695509381019392810192600101610799565b346102bb5760203660031901126102bb5765ffffffffffff600435428216808210156108a157506107ef90611032565b600a54905f90826005811161084d575b5061080a9350611456565b80610826575060205f5b6040516001600160d01b039091168152f35b610831602091611078565b600a5f525f80516020611da7833981519152015460301c610814565b909261085882611318565b820391821161051a5761080a94600a5f5280835f80516020611da7833981519152015416908516105f1461088f5750915b5f6107ff565b92915061089b90611086565b90610889565b604051637669fc0f60e11b8152600481019290925265ffffffffffff166024820152604490fd5b346102bb575f3660031901126102bb57602060405165ffffffffffff42168152f35b346102bb575f3660031901126102bb576040515f60045461090a81610d03565b808452906020906001908181169081156102915750600114610936576102348561022881870382610dc4565b60045f90815293507f8a35acfbc15ff81a39ae7d344fd709f28e8600b4aa8c65c6b64bfe7fe36bd19b5b83851061097c5750505050810160200161022882610234610218565b8054868601840152938201938101610960565b346102bb5760203660031901126102bb576001600160a01b036109b06102bf565b165f526009602052602060018060d01b036109cd60405f20611159565b16604051908152f35b346102bb5760403660031901126102bb576103116109f26102bf565b6024359033610e0d565b6064359060ff821682036102bb57565b6084359060ff821682036102bb57565b346102bb5760c03660031901126102bb57610a356102bf565b60443590602435610a446109fc565b834211610acc57610ac06105f194610ac7926040519060208201927fe48329057bfd03d55e49b547132e39cffd9c1820ad7b9d4c5307691425d15adf845260018060a01b0388166040840152866060840152608083015260808252610aa882610d8c565b610abb60a4359360843593519020611181565b6111a7565b91826111bf565b611094565b604051632341d78760e11b815260048101859052602490fd5b346102bb5760e03660031901126102bb57610afe6102bf565b610b066102d5565b60443590606435610b15610a0c565b814211610bff576001600160a01b038581165f8181526007602090815260409182902080546001810190915582517f6e71edae12b1b97f4d1f60370fef10105fa2faae0126114a169c64845d6126c99281019283529283019390935292861660608201526080810187905260a081019190915260c080820194909452928352610bb8929091610ba560e083610dc4565b610abb60c4359360a43593519020611181565b6001600160a01b0384811690821603610bd557506105f192611214565b6040516325c0072360e11b81526001600160a01b0391821660048201529084166024820152604490fd5b60405163313c898160e11b815260048101839052602490fd5b346102bb5760403660031901126102bb576020610c66610c366102bf565b610c3e6102d5565b6001600160a01b039182165f9081526001855260408082209290931681526020919091522090565b54604051908152f35b346102bb5760403660031901126102bb57610c886102bf565b60243563ffffffff811681036102bb57610cd7610cdd91604093610caa610df5565b50610cb3610df5565b506001600160a01b03165f9081526009602052849020610cd1610df5565b5061195d565b50611986565b8151815165ffffffffffff1681526020918201516001600160d01b031691810191909152f35b90600182811c92168015610d31575b6020831014610d1d57565b634e487b7160e01b5f52602260045260245ffd5b91607f1691610d12565b634e487b7160e01b5f52604160045260245ffd5b6040810190811067ffffffffffffffff821117610d6b57604052565b610d3b565b6020810190811067ffffffffffffffff821117610d6b57604052565b60a0810190811067ffffffffffffffff821117610d6b57604052565b60c0810190811067ffffffffffffffff821117610d6b57604052565b90601f8019910116810190811067ffffffffffffffff821117610d6b57604052565b60405190610df382610d4f565b565b60405190610e0282610d4f565b5f6020838281520152565b6001600160a01b0380821694939291908515610f005782168015610ee8576001600160a01b0382165f9081526020819052604090205495848710610eb95784610df3969703610e6b8460018060a01b03165f525f60205260405f2090565b556001600160a01b0384165f908152602081815260409182902080548801905590518681527fddf252ad1be2c89b69c2b068fc378daa952ba7f163c4a11628f55a4df523b3ef9190a3611a26565b60405163391434e360e21b81526001600160a01b03841660048201526024810188905260448101869052606490fd5b60405163ec442f0560e01b81525f6004820152602490fd5b604051634b637e8f60e11b81525f6004820152602490fd5b307f00000000000000000000000000000000000000000000000000000000000000006001600160a01b03161480611009575b15610f73577f000000000000000000000000000000000000000000000000000000000000000090565b60405160208101907f8b73c3c69bb8fe3d512ecc4cf759cc79239f7b179b0ffacaa9a75d522b39400f82527f000000000000000000000000000000000000000000000000000000000000000060408201527f000000000000000000000000000000000000000000000000000000000000000060608201524660808201523060a082015260a0815261100381610da8565b51902090565b507f00000000000000000000000000000000000000000000000000000000000000004614610f4a565b65ffffffffffff90818111611045571690565b604490604051906306dfcc6560e41b8252603060048301526024820152fd5b634e487b7160e01b5f52601160045260245ffd5b5f1981019190821161051a57565b906001820180921161051a57565b6001600160a01b038181165f81815260086020526040812080548685166001600160a01b031982168117909255610df39694169461110f9390928691907f3134e8a2e6d97e929a7e54011ea5485d7d196dd5f0ba4d4ef95803e8e3fc257f9080a46001600160a01b03165f9081526020819052604090205490565b9161151b565b600a548061112257505f90565b805f1981011161051a57600a5f527fc65a7bb8d6351c1cf70c95a316cc6a92839c986682d98bc35f958f4883f9d2a7015460301c90565b8054806111665750505f90565b5f1991818381011161051a575f5260205f2001015460301c90565b60429061118c610f18565b906040519161190160f01b8352600283015260228201522090565b916101d893916111b693611825565b909291926118d0565b6001600160a01b0381165f90815260076020526040902080546001810190915590918190036111ec575050565b6040516301d4b62360e61b81526001600160a01b039092166004830152602482015260449150fd5b6001600160a01b0380821692919083156112aa57821693841561129257806112887f8c5be1e5ebec7d5bd14f71427d1e84f3dd0314c0f7b2291e5b200ac8c7c3b9259461127360209560018060a01b03165f52600160205260405f2090565b9060018060a01b03165f5260205260405f2090565b55604051908152a3565b604051634a1406b160e11b81525f6004820152602490fd5b60405163e602df0560e01b81525f6004820152602490fd5b906001600160a01b03808316156112aa57811615611292576112736112f79260018060a01b03165f52600160205260405f2090565b55565b8115611304570490565b634e487b7160e01b5f52601260045260245ffd5b801561145157806113ea6113e36113d96113cf6113c56113bb6113b16113a760016101d89a5f908b60801c80611445575b508060401c80611438575b508060201c8061142b575b508060101c8061141e575b508060081c80611411575b508060041c80611404575b508060021c806113f7575b50821c6113f0575b811c1b6113a0818b6112fa565b0160011c90565b6113a0818a6112fa565b6113a081896112fa565b6113a081886112fa565b6113a081876112fa565b6113a081866112fa565b6113a081856112fa565b80926112fa565b906119aa565b8101611393565b600291509101905f61138b565b600491509101905f611380565b600891509101905f611375565b601091509101905f61136a565b602091509101905f61135f565b604091509101905f611354565b9150506080905f611349565b505f90565b905b82811061146457505090565b90918082169080831860011c820180921161051a57600a5f5265ffffffffffff80835f80516020611da7833981519152015416908516105f146114aa5750915b90611458565b9291506114b690611086565b906114a4565b91905b8382106114cc5750505090565b9091928083169080841860011c820180921161051a57845f5265ffffffffffff808360205f20015416908416105f146115095750925b91906114bf565b93925061151590611086565b91611502565b6001600160a01b03808316939291908116908185141580611661575b611543575b5050505050565b816115c7575b505082611558575b808061153c565b6001600160a01b03165f9081526009602052604090207fdec2bacdd2f05b59de34da9b523dff8be42e5e38e818c82fdb0bae774387a724916115a49161159e90916119bc565b906119ef565b604080516001600160d01b039384168152919092166020820152a25f8080611551565b6001600160a01b03165f9081526009602052604090206115e6846119bc565b6001600160d01b039081806115fa85611159565b169116900381811161051a5761163e611657917fdec2bacdd2f05b59de34da9b523dff8be42e5e38e818c82fdb0bae774387a7249465ffffffffffff421690611cc8565b6040805192851683529316602082015291829190820190565b0390a25f80611549565b50831515611537565b60ff81146116a85760ff811690601f8211611696576040519161168c83610d4f565b8252602082015290565b604051632cd44ac360e21b8152600490fd5b50604051600554815f6116ba83610d03565b8083529260209060019081811690811561174457506001146116e5575b50506101d892500382610dc4565b91509260055f527f036b6384b5eca791c62761152d0c79bb0604c104a5fb6f4eb0703f3154bb3db0935f925b82841061172c57506101d89450505081016020015f806116d7565b85548785018301529485019486945092810192611711565b915050602092506101d894915060ff191682840152151560051b8201015f806116d7565b60ff811461178a5760ff811690601f8211611696576040519161168c83610d4f565b50604051600654815f61179c83610d03565b8083529260209060019081811690811561174457506001146117c65750506101d892500382610dc4565b91509260065f527ff652222313e28459528d920b65115c16c04f3efc82aaedc97be59f3f377c0d3f935f925b82841061180d57506101d89450505081016020015f806116d7565b855487850183015294850194869450928101926117f2565b91907f7fffffffffffffffffffffffffffffff5d576e7357a4501ddfe92f46681b20a084116118a7579160209360809260ff5f9560405194855216868401526040830152606082015282805260015afa1561189c575f516001600160a01b0381161561189257905f905f90565b505f906001905f90565b6040513d5f823e3d90fd5b5050505f9160039190565b600411156118bc57565b634e487b7160e01b5f52602160045260245ffd5b6118d9816118b2565b806118e2575050565b6118eb816118b2565b600181036119055760405163f645eedf60e01b8152600490fd5b61190e816118b2565b6002810361192f5760405163fce698f760e01b815260048101839052602490fd5b8061193b6003926118b2565b146119435750565b6040516335e2f38360e21b81526004810191909152602490fd5b8054821015611972575f5260205f2001905f90565b634e487b7160e01b5f52603260045260245ffd5b9060405161199381610d4f565b915465ffffffffffff8116835260301c6020830152565b90808210156119b7575090565b905090565b6001600160d01b03908181116119d0571690565b604490604051906306dfcc6560e41b825260d060048301526024820152fd5b906001600160d01b03908180611a0485611159565b1691160190811161051a57611a229165ffffffffffff421690611cc8565b9091565b6001600160a01b03908116929181908415611aad575b16908115611a66575b610df3935f5260086020528060405f205416915f5260405f2054169061151b565b611a6f836119bc565b6001600160d01b0394908580611a83611115565b169116900394851161051a57611aa4610df39565ffffffffffff4216611ba3565b50509350611a45565b9050611ab8836119bc565b6001600160d01b0391908280611acc611115565b1691160191821161051a57611aea839265ffffffffffff4216611ba3565b5050611a3c565b600a5490600160401b821015610d6b576001820180600a5582101561197257600a5f52805160209091015160301b65ffffffffffff191665ffffffffffff91909116175f80516020611da783398151915290910155565b8054600160401b811015610d6b57611b659160018201815561195d565b611b9057815160209092015160301b65ffffffffffff191665ffffffffffff92909216919091179055565b634e487b7160e01b5f525f60045260245ffd5b600a54919291908115611c9f57611bda611bd5611bbf84611078565b600a5f525f80516020611da78339815191520190565b611986565b805165ffffffffffff8381169491168410611c8d5785602093611c5195611c15611c0a865165ffffffffffff1690565b65ffffffffffff1690565b03611c555750611c2a611bbf611c4393611078565b9065ffffffffffff82549181199060301b169116179055565b01516001600160d01b031690565b9190565b9050611c889150611c75611c67610de6565b65ffffffffffff9092168252565b6001600160d01b03871681850152611af1565b611c43565b604051632520601d60e01b8152600490fd5b611cc39150611caf611c67610de6565b6001600160d01b0384166020820152611af1565b5f9190565b805492939291908215611d8257611cef611bd5611ce485611078565b835f5260205f200190565b90611d00825165ffffffffffff1690565b65ffffffffffff84811691168110611c8d57611c51946020948892611d2e611c0a875165ffffffffffff1690565b03611d4f5750611c4392611d44611c2a92611078565b905f5260205f200190565b915050611c8891611d6f611d61610de6565b65ffffffffffff9093168352565b6001600160d01b03881682860152611b48565b611cc39250611d92611d61610de6565b6001600160d01b0385166020830152611b4856fec65a7bb8d6351c1cf70c95a316cc6a92839c986682d98bc35f958f4883f9d2a8a26469706673582212207f497b49311b06cf013beb34a414a66cf49f0f60863824980b293ad33c19d1a364736f6c63430008180033","linkReferences":{}},"methodIdentifiers":{"CLOCK_MODE()":"4bf5d7e9","DOMAIN_SEPARATOR()":"3644e515","allowance(address,address)":"dd62ed3e","approve(address,uint256)":"095ea7b3","balanceOf(address)":"70a08231","checkpoints(address,uint32)":"f1127ed8","clock()":"91ddadf4","decimals()":"313ce567","delegate(address)":"5c19a95c","delegateBySig(address,uint256,uint256,uint8,bytes32,bytes32)":"c3cda520","delegates(address)":"587cde1e","eip712Domain()":"84b0196e","getPastTotalSupply(uint256)":"8e539e8c","getPastVotes(address,uint256)":"3a46b1a8","getVotes(address)":"9ab24eb0","name()":"06fdde03","nonces(address)":"7ecebe00","numCheckpoints(address)":"6fcfff45","permit(address,address,uint256,uint256,uint8,bytes32,bytes32)":"d505accf","symbol()":"95d89b41","totalSupply()":"18160ddd","transfer(address,uint256)":"a9059cbb","transferFrom(address,address,uint256)":"23b872dd"},"id":161}