{"abi":[{"type":"constructor","inputs":[],"stateMutability":"nonpayable"},{"type":"function","name":"CLOCK_MODE","inputs":[],"outputs":[{"name":"","type":"string","internalType":"string"}],"stateMutability":"view"},{"type":"function","name":"DOMAIN_SEPARATOR","inputs":[],"outputs":[{"name":"","type":"bytes32","internalType":"bytes32"}],"stateMutability":"view"},{"type":"function","name":"allowance","inputs":[{"name":"owner","type":"address","internalType":"address"},{"name":"spender","type":"address","internalType":"address"}],"outputs":[{"name":"","type":"uint256","internalType":"uint256"}],"stateMutability":"view"},{"type":"function","name":"approve","inputs":[{"name":"spender","type":"address","internalType":"address"},{"name":"value","type":"uint256","internalType":"uint256"}],"outputs":[{"name":"","type":"bool","internalType":"bool"}],"stateMutability":"nonpayable"},{"type":"function","name":"balanceOf","inputs":[{"name":"account","type":"address","internalType":"address"}],"outputs":[{"name":"","type":"uint256","internalType":"uint256"}],"stateMutability":"view"},{"type":"function","name":"checkpoints","inputs":[{"name":"account","type":"address","internalType":"address"},{"name":"pos","type":"uint32","internalType":"uint32"}],"outputs":[{"name":"","type":"tuple","internalType":"struct Checkpoints.Checkpoint208","components":[{"name":"_key","type":"uint48","internalType":"uint48"},{"name":"_value","type":"uint208","internalType":"uint208"}]}],"stateMutability":"view"},{"type":"function","name":"clock","inputs":[],"outputs":[{"name":"","type":"uint48","internalType":"uint48"}],"stateMutability":"view"},{"type":"function","name":"decimals","inputs":[],"outputs":[{"name":"","type":"uint8","internalType":"uint8"}],"stateMutability":"view"},{"type":"function","name":"delegate","inputs":[{"name":"delegatee","type":"address","internalType":"address"}],"outputs":[],"stateMutability":"nonpayable"},{"type":"function","name":"delegateBySig","inputs":[{"name":"delegatee","type":"address","internalType":"address"},{"name":"nonce","type":"uint256","internalType":"uint256"},{"name":"expiry","type":"uint256","internalType":"uint256"},{"name":"v","type":"uint8","internalType":"uint8"},{"name":"r","type":"bytes32","internalType":"bytes32"},{"name":"s","type":"bytes32","internalType":"bytes32"}],"outputs":[],"stateMutability":"nonpayable"},{"type":"function","name":"delegates","inputs":[{"name":"account","type":"address","internalType":"address"}],"outputs":[{"name":"","type":"address","internalType":"address"}],"stateMutability":"view"},{"type":"function","name":"eip712Domain","inputs":[],"outputs":[{"name":"fields","type":"bytes1","internalType":"bytes1"},{"name":"name","type":"string","internalType":"string"},{"name":"version","type":"string","internalType":"string"},{"name":"chainId","type":"uint256","internalType":"uint256"},{"name":"verifyingContract","type":"address","internalType":"address"},{"name":"salt","type":"bytes32","internalType":"bytes32"},{"name":"extensions","type":"uint256[]","internalType":"uint256[]"}],"stateMutability":"view"},{"type":"function","name":"getPastTotalSupply","inputs":[{"name":"timepoint","type":"uint256","internalType":"uint256"}],"outputs":[{"name":"","type":"uint256","internalType":"uint256"}],"stateMutability":"view"},{"type":"function","name":"getPastVotes","inputs":[{"name":"account","type":"address","internalType":"address"},{"name":"timepoint","type":"uint256","internalType":"uint256"}],"outputs":[{"name":"","type":"uint256","internalType":"uint256"}],"stateMutability":"view"},{"type":"function","name":"getVotes","inputs":[{"name":"account","type":"address","internalType":"address"}],"outputs":[{"name":"","type":"uint256","internalType":"uint256"}],"stateMutability":"view"},{"type":"function","name":"name","inputs":[],"outputs":[{"name":"","type":"string","internalType":"string"}],"stateMutability":"view"},{"type":"function","name":"nonces","inputs":[{"name":"owner","type":"address","internalType":"address"}],"outputs":[{"name":"","type":"uint256","internalType":"uint256"}],"stateMutability":"view"},{"type":"function","name":"numCheckpoints","inputs":[{"name":"account","type":"address","internalType":"address"}],"outputs":[{"name":"","type":"uint32","internalType":"uint32"}],"stateMutability":"view"},{"type":"function","name":"permit","inputs":[{"name":"owner","type":"address","internalType":"address"},{"name":"spender","type":"address","internalType":"address"},{"name":"value","type":"uint256","internalType":"uint256"},{"name":"deadline","type":"uint256","internalType":"uint256"},{"name":"v","type":"uint8","internalType":"uint8"},{"name":"r","type":"bytes32","internalType":"bytes32"},{"name":"s","type":"bytes32","internalType":"bytes32"}],"outputs":[],"stateMutability":"nonpayable"},{"type":"function","name":"symbol","inputs":[],"outputs":[{"name":"","type":"string","internalType":"string"}],"stateMutability":"view"},{"type":"function","name":"totalSupply","inputs":[],"outputs":[{"name":"","type":"uint256","internalType":"uint256"}],"stateMutability":"view"},{"type":"function","name":"transfer","inputs":[{"name":"to","type":"address","internalType":"address"},{"name":"value","type":"uint256","internalType":"uint256"}],"outputs":[{"name":"","type":"bool","internalType":"bool"}],"stateMutability":"nonpayable"},{"type":"function","name":"transferFrom","inputs":[{"name":"from","type":"address","internalType":"address"},{"name":"to","type":"address","internalType":"address"},{"name":"value","type":"uint256","internalType":"uint256"}],"outputs":[{"name":"","type":"bool","internalType":"bool"}],"stateMutability":"nonpayable"},{"type":"event","name":"Approval","inputs":[{"name":"owner","type":"address","indexed":true,"internalType":"address"},{"name":"spender","type":"address","indexed":true,"internalType":"address"},{"name":"value","type":"uint256","indexed":false,"internalType":"uint256"}],"anonymous":false},{"type":"event","name":"DelegateChanged","inputs":[{"name":"delegator","type":"address","indexed":true,"internalType":"address"},{"name":"fromDelegate","type":"address","indexed":true,"internalType":"address"},{"name":"toDelegate","type":"address","indexed":true,"internalType":"address"}],"anonymous":false},{"type":"event","name":"DelegateVotesChanged","inputs":[{"name":"delegate","type":"address","indexed":true,"internalType":"address"},{"name":"previousVotes","type":"uint256","indexed":false,"internalType":"uint256"},{"name":"newVotes","type":"uint256","indexed":false,"internalType":"uint256"}],"anonymous":false},{"type":"event","name":"EIP712DomainChanged","inputs":[],"anonymous":false},{"type":"event","name":"Transfer","inputs":[{"name":"from","type":"address","indexed":true,"internalType":"address"},{"name":"to","type":"address","indexed":true,"internalType":"address"},{"name":"value","type":"uint256","indexed":false,"internalType":"uint256"}],"anonymous":false},{"type":"error","name":"CheckpointUnorderedInsertion","inputs":[]},{"type":"error","name":"ECDSAInvalidSignature","inputs":[]},{"type":"error","name":"ECDSAInvalidSignatureLength","inputs":[{"name":"length","type":"uint256","internalType":"uint256"}]},{"type":"error","name":"ECDSAInvalidSignatureS","inputs":[{"name":"s","type":"bytes32","internalType":"bytes32"}]},{"type":"error","name":"ERC20ExceededSafeSupply","inputs":[{"name":"increasedSupply","type":"uint256","internalType":"uint256"},{"name":"cap","type":"uint256","internalType":"uint256"}]},{"type":"error","name":"ERC20InsufficientAllowance","inputs":[{"name":"spender","type":"address","internalType":"address"},{"name":"allowance","type":"uint256","internalType":"uint256"},{"name":"needed","type":"uint256","internalType":"uint256"}]},{"type":"error","name":"ERC20InsufficientBalance","inputs":[{"name":"sender","type":"address","internalType":"address"},{"name":"balance","type":"uint256","internalType":"uint256"},{"name":"needed","type":"uint256","internalType":"uint256"}]},{"type":"error","name":"ERC20InvalidApprover","inputs":[{"name":"approver","type":"address","internalType":"address"}]},{"type":"error","name":"ERC20InvalidReceiver","inputs":[{"name":"receiver","type":"address","internalType":"address"}]},{"type":"error","name":"ERC20InvalidSender","inputs":[{"name":"sender","type":"address","internalType":"address"}]},{"type":"error","name":"ERC20InvalidSpender","inputs":[{"name":"spender","type":"address","internalType":"address"}]},{"type":"error","name":"ERC2612ExpiredSignature","inputs":[{"name":"deadline","type":"uint256","internalType":"uint256"}]},{"type":"error","name":"ERC2612InvalidSigner","inputs":[{"name":"signer","type":"address","internalType":"address"},{"name":"owner","type":"address","internalType":"address"}]},{"type":"error","name":"ERC5805FutureLookup","inputs":[{"name":"timepoint","type":"uint256","internalType":"uint256"},{"name":"clock","type":"uint48","internalType":"uint48"}]},{"type":"error","name":"ERC6372InconsistentClock","inputs":[]},{"type":"error","name":"InvalidAccountNonce","inputs":[{"name":"account","type":"address","internalType":"address"},{"name":"currentNonce","type":"uint256","internalType":"uint256"}]},{"type":"error","name":"InvalidShortString","inputs":[]},{"type":"error","name":"SafeCastOverflowedUintDowncast","inputs":[{"name":"bits","type":"uint8","internalType":"uint8"},{"name":"value","type":"uint256","internalType":"uint256"}]},{"type":"error","name":"StringTooLong","inputs":[{"name":"str","type":"string","internalType":"string"}]},{"type":"error","name":"VotesExpiredSignature","inputs":[{"name":"expiry","type":"uint256","internalType":"uint256"}]}],"bytecode":{"object":"0x610160604081815234620004065762000018826200040a565b600782526020918281016626bcaa37b5b2b760c91b8082528351906200003e826200040a565b600782528582015283519462000054866200040a565b600394858752624d544b60e81b8288015280519262000073846200040a565b6001808552603160f81b84860190815282516001600160401b0399919391908a811162000311578154928484811c94168015620003fb575b88851014620003e7578190601f9485811162000394575b50889085831160011462000331575f9262000325575b50505f1982841b1c191690841b1781555b8a51918a8311620003115760049b8c548581811c9116801562000306575b89821014620002f357828111620002ab575b508791841160011462000244579383949184925f9562000238575b50501b925f19911b1c19161788555b6200014e8662000426565b946101209586526200016085620005de565b96610140978852519020938460e05251902096610100978089524660a0528251938401947f8b73c3c69bb8fe3d512ecc4cf759cc79239f7b179b0ffacaa9a75d522b39400f86528385015260608401524660808401523060a084015260a0835260c0830196838810908811176200022557508590525190206080523060c052611e5293846200078c853960805184610f2f015260a05184610fea015260c05184610ef9015260e05184610f7e01525183610fa4015251826106a7015251816106d00152f35b604190634e487b7160e01b5f525260245ffd5b015193505f8062000134565b9190601f198416928d5f5284895f20945f5b8b8983831062000293575050501062000279575b50505050811b01885562000143565b01519060f8845f19921b161c191690555f8080806200026a565b86860151895590970196948501948893500162000256565b8d5f52885f208380870160051c8201928b8810620002e9575b0160051c019086905b828110620002dd57505062000119565b5f8155018690620002cd565b92508192620002c4565b60228e634e487b7160e01b5f525260245ffd5b90607f169062000107565b634e487b7160e01b5f52604160045260245ffd5b015190505f80620000d8565b90869350601f19831691855f528a5f20925f5b8c8282106200037d575050841162000365575b505050811b018155620000e9565b01515f1983861b60f8161c191690555f808062000357565b8385015186558a9790950194938401930162000344565b909150835f52885f208580850160051c8201928b8610620003dd575b918891869594930160051c01915b828110620003ce575050620000c2565b5f8155859450889101620003be565b92508192620003b0565b634e487b7160e01b5f52602260045260245ffd5b93607f1693620000ab565b5f80fd5b604081019081106001600160401b038211176200031157604052565b80516020919082811015620004c2575090601f8251116200046357808251920151908083106200045557501790565b825f19910360031b1b161790565b90604051809263305a27a960e01b82528060048301528251908160248401525f935b828510620004a8575050604492505f838284010152601f80199101168101030190fd5b848101820151868601604401529381019385935062000485565b6001600160401b03811162000311576005928354926001938481811c91168015620005d3575b83821014620003e757601f81116200059f575b5081601f84116001146200053957509282939183925f946200052d575b50501b915f199060031b1c191617905560ff90565b015192505f8062000518565b919083601f198116875f52845f20945f905b888383106200058457505050106200056b575b505050811b01905560ff90565b01515f1960f88460031b161c191690555f80806200055e565b8587015188559096019594850194879350908101906200054b565b855f5284601f845f209201871c820191601f8601881c015b828110620005c7575050620004fb565b5f8155018590620005b7565b90607f1690620004e8565b8051602090818110156200066a5750601f8251116200060b57808251920151908083106200045557501790565b90604051809263305a27a960e01b82528060048301528251908160248401525f935b82851062000650575050604492505f838284010152601f80199101168101030190fd5b84810182015186860160440152938101938593506200062d565b906001600160401b0382116200031157600654926001938481811c9116801562000780575b83821014620003e757601f811162000749575b5081601f8411600114620006e157509282939183925f94620006d5575b50501b915f199060031b1c19161760065560ff90565b015192505f80620006bf565b919083601f19811660065f52845f20945f905b888383106200072e575050501062000715575b505050811b0160065560ff90565b01515f1960f88460031b161c191690555f808062000707565b858701518855909601959485019487935090810190620006f4565b60065f5284601f845f20920160051c820191601f860160051c015b82811062000774575050620006a2565b5f815501859062000764565b90607f16906200068f56fe60806040526004361015610011575f80fd5b5f3560e01c806306fdde0314610184578063095ea7b31461017f57806318160ddd1461017a57806323b872dd14610175578063313ce567146101705780633644e5151461016b5780633a46b1a8146101665780634bf5d7e914610161578063587cde1e1461015c5780635c19a95c146101575780636fcfff451461015257806370a082311461014d5780637ecebe001461014857806384b0196e146101435780638e539e8c1461013e57806391ddadf41461013957806395d89b41146101345780639ab24eb01461012f578063a9059cbb1461012a578063c3cda52014610125578063d505accf14610120578063dd62ed3e1461011b5763f1127ed814610116575f80fd5b610c4d565b610bf6565b610ac3565b6109fa565b6109b4565b61096d565b6108c8565b61089d565b610785565b61068f565b610657565b61061f565b6105b9565b610595565b61055c565b6104cb565b610421565b6103ff565b6103e4565b610339565b61031c565b6102eb565b6101db565b91908251928382525f5b8481106101b3575050825f602080949584010152601f8019910116010190565b602081830181015184830182015201610193565b9060206101d8928181520190610189565b90565b346102bb575f3660031901126102bb576040515f6003546101fb81610ce1565b808452906020906001908181169081156102915750600114610238575b6102348561022881870382610da2565b604051918291826101c7565b0390f35b60035f90815293507fc2575a0e9e593c00f959f8c92f12db2869c3395a3b0502d05e2516446f71f85b5b83851061027e5750505050810160200161022882610234610218565b8054868601840152938201938101610262565b8695506102349693506020925061022894915060ff191682840152151560051b8201019293610218565b5f80fd5b600435906001600160a01b03821682036102bb57565b602435906001600160a01b03821682036102bb57565b346102bb5760403660031901126102bb576103116103076102bf565b60243590336112c7565b602060405160018152f35b346102bb575f3660031901126102bb576020600254604051908152f35b346102bb5760603660031901126102bb576103526102bf565b61035a6102d5565b6001600160a01b0382165f908152600160209081526040808320338452909152902060443591905492600184016103a2575b6103969350610deb565b60405160018152602090f35b8284106103be576103b98361039695033383611375565b61038c565b604051637dc7a0d960e11b81523360048201526024810185905260448101849052606490fd5b346102bb575f3660031901126102bb57602060405160128152f35b346102bb575f3660031901126102bb576020610419610ef6565b604051908152f35b346102bb5760403660031901126102bb5761043a6102bf565b60243561044643611010565b9165ffffffffffff83168210156104a0576001600160a01b03165f90815260096020526040902061023492506001600160d01b039161048f919061048990611010565b90611072565b604051911681529081906020820190565b50604051637669fc0f60e11b8152600481019190915265ffffffffffff919091166024820152604490fd5b346102bb575f3660031901126102bb576104e443611010565b65ffffffffffff806104f543611010565b1691160361054a5761023460405161050c81610d2d565b601d81527f6d6f64653d626c6f636b6e756d6265722666726f6d3d64656661756c740000006020820152604051918291602083526020830190610189565b6040516301bfc1c560e61b8152600490fd5b346102bb5760203660031901126102bb5760206001600160a01b03806105806102bf565b165f526008825260405f205416604051908152f35b346102bb5760203660031901126102bb576105b76105b16102bf565b33611147565b005b346102bb5760203660031901126102bb576001600160a01b036105da6102bf565b165f52600960205260405f205463ffffffff908181116106005760209160405191168152f35b604490604051906306dfcc6560e41b8252602060048301526024820152fd5b346102bb5760203660031901126102bb57602061041961063d6102bf565b6001600160a01b03165f9081526020819052604090205490565b346102bb5760203660031901126102bb576001600160a01b036106786102bf565b165f526007602052602060405f2054604051908152f35b346102bb575f3660031901126102bb576107286106cb7f00000000000000000000000000000000000000000000000000000000000000006116bf565b6106f47f00000000000000000000000000000000000000000000000000000000000000006117bd565b6040519061070182610d4e565b5f8252610736602091604051958695600f60f81b875260e0602088015260e0870190610189565b908582036040870152610189565b4660608501523060808501525f60a085015283810360c0850152602080845192838152019301915f5b82811061076e57505050500390f35b83518552869550938101939281019260010161075f565b346102bb5760203660031901126102bb576004356107a243611010565b9065ffffffffffff9182811682101561087657506107bf90611010565b600a54905f90826005811161081d575b506107da9350611509565b806107f6575060205f5b6040516001600160d01b039091168152f35b610801602091611056565b600a5f525f80516020611dfd833981519152015460301c6107e4565b9092610828826113cb565b8203918211610871576107da94600a5f5280835f80516020611dfd833981519152015416908516105f1461085f5750915b5f6107cf565b92915061086b90611064565b90610859565b611042565b604051637669fc0f60e11b8152600481019290925265ffffffffffff166024820152604490fd5b346102bb575f3660031901126102bb5760206108b843611010565b65ffffffffffff60405191168152f35b346102bb575f3660031901126102bb576040515f6004546108e881610ce1565b808452906020906001908181169081156102915750600114610914576102348561022881870382610da2565b60045f90815293507f8a35acfbc15ff81a39ae7d344fd709f28e8600b4aa8c65c6b64bfe7fe36bd19b5b83851061095a5750505050810160200161022882610234610218565b805486860184015293820193810161093e565b346102bb5760203660031901126102bb576001600160a01b0361098e6102bf565b165f526009602052602060018060d01b036109ab60405f2061120c565b16604051908152f35b346102bb5760403660031901126102bb576103116109d06102bf565b6024359033610deb565b6064359060ff821682036102bb57565b6084359060ff821682036102bb57565b346102bb5760c03660031901126102bb57610a136102bf565b60443590602435610a226109da565b834211610aaa57610a9e6105b794610aa5926040519060208201927fe48329057bfd03d55e49b547132e39cffd9c1820ad7b9d4c5307691425d15adf845260018060a01b0388166040840152866060840152608083015260808252610a8682610d6a565b610a9960a4359360843593519020611234565b61125a565b9182611272565b611147565b604051632341d78760e11b815260048101859052602490fd5b346102bb5760e03660031901126102bb57610adc6102bf565b610ae46102d5565b60443590606435610af36109ea565b814211610bdd576001600160a01b038581165f8181526007602090815260409182902080546001810190915582517f6e71edae12b1b97f4d1f60370fef10105fa2faae0126114a169c64845d6126c99281019283529283019390935292861660608201526080810187905260a081019190915260c080820194909452928352610b96929091610b8360e083610da2565b610a9960c4359360a43593519020611234565b6001600160a01b0384811690821603610bb357506105b7926112c7565b6040516325c0072360e11b81526001600160a01b0391821660048201529084166024820152604490fd5b60405163313c898160e11b815260048101839052602490fd5b346102bb5760403660031901126102bb576020610c44610c146102bf565b610c1c6102d5565b6001600160a01b039182165f9081526001855260408082209290931681526020919091522090565b54604051908152f35b346102bb5760403660031901126102bb57610c666102bf565b60243563ffffffff811681036102bb57610cb5610cbb91604093610c88610dd3565b50610c91610dd3565b506001600160a01b03165f9081526009602052849020610caf610dd3565b506119b2565b506119db565b8151815165ffffffffffff1681526020918201516001600160d01b031691810191909152f35b90600182811c92168015610d0f575b6020831014610cfb57565b634e487b7160e01b5f52602260045260245ffd5b91607f1691610cf0565b634e487b7160e01b5f52604160045260245ffd5b6040810190811067ffffffffffffffff821117610d4957604052565b610d19565b6020810190811067ffffffffffffffff821117610d4957604052565b60a0810190811067ffffffffffffffff821117610d4957604052565b60c0810190811067ffffffffffffffff821117610d4957604052565b90601f8019910116810190811067ffffffffffffffff821117610d4957604052565b60405190610dd182610d2d565b565b60405190610de082610d2d565b5f6020838281520152565b6001600160a01b0380821694939291908515610ede5782168015610ec6576001600160a01b0382165f9081526020819052604090205495848710610e975784610dd1969703610e498460018060a01b03165f525f60205260405f2090565b556001600160a01b0384165f908152602081815260409182902080548801905590518681527fddf252ad1be2c89b69c2b068fc378daa952ba7f163c4a11628f55a4df523b3ef9190a3611a7a565b60405163391434e360e21b81526001600160a01b03841660048201526024810188905260448101869052606490fd5b60405163ec442f0560e01b81525f6004820152602490fd5b604051634b637e8f60e11b81525f6004820152602490fd5b307f00000000000000000000000000000000000000000000000000000000000000006001600160a01b03161480610fe7575b15610f51577f000000000000000000000000000000000000000000000000000000000000000090565b60405160208101907f8b73c3c69bb8fe3d512ecc4cf759cc79239f7b179b0ffacaa9a75d522b39400f82527f000000000000000000000000000000000000000000000000000000000000000060408201527f000000000000000000000000000000000000000000000000000000000000000060608201524660808201523060a082015260a08152610fe181610d86565b51902090565b507f00000000000000000000000000000000000000000000000000000000000000004614610f28565b65ffffffffffff90818111611023571690565b604490604051906306dfcc6560e41b8252603060048301526024820152fd5b634e487b7160e01b5f52601160045260245ffd5b5f1981019190821161087157565b906001820180921161087157565b908154905f9180600581116110fe575b50915b8281106110b1575050806110995750505f90565b6110a290611056565b905f5260205f20015460301c90565b90918082169080831860011c820180921161087157845f5265ffffffffffff808360205f20015416908516105f146110ec5750915b90611085565b9291506110f890611064565b906110e6565b90611108826113cb565b820391821161087157845f5265ffffffffffff808360205f20015416908416105f1461113657505b5f611082565b925061114190611064565b91611130565b6001600160a01b038181165f81815260086020526040812080548685166001600160a01b031982168117909255610dd1969416946111c29390928691907f3134e8a2e6d97e929a7e54011ea5485d7d196dd5f0ba4d4ef95803e8e3fc257f9080a46001600160a01b03165f9081526020819052604090205490565b9161156f565b600a54806111d557505f90565b805f1981011161087157600a5f527fc65a7bb8d6351c1cf70c95a316cc6a92839c986682d98bc35f958f4883f9d2a7015460301c90565b8054806112195750505f90565b5f19918183810111610871575f5260205f2001015460301c90565b60429061123f610ef6565b906040519161190160f01b8352600283015260228201522090565b916101d893916112699361187a565b90929192611925565b6001600160a01b0381165f908152600760205260409020805460018101909155909181900361129f575050565b6040516301d4b62360e61b81526001600160a01b039092166004830152602482015260449150fd5b6001600160a01b03808216929190831561135d578216938415611345578061133b7f8c5be1e5ebec7d5bd14f71427d1e84f3dd0314c0f7b2291e5b200ac8c7c3b9259461132660209560018060a01b03165f52600160205260405f2090565b9060018060a01b03165f5260205260405f2090565b55604051908152a3565b604051634a1406b160e11b81525f6004820152602490fd5b60405163e602df0560e01b81525f6004820152602490fd5b906001600160a01b038083161561135d57811615611345576113266113aa9260018060a01b03165f52600160205260405f2090565b55565b81156113b7570490565b634e487b7160e01b5f52601260045260245ffd5b8015611504578061149d61149661148c61148261147861146e61146461145a60016101d89a5f908b60801c806114f8575b508060401c806114eb575b508060201c806114de575b508060101c806114d1575b508060081c806114c4575b508060041c806114b7575b508060021c806114aa575b50821c6114a3575b811c1b611453818b6113ad565b0160011c90565b611453818a6113ad565b61145381896113ad565b61145381886113ad565b61145381876113ad565b61145381866113ad565b61145381856113ad565b80926113ad565b906119ff565b8101611446565b600291509101905f61143e565b600491509101905f611433565b600891509101905f611428565b601091509101905f61141d565b602091509101905f611412565b604091509101905f611407565b9150506080905f6113fc565b505f90565b905b82811061151757505090565b90918082169080831860011c820180921161087157600a5f5265ffffffffffff80835f80516020611dfd833981519152015416908516105f1461155d5750915b9061150b565b92915061156990611064565b90611557565b6001600160a01b038083169392919081169081851415806116b6575b611597575b5050505050565b8161161b575b5050826115ac575b8080611590565b6001600160a01b03165f9081526009602052604090207fdec2bacdd2f05b59de34da9b523dff8be42e5e38e818c82fdb0bae774387a724916115f8916115f29091611a11565b90611a44565b604080516001600160d01b039384168152919092166020820152a25f80806115a5565b6001600160a01b03165f90815260096020526040902061163a84611a11565b61164343611010565b6001600160d01b039182806116578661120c565b169116900392828411610871577fdec2bacdd2f05b59de34da9b523dff8be42e5e38e818c82fdb0bae774387a724936116ac9261169392611d1e565b6040805192851683529316602082015291829190820190565b0390a25f8061159d565b5083151561158b565b60ff81146116fd5760ff811690601f82116116eb57604051916116e183610d2d565b8252602082015290565b604051632cd44ac360e21b8152600490fd5b50604051600554815f61170f83610ce1565b80835292602090600190818116908115611799575060011461173a575b50506101d892500382610da2565b91509260055f527f036b6384b5eca791c62761152d0c79bb0604c104a5fb6f4eb0703f3154bb3db0935f925b82841061178157506101d89450505081016020015f8061172c565b85548785018301529485019486945092810192611766565b915050602092506101d894915060ff191682840152151560051b8201015f8061172c565b60ff81146117df5760ff811690601f82116116eb57604051916116e183610d2d565b50604051600654815f6117f183610ce1565b80835292602090600190818116908115611799575060011461181b5750506101d892500382610da2565b91509260065f527ff652222313e28459528d920b65115c16c04f3efc82aaedc97be59f3f377c0d3f935f925b82841061186257506101d89450505081016020015f8061172c565b85548785018301529485019486945092810192611847565b91907f7fffffffffffffffffffffffffffffff5d576e7357a4501ddfe92f46681b20a084116118fc579160209360809260ff5f9560405194855216868401526040830152606082015282805260015afa156118f1575f516001600160a01b038116156118e757905f905f90565b505f906001905f90565b6040513d5f823e3d90fd5b5050505f9160039190565b6004111561191157565b634e487b7160e01b5f52602160045260245ffd5b61192e81611907565b80611937575050565b61194081611907565b6001810361195a5760405163f645eedf60e01b8152600490fd5b61196381611907565b600281036119845760405163fce698f760e01b815260048101839052602490fd5b80611990600392611907565b146119985750565b6040516335e2f38360e21b81526004810191909152602490fd5b80548210156119c7575f5260205f2001905f90565b634e487b7160e01b5f52603260045260245ffd5b906040516119e881610d2d565b915465ffffffffffff8116835260301c6020830152565b9080821015611a0c575090565b905090565b6001600160d01b0390818111611a25571690565b604490604051906306dfcc6560e41b825260d060048301526024820152fd5b90611a4e43611010565b6001600160d01b03918280611a628661120c565b1691160191821161087157611a7692611d1e565b9091565b6001600160a01b03908116929181908415611b02575b16908115611aba575b610dd1935f5260086020528060405f205416915f5260405f2054169061156f565b611ac383611a11565b93611acd43611010565b6001600160d01b03958680611ae06111c8565b169116900395861161087157610dd195611af991611bf9565b50509350611a99565b9050611b0d83611a11565b90611b1743611010565b6001600160d01b03928380611b2a6111c8565b16911601928311610871578392611b4091611bf9565b5050611a90565b600a5490600160401b821015610d49576001820180600a558210156119c757600a5f52805160209091015160301b65ffffffffffff191665ffffffffffff91909116175f80516020611dfd83398151915290910155565b8054600160401b811015610d4957611bbb916001820181556119b2565b611be657815160209092015160301b65ffffffffffff191665ffffffffffff92909216919091179055565b634e487b7160e01b5f525f60045260245ffd5b600a54919291908115611cf557611c30611c2b611c1584611056565b600a5f525f80516020611dfd8339815191520190565b6119db565b805165ffffffffffff8381169491168410611ce35785602093611ca795611c6b611c60865165ffffffffffff1690565b65ffffffffffff1690565b03611cab5750611c80611c15611c9993611056565b9065ffffffffffff82549181199060301b169116179055565b01516001600160d01b031690565b9190565b9050611cde9150611ccb611cbd610dc4565b65ffffffffffff9092168252565b6001600160d01b03871681850152611b47565b611c99565b604051632520601d60e01b8152600490fd5b611d199150611d05611cbd610dc4565b6001600160d01b0384166020820152611b47565b5f9190565b805492939291908215611dd857611d45611c2b611d3a85611056565b835f5260205f200190565b90611d56825165ffffffffffff1690565b65ffffffffffff84811691168110611ce357611ca7946020948892611d84611c60875165ffffffffffff1690565b03611da55750611c9992611d9a611c8092611056565b905f5260205f200190565b915050611cde91611dc5611db7610dc4565b65ffffffffffff9093168352565b6001600160d01b03881682860152611b9e565b611d199250611de8611db7610dc4565b6001600160d01b0385166020830152611b9e56fec65a7bb8d6351c1cf70c95a316cc6a92839c986682d98bc35f958f4883f9d2a8a264697066735822122023338b4baa14bc2d322265a205c21be60b3397ea1b66ff517ce076e52e4638df64736f6c63430008180033","linkReferences":{}},"methodIdentifiers":{"CLOCK_MODE()":"4bf5d7e9","DOMAIN_SEPARATOR()":"3644e515","allowance(address,address)":"dd62ed3e","approve(address,uint256)":"095ea7b3","balanceOf(address)":"70a08231","checkpoints(address,uint32)":"f1127ed8","clock()":"91ddadf4","decimals()":"313ce567","delegate(address)":"5c19a95c","delegateBySig(address,uint256,uint256,uint8,bytes32,bytes32)":"c3cda520","delegates(address)":"587cde1e","eip712Domain()":"84b0196e","getPastTotalSupply(uint256)":"8e539e8c","getPastVotes(address,uint256)":"3a46b1a8","getVotes(address)":"9ab24eb0","name()":"06fdde03","nonces(address)":"7ecebe00","numCheckpoints(address)":"6fcfff45","permit(address,address,uint256,uint256,uint8,bytes32,bytes32)":"d505accf","symbol()":"95d89b41","totalSupply()":"18160ddd","transfer(address,uint256)":"a9059cbb","transferFrom(address,address,uint256)":"23b872dd"},"id":160}