{"abi":[{"type":"function","name":"callSender","inputs":[{"name":"data","type":"bytes","internalType":"bytes"}],"outputs":[],"stateMutability":"nonpayable"}],"bytecode":{"object":"0x6080806040523461001657610171908161001b8239f35b5f80fdfe60808060405260049081361015610014575f80fd5b5f3560e01c63f8123dd514610027575f80fd5b3461013757602036600319011261013757813567ffffffffffffffff9182821161013757366023830112156101375781840135908382116101375736602483850101116101375780825f9493602486950183378101838152039082335af1903d15610131573d81811161011e5760405191601f8201601f19908116603f011683019081118382101761010b5760405281525f60203d92013e5b156100c757005b60649060206040519162461bcd60e51b8352820152601d60248201527f5265656e7472616e637941747461636b3a206661696c65642063616c6c0000006044820152fd5b604185634e487b7160e01b5f525260245ffd5b604184634e487b7160e01b5f525260245ffd5b506100c0565b5f80fdfea264697066735822122094e7ee72333470dca2f210aed3c41a1eb7292af69cecef4e9adf35ed8c5ef71a64736f6c63430008180033","linkReferences":{}},"methodIdentifiers":{"callSender(bytes)":"f8123dd5"},"id":146}