{"abi":[{"type":"constructor","inputs":[{"name":"array","type":"address[]","internalType":"address[]"}],"stateMutability":"nonpayable"},{"type":"function","name":"unsafeAccess","inputs":[{"name":"pos","type":"uint256","internalType":"uint256"}],"outputs":[{"name":"","type":"address","internalType":"address"}],"stateMutability":"view"}],"bytecode":{"object":"0x60806040523461013d5761020c8038038061001981610141565b928339810190602091828282031261013d5781516001600160401b039283821161013d57019080601f8301121561013d5781519083821161010a578160051b9285610065818601610141565b80948152019086829582010192831161013d578601905b82821061011e575050505191821161010a5768010000000000000000821161010a575f54825f558083106100e5575b505f8052825f20925f5b8381106100ca5760405160a590816101678239f35b82516001600160a01b031685820155918101916001016100b5565b5f805282845f2091820191015b8181106100ff57506100ab565b5f81556001016100f2565b634e487b7160e01b5f52604160045260245ffd5b81516001600160a01b038116810361013d57815290860190860161007c565b5f80fd5b6040519190601f01601f191682016001600160401b0381118382101761010a5760405256fe60808060405260043610156011575f80fd5b5f3560e01c6340aa934d146023575f80fd5b34606b576020366003190112606b575f80527f290decd9548b62a8d60345a988386fc84ba6bc95484008f6362f93160ef3e56360043501546001600160a01b03168152602090f35b5f80fdfea26469706673582212201e96dd54ee6a740cba692b35c713a5d9b8420eae68ad836c00148c477e01568164736f6c63430008180033","linkReferences":{}},"methodIdentifiers":{"unsafeAccess(uint256)":"40aa934d"},"id":127}