{"abi":[{"type":"constructor","inputs":[{"name":"array","type":"bytes32[]","internalType":"bytes32[]"}],"stateMutability":"nonpayable"},{"type":"function","name":"unsafeAccess","inputs":[{"name":"pos","type":"uint256","internalType":"uint256"}],"outputs":[{"name":"","type":"bytes32","internalType":"bytes32"}],"stateMutability":"view"}],"bytecode":{"object":"0x608060405234610126576101ec803803806100198161012a565b92833981019060209182828203126101265781516001600160401b039283821161012657019080601f8301121561012657815190838211610103578160051b928561006581860161012a565b80948152018681958301019283116101265786809201905b83821061011757505050505191821161010357680100000000000000008211610103575f54825f558083106100de575b505f8052825f20925f5b8381106100cc57604051609c90816101508239f35b825185820155918101916001016100b7565b5f805282845f2091820191015b8181106100f857506100ad565b5f81556001016100eb565b634e487b7160e01b5f52604160045260245ffd5b8151815290820190820161007d565b5f80fd5b6040519190601f01601f191682016001600160401b038111838210176101035760405256fe60808060405260043610156011575f80fd5b5f3560e01c6340aa934d146023575f80fd5b3460625760203660031901126062576020905f80526004357f290decd9548b62a8d60345a988386fc84ba6bc95484008f6362f93160ef3e56301548152f35b5f80fdfea26469706673582212205c3da9ccfaa38846c854c99b3bfad6b1da717d6ab25df152641f282306d58b5b64736f6c63430008180033","linkReferences":{}},"methodIdentifiers":{"unsafeAccess(uint256)":"40aa934d"},"id":127}