{"abi":[{"type":"constructor","inputs":[{"name":"array","type":"uint256[]","internalType":"uint256[]"}],"stateMutability":"nonpayable"},{"type":"function","name":"findUpperBound","inputs":[{"name":"element","type":"uint256","internalType":"uint256"}],"outputs":[{"name":"","type":"uint256","internalType":"uint256"}],"stateMutability":"view"},{"type":"function","name":"unsafeAccess","inputs":[{"name":"pos","type":"uint256","internalType":"uint256"}],"outputs":[{"name":"","type":"uint256","internalType":"uint256"}],"stateMutability":"view"}],"bytecode":{"object":"0x60806040523461012757610309803803806100198161012b565b92833981019060209182828203126101275781516001600160401b039283821161012757019080601f8301121561012757815190838211610104578160051b928561006581860161012b565b80948152018681958301019283116101275786809201905b83821061011857505050505191821161010457680100000000000000008211610104575f54825f558083106100df575b505f8052825f20925f5b8381106100cd576040516101b890816101518239f35b825185820155918101916001016100b7565b5f805282845f2091820191015b8181106100f957506100ad565b5f81556001016100ec565b634e487b7160e01b5f52604160045260245ffd5b8151815290820190820161007d565b5f80fd5b6040519190601f01601f191682016001600160401b038111838210176101045760405256fe60806040526004361015610011575f80fd5b5f3560e01c806333e3a58a14610077576340aa934d1461002f575f80fd5b34610073576020366003190112610073575f805260206004357f290decd9548b62a8d60345a988386fc84ba6bc95484008f6362f93160ef3e5630154604051908152f35b5f80fd5b3461007357602036600319011261007357602061009560043561009d565b604051908152f35b5f905f54801561017b575b80831061011f575081151590816100e5575b50156100e2575f1981019081116100ce5790565b634e487b7160e01b5f52601160045260245ffd5b90565b9050815f198101116100ce575f80527f290decd9548b62a8d60345a988386fc84ba6bc95484008f6362f93160ef3e562820154145f6100ba565b808316906001818518811c83018093116100ce575f805283837f290decd9548b62a8d60345a988386fc84ba6bc95484008f6362f93160ef3e5630154115f146101695750506100a8565b90935081018091116100ce57916100a8565b5050505f9056fea264697066735822122074b8ea9f06530a55a121e567e97b88022bdd0a8d2365c0131620a4973847d47964736f6c63430008180033","linkReferences":{}},"methodIdentifiers":{"findUpperBound(uint256)":"33e3a58a","unsafeAccess(uint256)":"40aa934d"},"id":127}