{"abi":[{"type":"constructor","inputs":[{"name":"name","type":"string","internalType":"string"},{"name":"symbol","type":"string","internalType":"string"},{"name":"offset","type":"uint96","internalType":"uint96"},{"name":"delegates","type":"address[]","internalType":"address[]"},{"name":"receivers","type":"address[]","internalType":"address[]"},{"name":"amounts","type":"uint96[]","internalType":"uint96[]"}],"stateMutability":"nonpayable"},{"type":"function","name":"CLOCK_MODE","inputs":[],"outputs":[{"name":"","type":"string","internalType":"string"}],"stateMutability":"view"},{"type":"function","name":"approve","inputs":[{"name":"to","type":"address","internalType":"address"},{"name":"tokenId","type":"uint256","internalType":"uint256"}],"outputs":[],"stateMutability":"nonpayable"},{"type":"function","name":"balanceOf","inputs":[{"name":"owner","type":"address","internalType":"address"}],"outputs":[{"name":"","type":"uint256","internalType":"uint256"}],"stateMutability":"view"},{"type":"function","name":"clock","inputs":[],"outputs":[{"name":"","type":"uint48","internalType":"uint48"}],"stateMutability":"view"},{"type":"function","name":"delegate","inputs":[{"name":"delegatee","type":"address","internalType":"address"}],"outputs":[],"stateMutability":"nonpayable"},{"type":"function","name":"delegateBySig","inputs":[{"name":"delegatee","type":"address","internalType":"address"},{"name":"nonce","type":"uint256","internalType":"uint256"},{"name":"expiry","type":"uint256","internalType":"uint256"},{"name":"v","type":"uint8","internalType":"uint8"},{"name":"r","type":"bytes32","internalType":"bytes32"},{"name":"s","type":"bytes32","internalType":"bytes32"}],"outputs":[],"stateMutability":"nonpayable"},{"type":"function","name":"delegates","inputs":[{"name":"account","type":"address","internalType":"address"}],"outputs":[{"name":"","type":"address","internalType":"address"}],"stateMutability":"view"},{"type":"function","name":"eip712Domain","inputs":[],"outputs":[{"name":"fields","type":"bytes1","internalType":"bytes1"},{"name":"name","type":"string","internalType":"string"},{"name":"version","type":"string","internalType":"string"},{"name":"chainId","type":"uint256","internalType":"uint256"},{"name":"verifyingContract","type":"address","internalType":"address"},{"name":"salt","type":"bytes32","internalType":"bytes32"},{"name":"extensions","type":"uint256[]","internalType":"uint256[]"}],"stateMutability":"view"},{"type":"function","name":"getApproved","inputs":[{"name":"tokenId","type":"uint256","internalType":"uint256"}],"outputs":[{"name":"","type":"address","internalType":"address"}],"stateMutability":"view"},{"type":"function","name":"getPastTotalSupply","inputs":[{"name":"timepoint","type":"uint256","internalType":"uint256"}],"outputs":[{"name":"","type":"uint256","internalType":"uint256"}],"stateMutability":"view"},{"type":"function","name":"getPastVotes","inputs":[{"name":"account","type":"address","internalType":"address"},{"name":"timepoint","type":"uint256","internalType":"uint256"}],"outputs":[{"name":"","type":"uint256","internalType":"uint256"}],"stateMutability":"view"},{"type":"function","name":"getVotes","inputs":[{"name":"account","type":"address","internalType":"address"}],"outputs":[{"name":"","type":"uint256","internalType":"uint256"}],"stateMutability":"view"},{"type":"function","name":"isApprovedForAll","inputs":[{"name":"owner","type":"address","internalType":"address"},{"name":"operator","type":"address","internalType":"address"}],"outputs":[{"name":"","type":"bool","internalType":"bool"}],"stateMutability":"view"},{"type":"function","name":"name","inputs":[],"outputs":[{"name":"","type":"string","internalType":"string"}],"stateMutability":"view"},{"type":"function","name":"nonces","inputs":[{"name":"owner","type":"address","internalType":"address"}],"outputs":[{"name":"","type":"uint256","internalType":"uint256"}],"stateMutability":"view"},{"type":"function","name":"ownerOf","inputs":[{"name":"tokenId","type":"uint256","internalType":"uint256"}],"outputs":[{"name":"","type":"address","internalType":"address"}],"stateMutability":"view"},{"type":"function","name":"paused","inputs":[],"outputs":[{"name":"","type":"bool","internalType":"bool"}],"stateMutability":"view"},{"type":"function","name":"safeTransferFrom","inputs":[{"name":"from","type":"address","internalType":"address"},{"name":"to","type":"address","internalType":"address"},{"name":"tokenId","type":"uint256","internalType":"uint256"}],"outputs":[],"stateMutability":"nonpayable"},{"type":"function","name":"safeTransferFrom","inputs":[{"name":"from","type":"address","internalType":"address"},{"name":"to","type":"address","internalType":"address"},{"name":"tokenId","type":"uint256","internalType":"uint256"},{"name":"data","type":"bytes","internalType":"bytes"}],"outputs":[],"stateMutability":"nonpayable"},{"type":"function","name":"setApprovalForAll","inputs":[{"name":"operator","type":"address","internalType":"address"},{"name":"approved","type":"bool","internalType":"bool"}],"outputs":[],"stateMutability":"nonpayable"},{"type":"function","name":"supportsInterface","inputs":[{"name":"interfaceId","type":"bytes4","internalType":"bytes4"}],"outputs":[{"name":"","type":"bool","internalType":"bool"}],"stateMutability":"view"},{"type":"function","name":"symbol","inputs":[],"outputs":[{"name":"","type":"string","internalType":"string"}],"stateMutability":"view"},{"type":"function","name":"tokenURI","inputs":[{"name":"tokenId","type":"uint256","internalType":"uint256"}],"outputs":[{"name":"","type":"string","internalType":"string"}],"stateMutability":"view"},{"type":"function","name":"transferFrom","inputs":[{"name":"from","type":"address","internalType":"address"},{"name":"to","type":"address","internalType":"address"},{"name":"tokenId","type":"uint256","internalType":"uint256"}],"outputs":[],"stateMutability":"nonpayable"},{"type":"event","name":"Approval","inputs":[{"name":"owner","type":"address","indexed":true,"internalType":"address"},{"name":"approved","type":"address","indexed":true,"internalType":"address"},{"name":"tokenId","type":"uint256","indexed":true,"internalType":"uint256"}],"anonymous":false},{"type":"event","name":"ApprovalForAll","inputs":[{"name":"owner","type":"address","indexed":true,"internalType":"address"},{"name":"operator","type":"address","indexed":true,"internalType":"address"},{"name":"approved","type":"bool","indexed":false,"internalType":"bool"}],"anonymous":false},{"type":"event","name":"ConsecutiveTransfer","inputs":[{"name":"fromTokenId","type":"uint256","indexed":true,"internalType":"uint256"},{"name":"toTokenId","type":"uint256","indexed":false,"internalType":"uint256"},{"name":"fromAddress","type":"address","indexed":true,"internalType":"address"},{"name":"toAddress","type":"address","indexed":true,"internalType":"address"}],"anonymous":false},{"type":"event","name":"DelegateChanged","inputs":[{"name":"delegator","type":"address","indexed":true,"internalType":"address"},{"name":"fromDelegate","type":"address","indexed":true,"internalType":"address"},{"name":"toDelegate","type":"address","indexed":true,"internalType":"address"}],"anonymous":false},{"type":"event","name":"DelegateVotesChanged","inputs":[{"name":"delegate","type":"address","indexed":true,"internalType":"address"},{"name":"previousVotes","type":"uint256","indexed":false,"internalType":"uint256"},{"name":"newVotes","type":"uint256","indexed":false,"internalType":"uint256"}],"anonymous":false},{"type":"event","name":"EIP712DomainChanged","inputs":[],"anonymous":false},{"type":"event","name":"Paused","inputs":[{"name":"account","type":"address","indexed":false,"internalType":"address"}],"anonymous":false},{"type":"event","name":"Transfer","inputs":[{"name":"from","type":"address","indexed":true,"internalType":"address"},{"name":"to","type":"address","indexed":true,"internalType":"address"},{"name":"tokenId","type":"uint256","indexed":true,"internalType":"uint256"}],"anonymous":false},{"type":"event","name":"Unpaused","inputs":[{"name":"account","type":"address","indexed":false,"internalType":"address"}],"anonymous":false},{"type":"error","name":"CheckpointUnorderedInsertion","inputs":[]},{"type":"error","name":"ECDSAInvalidSignature","inputs":[]},{"type":"error","name":"ECDSAInvalidSignatureLength","inputs":[{"name":"length","type":"uint256","internalType":"uint256"}]},{"type":"error","name":"ECDSAInvalidSignatureS","inputs":[{"name":"s","type":"bytes32","internalType":"bytes32"}]},{"type":"error","name":"ERC5805FutureLookup","inputs":[{"name":"timepoint","type":"uint256","internalType":"uint256"},{"name":"clock","type":"uint48","internalType":"uint48"}]},{"type":"error","name":"ERC6372InconsistentClock","inputs":[]},{"type":"error","name":"ERC721ExceededMaxBatchMint","inputs":[{"name":"batchSize","type":"uint256","internalType":"uint256"},{"name":"maxBatch","type":"uint256","internalType":"uint256"}]},{"type":"error","name":"ERC721ForbiddenBatchBurn","inputs":[]},{"type":"error","name":"ERC721ForbiddenBatchMint","inputs":[]},{"type":"error","name":"ERC721ForbiddenMint","inputs":[]},{"type":"error","name":"ERC721IncorrectOwner","inputs":[{"name":"sender","type":"address","internalType":"address"},{"name":"tokenId","type":"uint256","internalType":"uint256"},{"name":"owner","type":"address","internalType":"address"}]},{"type":"error","name":"ERC721InsufficientApproval","inputs":[{"name":"operator","type":"address","internalType":"address"},{"name":"tokenId","type":"uint256","internalType":"uint256"}]},{"type":"error","name":"ERC721InvalidApprover","inputs":[{"name":"approver","type":"address","internalType":"address"}]},{"type":"error","name":"ERC721InvalidOperator","inputs":[{"name":"operator","type":"address","internalType":"address"}]},{"type":"error","name":"ERC721InvalidOwner","inputs":[{"name":"owner","type":"address","internalType":"address"}]},{"type":"error","name":"ERC721InvalidReceiver","inputs":[{"name":"receiver","type":"address","internalType":"address"}]},{"type":"error","name":"ERC721InvalidSender","inputs":[{"name":"sender","type":"address","internalType":"address"}]},{"type":"error","name":"ERC721NonexistentToken","inputs":[{"name":"tokenId","type":"uint256","internalType":"uint256"}]},{"type":"error","name":"EnforcedPause","inputs":[]},{"type":"error","name":"ExpectedPause","inputs":[]},{"type":"error","name":"InvalidAccountNonce","inputs":[{"name":"account","type":"address","internalType":"address"},{"name":"currentNonce","type":"uint256","internalType":"uint256"}]},{"type":"error","name":"InvalidShortString","inputs":[]},{"type":"error","name":"SafeCastOverflowedUintDowncast","inputs":[{"name":"bits","type":"uint8","internalType":"uint8"},{"name":"value","type":"uint256","internalType":"uint256"}]},{"type":"error","name":"StringTooLong","inputs":[{"name":"str","type":"string","internalType":"string"}]},{"type":"error","name":"VotesExpiredSignature","inputs":[{"name":"expiry","type":"uint256","internalType":"uint256"}]}],"bytecode":{"object":"0x610180604052346200008257620000266200001962000289565b9493909392919262000385565b60405161231e908162001686823960805181611ac5015260a05181611b80015260c05181611a8f015260e05181611b1401526101005181611b3a01526101205181610785015261014051816107ae01526101605181611d610152f35b5f80fd5b634e487b7160e01b5f52604160045260245ffd5b604081019081106001600160401b03821117620000b657604052565b62000086565b601f909101601f19168101906001600160401b03821190821017620000b657604052565b60405190620000ef826200009a565b565b5f5b838110620001035750505f910152565b8181015183820152602001620000f3565b81601f82011215620000825780516001600160401b038111620000b657604051926200014b601f8301601f191660200185620000bc565b8184526020828401011162000082576200016c9160208085019101620000f1565b90565b51906001600160601b03821682036200008257565b6001600160401b038111620000b65760051b60200190565b9080601f830112156200008257815190602091620001ba8162000184565b93620001ca6040519586620000bc565b81855260208086019260051b8201019283116200008257602001905b828210620001f5575050505090565b81516001600160a01b038116810362000082578152908301908301620001e6565b9080601f830112156200008257815190602091620002348162000184565b93620002446040519586620000bc565b81855260208086019260051b8201019283116200008257602001905b8282106200026f575050505090565b8380916200027d846200016f565b81520191019062000260565b62003a048038038060405192620002a18285620000bc565b8339810160c082820312620000825781516001600160401b0390818111620000825782620002d191850162000114565b6020840151828111620000825783620002ec91860162000114565b94620002fb604086016200016f565b946060810151848111620000825785620003179183016200019c565b946080820151858111620000825781620003339184016200019c565b9460a083015190811162000082576200034d920162000216565b91959493929190565b634e487b7160e01b5f52603260045260245ffd5b80518210156200037f5760209160051b010190565b62000356565b93919594929095604051946200039b866200009a565b6001958681526020916020820192603160f81b845281519060018060401b038211620000b657620003d882620003d25f54620005e1565b6200061c565b602090601f83116001146200055057509a620004158262000421938c9d9e5f9d9b9c9d9162000544575b508160011b915f199060031b1c19161790565b5f559897969862000773565b6200043160ff1960085416600855565b6200043c8162000a68565b610120526200044b8262000b6f565b610140526020815191012060e052519020610100524660a0526200046e62000c76565b6080523060c052610160525f845b620004f4575b50505f925b62000493575b50505050565b8051831015620004ee578383620004e5620004c1620004b48497866200036a565b516001600160a01b031690565b620004de620004d184886200036a565b516001600160601b031690565b9062000949565b50019262000487565b6200048d565b8194929394518110156200053a57806200052f62000518620004b48694866200036a565b62000528620004b484876200036a565b9062000868565b01829493926200047c565b9392919362000482565b90508501515f62000402565b5f805290601f1983167f290decd9548b62a8d60345a988386fc84ba6bc95484008f6362f93160ef3e563925f905b828210620005c9575050928b9c9d928c9a9b9c9282620004219610620005b0575b5050811b015f559897969862000773565b8601515f1960f88460031b161c191690555f806200059f565b808e85968294968a015181550195019301906200057e565b90600182811c9216801562000611575b6020831014620005fd57565b634e487b7160e01b5f52602260045260245ffd5b91607f1691620005f1565b601f811162000629575050565b5f805260205f20906020601f840160051c8301931062000665575b601f0160051c01905b81811062000659575050565b5f81556001016200064d565b909150819062000644565b90601f82116200067e575050565b60019160015f5260205f20906020601f840160051c83019310620006be575b601f0160051c01905b818110620006b357505050565b5f81558201620006a6565b90915081906200069d565b601f8111620006d6575050565b60095f5260205f20906020601f840160051c8301931062000713575b601f0160051c01905b81811062000707575050565b5f8155600101620006fb565b9091508190620006f2565b601f81116200072b575050565b600a5f5260205f20906020601f840160051c8301931062000768575b601f0160051c01905b8181106200075c575050565b5f815560010162000750565b909150819062000747565b80519091906001600160401b038111620000b657600190620007a1816200079b8454620005e1565b62000670565b602080601f8311600114620007e657508190620007d69394955f92620007da575b50508160011b915f199060031b1c19161790565b9055565b015190505f80620007c2565b60015f52601f198316959091907fb10e2d527612073b26eecdfd717e6a320cf44b4afac2b0732d9fcbe2b7fa0cf6925f905b88821062000850575050838596971062000837575b505050811b019055565b01515f1960f88460031b161c191690555f80806200082d565b80878596829496860151815501950193019062000818565b6001600160a01b039081165f818152600c6020526040812080548585166001600160a01b0319821681179092559294929093169290839085907f3134e8a2e6d97e929a7e54011ea5485d7d196dd5f0ba4d4ef95803e8e3fc257f9080a48215620008e457620000ef925f52600360205260405f20549162000ce2565b6040516322718ad960e21b81525f6004820152602490fd5b634e487b7160e01b5f52601160045260245ffd5b6001600160601b0391821690821601919082116200092a57565b620008fc565b6001600160601b039081165f1901919082116200092a57565b906200095462000e74565b916001600160601b03828116806200096e575b5050505090565b303b62000a56576001600160a01b03831693841562000a3e57611388821162000a13575f9392620009e97fdeaa91b6123d068f5821d0fb0678463d1a8a6079fe8af5de3ce5e896dcf9133d93620009d4620009ce62000a06958b62000910565b62000930565b95620009e1898862001113565b505062001260565b6040516001600160601b0390941684528616929081906020820190565b0390a45f80808062000967565b6040516308f58e5760e41b81526001600160601b039190911660048201526113886024820152604490fd5b604051633250574960e11b81525f6004820152602490fd5b6040516329cfc83160e11b8152600490fd5b90815160208082105f1462000a85575050906200016c9062000eb0565b6001600160401b038211620000b65762000aac8262000aa6600954620005e1565b620006c9565b602090601f831160011462000ae75750819062000adf93945f92620007da5750508160011b915f199060031b1c19161790565b60095560ff90565b60095f52601f198316949091907f6e1540171b6c0c960b71a7020d9f60077f6af931a8bbf590da0223dacf75c7af925f905b87821062000b5657505083600195961062000b3d575b505050811b0160095560ff90565b01515f1960f88460031b161c191690555f808062000b2f565b8060018596829496860151815501950193019062000b19565b90815160208082105f1462000b8c575050906200016c9062000eb0565b6001600160401b038211620000b65762000bb38262000bad600a54620005e1565b6200071e565b602090601f831160011462000bee5750819062000be693945f92620007da5750508160011b915f199060031b1c19161790565b600a5560ff90565b600a5f52601f198316949091907fc65a7bb8d6351c1cf70c95a316cc6a92839c986682d98bc35f958f4883f9d2a8925f905b87821062000c5d57505083600195961062000c44575b505050811b01600a5560ff90565b01515f1960f88460031b161c191690555f808062000c36565b8060018596829496860151815501950193019062000c20565b60e051610100516040519060208201927f8b73c3c69bb8fe3d512ecc4cf759cc79239f7b179b0ffacaa9a75d522b39400f8452604083015260608201524660808201523060a082015260a0815260c0810181811060018060401b03821117620000b65760405251902090565b6001600160a01b0380831693929190811690818514158062000e6a575b62000d0c575b5050505050565b8162000d86575b50508262000d24575b808062000d05565b6001600160a01b03165f908152600d602052604090205f80516020620039e48339815191529162000d629162000d5b909162000f1e565b9062000f52565b604080516001600160d01b039384168152919092166020820152a25f808062000d1c565b6001600160a01b03165f908152600d6020526040902062000da78462000f1e565b9065ffffffffffff9081431162000e4b5780548062000e0f57509062000dec9162000de25f80516020620039e4833981519152945f62001651565b914316906200155a565b604080516001600160d01b039384168152919092166020820152a25f8062000d13565b91905f199280848101116200092a575f80516020620039e48339815191529462000dec9462000de292845f5260205f2001015460301c62001651565b6040516306dfcc6560e41b815260306004820152436024820152604490fd5b5083151562000cff565b62000e7e62001048565b50901562000e9f576001600160601b039081166001019081116200092a5790565b50610160516001600160601b031690565b601f81511162000edd57602081519101516020821062000ece571790565b5f198260200360031b1b161790565b6044604051809263305a27a960e01b82526020600483015262000f108151809281602486015260208686019101620000f1565b601f01601f19168101030190fd5b6001600160d01b039081811162000f33571690565b604490604051906306dfcc6560e41b825260d060048301526024820152fd5b65ffffffffffff9081431162000e4b5780548062000f7f575062000de262000f7b935f6200166b565b9091565b5f199381858101116200092a5762000f7b9462000de292845f5260205f2001015460301c6200166b565b65ffffffffffff80431162000e4b57600e548062000fdb575062000fd262000f7b925f62001651565b90431662001435565b5f199281848101116200092a57600e5f5292015f80516020620039a4833981519152015462000f7b9262000fd29160301c62001651565b5f198101919082116200092a57565b9060405162001030816200009a565b91546001600160601b038116835260601c6020830152565b600654806200105a57505f905f905f90565b5f1981818101116200092a5760065f52604051926020929091015f80516020620039c4833981519152016200108f846200009a565b546001600160601b03811680855260609190911c929093018290526001929190565b6006549068010000000000000000821015620000b65760018201806006558210156200037f5760065f5280516020919091015160601b6001600160601b0319166001600160601b0391909116175f80516020620039c483398151915290910155565b6006549192919081156200123257620011516200114b620011348462001012565b60065f525f80516020620039c48339815191520190565b62001021565b80516001600160601b038381169491168410620012205785602093620011dd956200119262001186865160018060601b031690565b6001600160601b031690565b03620011e15750620011ac62001134620011cf9362001012565b80546001600160601b031660609290921b6001600160601b031916919091179055565b01516001600160a01b031690565b9190565b90506200121a915062001206620011f7620000e0565b6001600160601b039092168252565b6001600160a01b03871681850152620010b1565b620011cf565b604051632520601d60e01b8152600490fd5b6200125b915062001246620011f7620000e0565b6001600160a01b0384166020820152620010b1565b5f9190565b6001600160a01b039081165f81815260036020526040902080546001600160801b039094169384019055909190620012988262000f1e565b9265ffffffffffff80431162000e4b57600e5480620013295750620012c79062000fd2620000ef965f6200166b565b505081156200130c575b600c6020527f13649b2456f1b42fef0f0040b3aaeabcd21a76a0f3f5defd4f583839455116e8545f9283526040909220548116911662000ce2565b620013216200131b8462000f1e565b62000fa9565b5050620012d1565b905f199180838101116200092a57620000ef96620012c79362000fd292600e5f5260205f2001015460301c6200166b565b600e549068010000000000000000821015620000b6576001820180600e558210156200037f57600e5f5280516020919091015160301b65ffffffffffff191665ffffffffffff91909116175f80516020620039a483398151915290910155565b90815468010000000000000000811015620000b657600181018084558110156200037f575f9283526020928390208251929093015160301b65ffffffffffff191665ffffffffffff9290921691909117910155565b906040516200141e816200009a565b915465ffffffffffff8116835260301c6020830152565b600e549192919081156200153157620014736200146d620014568462001012565b600e5f525f80516020620039a48339815191520190565b6200140f565b805165ffffffffffff8381169491168410620012205785602093620011dd95620014b2620014a7865165ffffffffffff1690565b65ffffffffffff1690565b03620014f35750620014cc62001456620014e59362001012565b9065ffffffffffff82549181199060301b169116179055565b01516001600160d01b031690565b90506200152b91506200151762001509620000e0565b65ffffffffffff9092168252565b6001600160d01b038716818501526200135a565b620014e5565b6200125b91506200154562001509620000e0565b6001600160d01b03841660208201526200135a565b8054929392919082156200162857620015866200146d6200157b8562001012565b835f5260205f200190565b9062001598825165ffffffffffff1690565b65ffffffffffff848116911681106200122057620011dd946020948892620015ca620014a7875165ffffffffffff1690565b03620015f05750620014e592620015e5620014cc9262001012565b905f5260205f200190565b9150506200152b916200161462001606620000e0565b65ffffffffffff9093168352565b6001600160d01b03881682860152620013ba565b6200125b92506200163c62001606620000e0565b6001600160d01b0385166020830152620013ba565b6001600160d01b03918216908216039081116200092a5790565b6001600160d01b03918216908216019081116200092a579056fe60806040526004361015610011575f80fd5b5f3560e01c806301ffc9a71461019457806306fdde031461018f578063081812fc1461018a578063095ea7b31461018557806323b872dd146101805780633a46b1a81461017b57806342842e0e146101765780634bf5d7e914610171578063587cde1e1461016c5780635c19a95c146101675780635c975abb146101625780636352211e1461015d57806370a08231146101585780637ecebe001461015357806384b0196e1461014e5780638e539e8c1461014957806391ddadf41461014457806395d89b411461013f5780639ab24eb01461013a578063a22cb46514610135578063b88d4fde14610130578063c3cda5201461012b578063c87b56dd146101265763e985e9c514610121575f80fd5b610dcb565b610d7a565b610cac565b610c24565b610a91565b610a4a565b6109a6565b61097b565b610863565b61076d565b610735565b61070a565b6106da565b6106b8565b610696565b61065d565b6105cc565b6105a5565b6104fb565b6104e4565b6103b4565b61034c565b61026f565b6101af565b6001600160e01b03198116036101ab57565b5f80fd5b346101ab5760203660031901126101ab5760206004356101ce81610199565b63ffffffff60e01b166380ac58cd60e01b811490811561020c575b81156101fb575b506040519015158152f35b6301ffc9a760e01b1490505f6101f0565b635b5e139f60e01b811491506101e9565b91908251928382525f5b848110610247575050825f602080949584010152601f8019910116010190565b602081830181015184830182015201610227565b90602061026c92818152019061021d565b90565b346101ab575f3660031901126101ab576040515f805461028e81610e3b565b8084529060209060019081811690811561032257506001146102cb575b6102c7856102bb81870382610bd7565b6040519182918261025b565b0390f35b5f80805293507f290decd9548b62a8d60345a988386fc84ba6bc95484008f6362f93160ef3e5635b83851061030f575050505081016020016102bb826102c76102ab565b80548686018401529382019381016102f3565b8695506102c7969350602092506102bb94915060ff191682840152151560051b82010192936102ab565b346101ab5760203660031901126101ab57600435610369816111ae565b505f526004602052602060018060a01b0360405f205416604051908152f35b600435906001600160a01b03821682036101ab57565b602435906001600160a01b03821682036101ab57565b346101ab5760403660031901126101ab576103cd610388565b602435906103da826111ae565b3315158061049c575b8061046f575b61045757610455926104369181906001600160a01b0385811691167f8c5be1e5ebec7d5bd14f71427d1e84f3dd0314c0f7b2291e5b200ac8c7c3b9255f80a45f52600460205260405f2090565b80546001600160a01b0319166001600160a01b03909216919091179055565b005b60405163a9fbf51f60e01b8152336004820152602490fd5b506001600160a01b0381165f90815260056020908152604080832033845290915290205460ff16156103e9565b506001600160a01b0381163314156103e3565b60609060031901126101ab576001600160a01b039060043582811681036101ab579160243590811681036101ab579060443590565b346101ab576104556104f5366104af565b91610e73565b346101ab5760403660031901126101ab57610514610388565b602435610520436111e3565b9165ffffffffffff831682101561057a576001600160a01b03165f908152600d602052604090206102c792506001600160d01b03916105699190610563906111e3565b90611231565b604051911681529081906020820190565b50604051637669fc0f60e11b8152600481019190915265ffffffffffff919091166024820152604490fd5b346101ab576104556105b6366104af565b90604051926105c484610b62565b5f84526110aa565b346101ab575f3660031901126101ab576105e5436111e3565b65ffffffffffff806105f6436111e3565b1691160361064b576102c760405161060d81610b83565b601d81527f6d6f64653d626c6f636b6e756d6265722666726f6d3d64656661756c74000000602082015260405191829160208352602083019061021d565b6040516301bfc1c560e61b8152600490fd5b346101ab5760203660031901126101ab5760206001600160a01b0380610681610388565b165f52600c825260405f205416604051908152f35b346101ab5760203660031901126101ab576104556106b2610388565b33611300565b346101ab575f3660031901126101ab57602060ff600854166040519015158152f35b346101ab5760203660031901126101ab5760206106f86004356111ae565b6040516001600160a01b039091168152f35b346101ab5760203660031901126101ab57602061072d610728610388565b611074565b604051908152f35b346101ab5760203660031901126101ab576001600160a01b03610756610388565b165f52600b602052602060405f2054604051908152f35b346101ab575f3660031901126101ab576108066107a97f00000000000000000000000000000000000000000000000000000000000000006118da565b6107d27f00000000000000000000000000000000000000000000000000000000000000006119d4565b604051906107df82610b62565b5f8252610814602091604051958695600f60f81b875260e0602088015260e087019061021d565b90858203604087015261021d565b4660608501523060808501525f60a085015283810360c0850152602080845192838152019301915f5b82811061084c57505050500390f35b83518552869550938101939281019260010161083d565b346101ab5760203660031901126101ab57600435610880436111e3565b9065ffffffffffff91828116821015610954575061089d906111e3565b600e54905f9082600581116108fb575b506108b89350611787565b806108d4575060205f5b6040516001600160d01b039091168152f35b6108df602091611215565b600e5f525f805160206122a9833981519152015460301c6108c2565b909261090682611649565b820391821161094f576108b894600e5f5280835f805160206122a9833981519152015416908516105f1461093d5750915b5f6108ad565b92915061094990611223565b90610937565b610e27565b604051637669fc0f60e11b8152600481019290925265ffffffffffff166024820152604490fd5b346101ab575f3660031901126101ab576020610996436111e3565b65ffffffffffff60405191168152f35b346101ab575f3660031901126101ab576040515f600180546109c781610e3b565b808552916020916001811690811561032257506001146109f1576102c7856102bb81870382610bd7565b60015f90815293507fb10e2d527612073b26eecdfd717e6a320cf44b4afac2b0732d9fcbe2b7fa0cf65b838510610a37575050505081016020016102bb826102c76102ab565b8054868601840152938201938101610a1b565b346101ab5760203660031901126101ab576001600160a01b03610a6b610388565b165f52600d602052602060018060d01b03610a8860405f206114be565b16604051908152f35b346101ab5760403660031901126101ab57610aaa610388565b6024358015158082036101ab576001600160a01b038316928315610b3557335f9081526005602090815260408083206001600160a01b039094168352929052209060ff801983541691161790557f17307eab39ab6107e8899845ad3d59bd9653f200f220920489ca2b5937696c3160405180610b30339482919091602081019215159052565b0390a3005b604051630b61174360e31b815260048101859052602490fd5b634e487b7160e01b5f52604160045260245ffd5b6020810190811067ffffffffffffffff821117610b7e57604052565b610b4e565b6040810190811067ffffffffffffffff821117610b7e57604052565b60a0810190811067ffffffffffffffff821117610b7e57604052565b60c0810190811067ffffffffffffffff821117610b7e57604052565b90601f8019910116810190811067ffffffffffffffff821117610b7e57604052565b60405190610c0682610b83565b565b67ffffffffffffffff8111610b7e57601f01601f191660200190565b346101ab5760803660031901126101ab57610c3d610388565b610c4561039e565b6064359167ffffffffffffffff83116101ab57366023840112156101ab57826004013591610c7283610c08565b92610c806040519485610bd7565b80845236602482870101116101ab576020815f92602461045598018388013785010152604435916110aa565b346101ab5760c03660031901126101ab57610cc5610388565b6044359060243560643560ff811681036101ab57834211610d6157610d5561045594610d5c926040519060208201927fe48329057bfd03d55e49b547132e39cffd9c1820ad7b9d4c5307691425d15adf845260018060a01b0388166040840152866060840152608083015260808252610d3d82610b9f565b610d5060a435936084359351902061155b565b611581565b9182611599565b611300565b604051632341d78760e11b815260048101859052602490fd5b346101ab5760203660031901126101ab57610d966004356111ae565b505f604051610da481610b62565b526102c7604051610db481610b62565b5f815260405191829160208352602083019061021d565b346101ab5760403660031901126101ab57602060ff610e1b610deb610388565b610df361039e565b6001600160a01b039182165f9081526005865260408082209290931681526020919091522090565b54166040519015158152f35b634e487b7160e01b5f52601160045260245ffd5b90600182811c92168015610e69575b6020831014610e5557565b634e487b7160e01b5f52602260045260245ffd5b91607f1691610e4a565b906001600160a01b0380821690811561105c5760ff6008541661104a57610e9985611cde565b9233151580610fa4575b508184169283158015610f78575b6001600160a01b0383165f90815260036020526040902060018154019055610ee5836104368a5f52600260205260405f2090565b8760405192867fddf252ad1be2c89b69c2b068fc378daa952ba7f163c4a11628f55a4df523b3ef5f80a480610f6f575b610f605750610f249084611d98565b831603610f3057505050565b6040516364283d7b60e01b81526001600160a01b0392831660048201526024810193909352166044820152606490fd5b6356c4a82960e11b8152600490fd5b50303b15610f15565b610f8188611627565b6001600160a01b0386165f90815260036020526040902080545f19019055610eb1565b80610ffb575b15610fb5575f610ea3565b5092505016155f14610fdb57604051637e27328960e01b81526004810191909152602490fd5b60405163177e802f60e01b81523360048201526024810191909152604490fd5b50818416338114908115611027575b5080610faa5750855f526004602052338260405f20541614610faa565b5f90815260056020908152604080832033845290915281205460ff16915061100a565b60405163d93c066560e01b8152600490fd5b604051633250574960e11b81525f6004820152602490fd5b6001600160a01b03168015611092575f52600360205260405f205490565b6040516322718ad960e21b81525f6004820152602490fd5b919290926110b9818585610e73565b833b6110c6575b50505050565b6110eb916020916040519384928392630a85bd0160e11b9788855233600486016114fb565b03815f6001600160a01b0388165af15f918161117d575b50611141578261111061152c565b805191908261113a57604051633250574960e11b81526001600160a01b0383166004820152602490fd5b9050602001fd5b6001600160e01b0319160361115a57505f8080806110c0565b604051633250574960e11b81526001600160a01b03919091166004820152602490fd5b6111a091925060203d6020116111a7575b6111988183610bd7565b8101906114e6565b905f611102565b503d61118e565b6111b781611cde565b906001600160a01b038216156111cb575090565b60249060405190637e27328960e01b82526004820152fd5b65ffffffffffff908181116111f6571690565b604490604051906306dfcc6560e41b8252603060048301526024820152fd5b5f1981019190821161094f57565b906001820180921161094f57565b908154905f9180600581116112b7575b5091905b828210611271575050806112595750505f90565b61126290611215565b905f5260205f20015460301c90565b909161127d8184611e5c565b90845f5265ffffffffffff808360205f20015416908416105f146112a45750915b90611245565b9250600181018091111561129e57610e27565b906112c182611649565b820391821161094f57845f5265ffffffffffff808360205f20015416908416105f146112ef57505b5f611241565b92506112fa90611223565b916112e9565b6001600160a01b038181165f818152600c6020526040812080548685166001600160a01b0319821681179092559095931693611365929091869186917f3134e8a2e6d97e929a7e54011ea5485d7d196dd5f0ba4d4ef95803e8e3fc257f9080a4611074565b918381141580611471575b61137a5750505050565b806113e9575b508261138d575b806110c0565b6001600160a01b03165f908152600d602052604090205f805160206122c9833981519152916113c6916113c09091611e71565b90611ed8565b604080516001600160d01b039384168152919092166020820152a25f8080611387565b6001600160a01b0381165f908152600d6020526040902061140984611e71565b611412436111e3565b6001600160d01b03918280611426866114be565b16911690039282841161094f575f805160206122c9833981519152936114689261144f926121ca565b6040805192851683529316602082015291829190820190565b0390a25f611380565b50821515611370565b600e548061148757505f90565b805f1981011161094f57600e5f527fbb7b4a454dc3493923482f07822329ed19e8244eff582cc204f8554c3620c3fc015460301c90565b8054806114cb5750505f90565b5f1991818381011161094f575f5260205f2001015460301c90565b908160209103126101ab575161026c81610199565b6001600160a01b03918216815291166020820152604081019190915260806060820181905261026c9291019061021d565b3d15611556573d9061153d82610c08565b9161154b6040519384610bd7565b82523d5f602084013e565b606090565b604290611566611a8c565b906040519161190160f01b8352600283015260228201522090565b9161026c939161159093611ba6565b90929192611c51565b6001600160a01b0381165f908152600b60205260409020805460018101909155918290036115c5575050565b6040516301d4b62360e61b81526001600160a01b039190911660048201526024810191909152604490fd5b604051906115fd82610b83565b60208083523683820137565b8115611613570490565b634e487b7160e01b5f52601260045260245ffd5b611639905f52600460205260405f2090565b80546001600160a01b0319169055565b8015611782578061171b61171461170a6117006116f66116ec6116e26116d8600161026c9a5f908b60801c80611776575b508060401c80611769575b508060201c8061175c575b508060101c8061174f575b508060081c80611742575b508060041c80611735575b508060021c80611728575b50821c611721575b811c1b6116d1818b611609565b0160011c90565b6116d1818a611609565b6116d18189611609565b6116d18188611609565b6116d18187611609565b6116d18186611609565b6116d18185611609565b8092611609565b90611e4f565b81016116c4565b600291509101905f6116bc565b600491509101905f6116b1565b600891509101905f6116a6565b601091509101905f61169b565b602091509101905f611690565b604091509101905f611685565b9150506080905f61167a565b505f90565b82821061179357505090565b909161179f8184611e5c565b90600e5f5265ffffffffffff80835f805160206122a9833981519152015416908416105f146117d15750915b90611787565b925060018101809111156117cb57610e27565b6001600160a01b0380831692919081169081841415806118d2575b6118095750505050565b8161186e575b50508161181e575b80806110c0565b6001600160a01b03165f908152600d602052604090205f805160206122c98339815191529061184c90611ea4565b604080516001600160d01b039384168152919092166020820152a25f80611817565b6001600160a01b03165f908152600d6020526040902061188d436111e3565b6001600160d01b03905f19826118a2856114be565b16019282841161094f575f805160206122c9833981519152936118c89261144f926121ca565b0390a25f8061180f565b5060016117ff565b60ff81146119145760ff811690601f8211611902576118f76115f0565b918252602082015290565b604051632cd44ac360e21b8152600490fd5b50604051600954815f61192683610e3b565b808352926020906001908181169081156119b05750600114611951575b505061026c92500382610bd7565b91509260095f527f6e1540171b6c0c960b71a7020d9f60077f6af931a8bbf590da0223dacf75c7af935f925b828410611998575061026c9450505081016020015f80611943565b8554878501830152948501948694509281019261197d565b9150506020925061026c94915060ff191682840152151560051b8201015f80611943565b60ff81146119f15760ff811690601f8211611902576118f76115f0565b50604051600a54815f611a0383610e3b565b808352926020906001908181169081156119b05750600114611a2d57505061026c92500382610bd7565b915092600a5f527fc65a7bb8d6351c1cf70c95a316cc6a92839c986682d98bc35f958f4883f9d2a8935f925b828410611a74575061026c9450505081016020015f80611943565b85548785018301529485019486945092810192611a59565b307f00000000000000000000000000000000000000000000000000000000000000006001600160a01b03161480611b7d575b15611ae7577f000000000000000000000000000000000000000000000000000000000000000090565b60405160208101907f8b73c3c69bb8fe3d512ecc4cf759cc79239f7b179b0ffacaa9a75d522b39400f82527f000000000000000000000000000000000000000000000000000000000000000060408201527f000000000000000000000000000000000000000000000000000000000000000060608201524660808201523060a082015260a08152611b7781610bbb565b51902090565b507f00000000000000000000000000000000000000000000000000000000000000004614611abe565b91907f7fffffffffffffffffffffffffffffff5d576e7357a4501ddfe92f46681b20a08411611c28579160209360809260ff5f9560405194855216868401526040830152606082015282805260015afa15611c1d575f516001600160a01b03811615611c1357905f905f90565b505f906001905f90565b6040513d5f823e3d90fd5b5050505f9160039190565b60041115611c3d57565b634e487b7160e01b5f52602160045260245ffd5b611c5a81611c33565b80611c63575050565b611c6c81611c33565b60018103611c865760405163f645eedf60e01b8152600490fd5b611c8f81611c33565b60028103611cb05760405163fce698f760e01b815260048101839052602490fd5b80611cbc600392611c33565b14611cc45750565b6040516335e2f38360e21b81526004810191909152602490fd5b5f818152600260205260409020546001600160a01b03168015801590611d88575b8015611d56575b611d5157508060081c5f526007602052600160ff82161b60405f20541615155f14611d3057505f90565b611d456001600160601b0361026c9216611f0a565b6001600160a01b031690565b905090565b506001600160601b037f0000000000000000000000000000000000000000000000000000000000000000168210611d06565b506001600160601b038211611cff565b6001600160a01b039081169181908315611e14575b16908115611dd7575b610c06925f52600c6020528060405f205416915f5260405f205416906117e4565b611de0436111e3565b6001600160d01b0393905f1985611df561147a565b160194851161094f57610c0694611e0b916120a5565b50509250611db6565b9050611e1f436111e3565b6001600160d01b039190600183611e3461147a565b160192831161094f578392611e48916120a5565b5050611dad565b9080821015611d51575090565b90808216911860011c810180911161094f5790565b6001600160d01b0390818111611e85571690565b604490604051906306dfcc6560e41b825260d060048301526024820152fd5b611ead436111e3565b6001600160d01b0390600182611ec2856114be565b160191821161094f57611ed4926121ca565b9091565b90611ee2436111e3565b6001600160d01b03918280611ef6866114be565b1691160191821161094f57611ed4926121ca565b6006906006549182915f5b848110611f57575050508103611f2a57505f90565b60065f527ff652222313e28459528d920b65115c16c04f3efc82aaedc97be59f3f377c0d3f015460601c90565b611f618582611e5c565b90835f526001600160601b0380837ff652222313e28459528d920b65115c16c04f3efc82aaedc97be59f3f377c0d3f015416908416115f14611faf57506001810180911115611f1557610e27565b945093611f15565b600e5490600160401b821015610b7e576001820180600e5582101561200e57600e5f52805160209091015160301b65ffffffffffff191665ffffffffffff91909116175f805160206122a983398151915290910155565b634e487b7160e01b5f52603260045260245ffd5b908154600160401b811015610b7e576001810180845581101561200e575f9283526020928390208251929093015160301b65ffffffffffff191665ffffffffffff9290921691909117910155565b906040516040810181811067ffffffffffffffff821117610b7e57604052915465ffffffffffff8116835260301c6020830152565b600e549192919081156121a1576120dc6120d76120c184611215565b600e5f525f805160206122a98339815191520190565b612070565b805165ffffffffffff838116949116841061218f57856020936121539561211761210c865165ffffffffffff1690565b65ffffffffffff1690565b03612157575061212c6120c161214593611215565b9065ffffffffffff82549181199060301b169116179055565b01516001600160d01b031690565b9190565b905061218a9150612177612169610bf9565b65ffffffffffff9092168252565b6001600160d01b03871681850152611fb7565b612145565b604051632520601d60e01b8152600490fd5b6121c591506121b1612169610bf9565b6001600160d01b0384166020820152611fb7565b5f9190565b805492939291908215612284576121f16120d76121e685611215565b835f5260205f200190565b90612202825165ffffffffffff1690565b65ffffffffffff8481169116811061218f5761215394602094889261223061210c875165ffffffffffff1690565b0361225157506121459261224661212c92611215565b905f5260205f200190565b91505061218a91612271612263610bf9565b65ffffffffffff9093168352565b6001600160d01b03881682860152612022565b6121c59250612294612263610bf9565b6001600160d01b038516602083015261202256febb7b4a454dc3493923482f07822329ed19e8244eff582cc204f8554c3620c3fddec2bacdd2f05b59de34da9b523dff8be42e5e38e818c82fdb0bae774387a724a2646970667358221220a7183d1a605434e04b50f4b6874d20e2f2066619d6ea8d286331521a39d5206964736f6c63430008180033bb7b4a454dc3493923482f07822329ed19e8244eff582cc204f8554c3620c3fdf652222313e28459528d920b65115c16c04f3efc82aaedc97be59f3f377c0d3fdec2bacdd2f05b59de34da9b523dff8be42e5e38e818c82fdb0bae774387a724","linkReferences":{}},"methodIdentifiers":{"CLOCK_MODE()":"4bf5d7e9","approve(address,uint256)":"095ea7b3","balanceOf(address)":"70a08231","clock()":"91ddadf4","delegate(address)":"5c19a95c","delegateBySig(address,uint256,uint256,uint8,bytes32,bytes32)":"c3cda520","delegates(address)":"587cde1e","eip712Domain()":"84b0196e","getApproved(uint256)":"081812fc","getPastTotalSupply(uint256)":"8e539e8c","getPastVotes(address,uint256)":"3a46b1a8","getVotes(address)":"9ab24eb0","isApprovedForAll(address,address)":"e985e9c5","name()":"06fdde03","nonces(address)":"7ecebe00","ownerOf(uint256)":"6352211e","paused()":"5c975abb","safeTransferFrom(address,address,uint256)":"42842e0e","safeTransferFrom(address,address,uint256,bytes)":"b88d4fde","setApprovalForAll(address,bool)":"a22cb465","supportsInterface(bytes4)":"01ffc9a7","symbol()":"95d89b41","tokenURI(uint256)":"c87b56dd","transferFrom(address,address,uint256)":"23b872dd"},"id":191}