{"abi":[{"type":"function","name":"father","inputs":[],"outputs":[{"name":"","type":"uint256","internalType":"uint256"}],"stateMutability":"view"},{"type":"function","name":"gramps","inputs":[],"outputs":[{"name":"","type":"string","internalType":"string"}],"stateMutability":"view"},{"type":"function","name":"initialize","inputs":[],"outputs":[],"stateMutability":"nonpayable"},{"type":"function","name":"initialize","inputs":[{"name":"_gramps","type":"string","internalType":"string"},{"name":"_father","type":"uint256","internalType":"uint256"}],"outputs":[],"stateMutability":"nonpayable"},{"type":"function","name":"initialize","inputs":[{"name":"value","type":"string","internalType":"string"}],"outputs":[],"stateMutability":"nonpayable"},{"type":"function","name":"isHuman","inputs":[],"outputs":[{"name":"","type":"bool","internalType":"bool"}],"stateMutability":"view"},{"type":"event","name":"Initialized","inputs":[{"name":"version","type":"uint64","indexed":false,"internalType":"uint64"}],"anonymous":false},{"type":"error","name":"InvalidInitialization","inputs":[]},{"type":"error","name":"NotInitializing","inputs":[]}],"bytecode":{"object":"0x60808060405234610016576108f2908161001b8239f35b5f80fdfe6080604090808252600480361015610015575f80fd5b5f3560e01c9182631c8aca3b14610770575081634a6c9db61461074e5781638129fc1c146106395781638beaf7d7146103cd578163f62d18881461016b575063fa39851f14610062575f80fd5b34610167575f366003190112610167578051905f91600192816001549161008883610816565b80835260209687946001811690811561014657506001146100fc575b50506100b59250949294038461078a565b815192818492835281519182828501525f5b8381106100e65750505f83830185015250601f01601f19168101030190f35b81810183015187820187015286945082016100c7565b9093915060015f525f8051602061087d833981519152935f915b81831061012e5750879450508201016100b55f6100a4565b85548784018501529485019486945091830191610116565b9150506100b594925060ff191682840152151560051b82010185925f6100a4565b5f80fd5b90503461016757602090816003193601126101675767ffffffffffffffff928135848111610167576101a090369084016107c0565b915f8051602061089d8339815191529485549360ff85851c161592828616958615806103c6575b600180981490816103bc575b1590816103b3575b506103a45767ffffffffffffffff1981168717895584610385575b506101ff61084e565b61020761084e565b61020f61084e565b8560ff195f5416175f5561022161084e565b8151928311610372575081906102378654610816565b601f8111610317575b508690601f83116001146102ad575f926102a2575b50505f19600383901b1c191690841b1783555b61026e57005b7fc7f505b2f371ae2175ee4913f4499e1f2633a7b5936321eed1cdaeb6115181d29360ff60401b19815416905551908152a1005b015190505f80610255565b90869350601f19831691845f525f8051602061087d833981519152925f5b8a82821061030157505084116102e9575b505050811b018355610268565b01515f1960f88460031b161c191690555f80806102dc565b8385015186558a979095019493840193016102cb565b909150855f525f8051602061087d833981519152601f840160051c810191888510610368575b84939291601f89920160051c01915b82811061035a575050610240565b5f815585945088910161034c565b909150819061033d565b604190634e487b7160e01b5f525260245ffd5b68ffffffffffffffffff1916680100000000000000011788555f6101f6565b50845163f92ee8a960e01b8152fd5b9050155f6101db565b303b1591506101d3565b50846101c7565b90503461016757816003193601126101675767ffffffffffffffff908035828111610167576103ff90369083016107c0565b905f8051602061089d8339815191529283549260ff84871c16159282851694851580610632575b60018097149081610628575b15908161061f575b506106105767ffffffffffffffff19811686178755846105f1575b5061045e61084e565b61046661084e565b61046e61084e565b61047661084e565b8460ff195f5416175f5561048861084e565b81519283116103725750819061049e8554610816565b601f8111610595575b50602090816001601f85111461052857505f9261051d575b50505f19600383901b1c191690831b1782555b6104da61084e565b6024356002556104e657005b7fc7f505b2f371ae2175ee4913f4499e1f2633a7b5936321eed1cdaeb6115181d29260209260ff60401b19815416905551908152a1005b015190505f806104bf565b9190869450601f198416855f525f8051602061087d833981519152935f905b82821061057c5750508411610564575b505050811b0182556104d2565b01515f1960f88460031b161c191690555f8080610557565b8484015186558997909501949384019390810190610547565b909150845f525f8051602061087d833981519152601f840160051c810191602085106105e7575b84939291601f88920160051c01915b8281106105d95750506104a7565b5f81558594508791016105cb565b90915081906105bc565b68ffffffffffffffffff1916680100000000000000011786555f610455565b50865163f92ee8a960e01b8152fd5b9050155f61043a565b303b159150610432565b5084610426565b905034610167575f366003190112610167575f8051602061089d83398151915290815460ff81851c16159167ffffffffffffffff821680159081610746575b600114908161073c575b159081610733575b50610725575067ffffffffffffffff198116600117835581610706575b506106b061084e565b6106b861084e565b600160ff195f5416175f556106c957005b805468ff00000000000000001916905551600181527fc7f505b2f371ae2175ee4913f4499e1f2633a7b5936321eed1cdaeb6115181d290602090a1005b68ffffffffffffffffff1916680100000000000000011782555f6106a7565b845163f92ee8a960e01b8152fd5b9050155f61068a565b303b159150610682565b849150610678565b8234610167575f3660031901126101675760209060ff5f541690519015158152f35b34610167575f366003190112610167576020906002548152f35b90601f8019910116810190811067ffffffffffffffff8211176107ac57604052565b634e487b7160e01b5f52604160045260245ffd5b81601f820112156101675780359067ffffffffffffffff82116107ac57604051926107f5601f8401601f19166020018561078a565b8284526020838301011161016757815f926020809301838601378301015290565b90600182811c92168015610844575b602083101461083057565b634e487b7160e01b5f52602260045260245ffd5b91607f1691610825565b60ff5f8051602061089d8339815191525460401c161561086a57565b604051631afcd79f60e31b8152600490fdfeb10e2d527612073b26eecdfd717e6a320cf44b4afac2b0732d9fcbe2b7fa0cf6f0c57e16840df040f15088dc2f81fe391c3923bec73e23a9662efc9c229c6a00a2646970667358221220454a1fa0d84fcc181622b900b40339b078051e819fe689ea6d0b62974988e72f64736f6c63430008180033","linkReferences":{}},"methodIdentifiers":{"father()":"1c8aca3b","gramps()":"fa39851f","initialize()":"8129fc1c","initialize(string)":"f62d1888","initialize(string,uint256)":"8beaf7d7","isHuman()":"4a6c9db6"},"id":144}