{"abi":[{"type":"function","name":"gramps","inputs":[],"outputs":[{"name":"","type":"string","internalType":"string"}],"stateMutability":"view"},{"type":"function","name":"initialize","inputs":[],"outputs":[],"stateMutability":"nonpayable"},{"type":"function","name":"initialize","inputs":[{"name":"value","type":"string","internalType":"string"}],"outputs":[],"stateMutability":"nonpayable"},{"type":"function","name":"isHuman","inputs":[],"outputs":[{"name":"","type":"bool","internalType":"bool"}],"stateMutability":"view"},{"type":"event","name":"Initialized","inputs":[{"name":"version","type":"uint64","indexed":false,"internalType":"uint64"}],"anonymous":false},{"type":"error","name":"InvalidInitialization","inputs":[]},{"type":"error","name":"NotInitializing","inputs":[]}],"bytecode":{"object":"0x6080806040523461001657610686908161001b8239f35b5f80fdfe6080604090808252600480361015610015575f80fd5b5f3560e01c9182634a6c9db614610583575081638129fc1c1461045b578163f62d188814610168575063fa39851f1461004c575f80fd5b34610164575f366003190112610164578051905f916001928160015491610072836105d7565b80835260209687946001811690811561014357506001146100e6575b505061009f925094929403846105a1565b815192818492835281519182828501525f5b8381106100d05750505f83830185015250601f01601f19168101030190f35b81810183015187820187015286945082016100b1565b9093915060015f527fb10e2d527612073b26eecdfd717e6a320cf44b4afac2b0732d9fcbe2b7fa0cf6935f915b81831061012b57508794505082010161009f5f61008e565b85548784018501529485019486945091830191610113565b91505061009f94925060ff191682840152151560051b82010185925f61008e565b5f80fd5b823461016457602090816003193601126101645782359067ffffffffffffffff93848311610164573660238401121561016457828101359480861161044857601f19958351946101bf8789601f85011601876105a1565b818652366024838301011161016457815f92602489930183890137860101527ff0c57e16840df040f15088dc2f81fe391c3923bec73e23a9662efc9c229c6a009586549460ff86861c16159383871696871580610441575b60018099149081610437575b15908161042e575b5061041f5767ffffffffffffffff19811688178a5585610400575b5061024f61060f565b61025761060f565b61025f61060f565b8660ff195f5416175f5561027161060f565b81519384116103ed575090829161028887546105d7565b601f811161037d575b508791601f841160011461030457505f926102f9575b50505f19600383901b1c191690841b1783555b6102c057005b7fc7f505b2f371ae2175ee4913f4499e1f2633a7b5936321eed1cdaeb6115181d29368ff000000000000000019815416905551908152a1005b0151905087806102a7565b5f88815288957fb10e2d527612073b26eecdfd717e6a320cf44b4afac2b0732d9fcbe2b7fa0cf694939216905b8a828210610367575050841161034f575b505050811b0183556102ba565b01515f1960f88460031b161c19169055878080610342565b8385015186558a97909501949384019301610331565b90919250865f527fb10e2d527612073b26eecdfd717e6a320cf44b4afac2b0732d9fcbe2b7fa0cf6601f850160051c8101918986106103e3575b8594939291601f8a920160051c01915b8281106103d5575050610291565b5f81558695508991016103c7565b90915081906103b7565b604190634e487b7160e01b5f525260245ffd5b68ffffffffffffffffff19166801000000000000000117895589610246565b50855163f92ee8a960e01b8152fd5b9050158b61022b565b303b159150610223565b5085610217565b604182634e487b7160e01b5f525260245ffd5b905034610164575f366003190112610164577ff0c57e16840df040f15088dc2f81fe391c3923bec73e23a9662efc9c229c6a0090815460ff81851c16159167ffffffffffffffff82168015908161057b575b6001149081610571575b159081610568575b5061055a575067ffffffffffffffff19811660011783558161053b575b506104e561060f565b6104ed61060f565b600160ff195f5416175f556104fe57005b805468ff00000000000000001916905551600181527fc7f505b2f371ae2175ee4913f4499e1f2633a7b5936321eed1cdaeb6115181d290602090a1005b68ffffffffffffffffff1916680100000000000000011782555f6104dc565b845163f92ee8a960e01b8152fd5b9050155f6104bf565b303b1591506104b7565b8491506104ad565b34610164575f3660031901126101645760209060ff5f541615158152f35b90601f8019910116810190811067ffffffffffffffff8211176105c357604052565b634e487b7160e01b5f52604160045260245ffd5b90600182811c92168015610605575b60208310146105f157565b634e487b7160e01b5f52602260045260245ffd5b91607f16916105e6565b60ff7ff0c57e16840df040f15088dc2f81fe391c3923bec73e23a9662efc9c229c6a005460401c161561063e57565b604051631afcd79f60e31b8152600490fdfea26469706673582212203a2b86f66bff580dc4b1e05962d0421d6d8e4891ee796bdc329142e1aa13443f64736f6c63430008180033","linkReferences":{}},"methodIdentifiers":{"gramps()":"fa39851f","initialize()":"8129fc1c","initialize(string)":"f62d1888","isHuman()":"4a6c9db6"},"id":144}