{"abi":[{"type":"function","name":"initialize","inputs":[],"outputs":[],"stateMutability":"nonpayable"},{"type":"function","name":"initialize","inputs":[{"name":"value","type":"uint256","internalType":"uint256"}],"outputs":[],"stateMutability":"nonpayable"},{"type":"function","name":"isHuman","inputs":[],"outputs":[{"name":"","type":"bool","internalType":"bool"}],"stateMutability":"view"},{"type":"function","name":"mother","inputs":[],"outputs":[{"name":"","type":"uint256","internalType":"uint256"}],"stateMutability":"view"},{"type":"event","name":"Initialized","inputs":[{"name":"version","type":"uint64","indexed":false,"internalType":"uint64"}],"anonymous":false},{"type":"error","name":"InvalidInitialization","inputs":[]},{"type":"error","name":"NotInitializing","inputs":[]}],"bytecode":{"object":"0x6080806040523461001657610319908161001b8239f35b5f80fdfe60806040908082526004361015610014575f80fd5b5f3560e01c9081634a6c9db614610284575080638129fc1c146101aa578063ed7dfee31461018c5763fe4b84df1461004a575f80fd5b34610188576020366003190112610188577ff0c57e16840df040f15088dc2f81fe391c3923bec73e23a9662efc9c229c6a00805460ff81841c16159067ffffffffffffffff811680159081610180575b6001149081610176575b15908161016d575b5061015c5767ffffffffffffffff19811660011783558161013d575b506100d16102a2565b6100d96102a2565b6100e16102a2565b600160ff195f5416175f556100f46102a2565b60043560015561010057005b805468ff00000000000000001916905551600181527fc7f505b2f371ae2175ee4913f4499e1f2633a7b5936321eed1cdaeb6115181d290602090a1005b68ffffffffffffffffff1916680100000000000000011782555f6100c8565b835163f92ee8a960e01b8152600490fd5b9050155f6100ac565b303b1591506100a4565b83915061009a565b5f80fd5b5034610188575f366003190112610188576020906001549051908152f35b5034610188575f366003190112610188577ff0c57e16840df040f15088dc2f81fe391c3923bec73e23a9662efc9c229c6a00805460ff81841c16159067ffffffffffffffff81168015908161027c575b6001149081610272575b159081610269575b5061015c5767ffffffffffffffff19811660011783558161024a575b506102316102a2565b6102396102a2565b600160ff195f5416175f5561010057005b68ffffffffffffffffff1916680100000000000000011782555f610228565b9050155f61020c565b303b159150610204565b8391506101fa565b34610188575f3660031901126101885760209060ff5f541615158152f35b60ff7ff0c57e16840df040f15088dc2f81fe391c3923bec73e23a9662efc9c229c6a005460401c16156102d157565b604051631afcd79f60e31b8152600490fdfea26469706673582212207f1561d2211242e7bfd72a0975088caf3d7440398f47ce3d135a096649c50aa564736f6c63430008180033","linkReferences":{}},"methodIdentifiers":{"initialize()":"8129fc1c","initialize(uint256)":"fe4b84df","isHuman()":"4a6c9db6","mother()":"ed7dfee3"},"id":144}