{"abi":[{"type":"constructor","inputs":[{"name":"trustedForwarder","type":"address","internalType":"address"}],"stateMutability":"nonpayable"},{"type":"function","name":"isTrustedForwarder","inputs":[{"name":"forwarder","type":"address","internalType":"address"}],"outputs":[{"name":"","type":"bool","internalType":"bool"}],"stateMutability":"view"},{"type":"function","name":"msgData","inputs":[{"name":"integerValue","type":"uint256","internalType":"uint256"},{"name":"stringValue","type":"string","internalType":"string"}],"outputs":[],"stateMutability":"nonpayable"},{"type":"function","name":"msgDataShort","inputs":[],"outputs":[],"stateMutability":"nonpayable"},{"type":"function","name":"msgSender","inputs":[],"outputs":[],"stateMutability":"nonpayable"},{"type":"function","name":"trustedForwarder","inputs":[],"outputs":[{"name":"","type":"address","internalType":"address"}],"stateMutability":"view"},{"type":"event","name":"Data","inputs":[{"name":"data","type":"bytes","indexed":false,"internalType":"bytes"},{"name":"integerValue","type":"uint256","indexed":false,"internalType":"uint256"},{"name":"stringValue","type":"string","indexed":false,"internalType":"string"}],"anonymous":false},{"type":"event","name":"DataShort","inputs":[{"name":"data","type":"bytes","indexed":false,"internalType":"bytes"}],"anonymous":false},{"type":"event","name":"Sender","inputs":[{"name":"sender","type":"address","indexed":false,"internalType":"address"}],"anonymous":false}],"bytecode":{"object":"0x60a0346100b657601f6104db38819003918201601f19168301916001600160401b038311848410176100ba578084926020946040528339810103126100b657516001600160a01b039081811681036100b6577fd6558c3ed910d959271054471fd1c326679d9fece99c5091b00ed89627cf2bfc916020916080526100816100ce565b60405191168152a16040516103d89081610103823960805181818161011501528181610173015281816102e501526103530152f35b5f80fd5b634e487b7160e01b5f52604160045260245ffd5b6080516001600160a01b03163314806100f7575b156100f35736601319013560601c90565b3390565b5060143610156100e256fe6080604090808252600480361015610015575f80fd5b5f3560e01c918263376bf2621461019857508163572b6c0514610144575080637da0a87714610101578063d737d0c7146100b25763ff5f6b5914610057575f80fd5b346100ae575f3660031901126100ae577f6d7cec71eba467294d92341ddc4e8634eb4d742a90e16f408f06e4b70bc4cd66906100a96100946102e2565b919092519283926020845260208401916102c2565b0390a1005b5f80fd5b50346100ae575f3660031901126100ae5760207fd6558c3ed910d959271054471fd1c326679d9fece99c5091b00ed89627cf2bfc916100ef610350565b90516001600160a01b039091168152a1005b50346100ae575f3660031901126100ae57517f00000000000000000000000000000000000000000000000000000000000000006001600160a01b03168152602090f35b9050346100ae5760203660031901126100ae576001600160a01b039035818116908190036100ae5760209251917f000000000000000000000000000000000000000000000000000000000000000016148152f35b9150346100ae57826003193601126100ae576024359167ffffffffffffffff908184116100ae57366023850112156100ae5783830135948286116102af57601f1992601f87018416603f01841683019081118382101761029c57815285825260209536602482880101116100ae5786815f926024610234990183870137840101526102216102e2565b95908251966060885260608801916102c2565b933586860152848403908501528051908184525f5b828110610289577faf235354a0a47c91ee171961326335cb2d1a8e55b8a89859b0e61eb049e50ea08688818888601f895f868286010152011601030190a1005b8181018701518582018801528601610249565b604185634e487b7160e01b5f525260245ffd5b604184634e487b7160e01b5f525260245ffd5b908060209392818452848401375f828201840152601f01601f1916010190565b337f00000000000000000000000000000000000000000000000000000000000000006001600160a01b03161480610345575b1561033f5760131936019036821161032b575f9190565b634e487b7160e01b5f52601160045260245ffd5b5f903690565b506014361015610314565b337f00000000000000000000000000000000000000000000000000000000000000006001600160a01b03161480610397575b156103935736601319013560601c90565b3390565b50601436101561038256fea26469706673582212204db415371925c6ee392b15452c93eaeadc837ebcb4c1fd18b22c1d320f9fd80864736f6c63430008180033","linkReferences":{}},"methodIdentifiers":{"isTrustedForwarder(address)":"572b6c05","msgData(uint256,string)":"376bf262","msgDataShort()":"ff5f6b59","msgSender()":"d737d0c7","trustedForwarder()":"7da0a877"},"id":139}