{"abi":[{"type":"constructor","inputs":[{"name":"interfaceIds","type":"bytes4[]","internalType":"bytes4[]"}],"stateMutability":"nonpayable"},{"type":"function","name":"INTERFACE_ID_ERC165","inputs":[],"outputs":[{"name":"","type":"bytes4","internalType":"bytes4"}],"stateMutability":"view"},{"type":"function","name":"supportsInterface","inputs":[{"name":"interfaceId","type":"bytes4","internalType":"bytes4"}],"outputs":[{"name":"","type":"bool","internalType":"bool"}],"stateMutability":"view"}],"bytecode":{"object":"0x604060806040523461018357610283908138038061001c8161019b565b93843982019060209081848403126101835783516001600160401b039485821161018357019280601f85011215610183578351948511610187576005938560051b90848061006b81850161019b565b809981520192820101928311610183578401905b828210610163575050506301ffc9a760e01b5f525f825260405f2091600194859460ff19946001868254161790555f965b6100c3575b60405160c290816101c18239f35b815187101561015e5786811b82018301516001600160e01b031990811690811461010257869787915f525f8552855f20828882541617905501966100b0565b845162461bcd60e51b815260048101859052602f60248201527f455243313635496e7465726661636573537570706f727465643a20696e76616c60448201526e1a59081a5b9d195c999858d9481a59608a1b6064820152608490fd5b6100b5565b81516001600160e01b03198116810361018357815290840190840161007f565b5f80fd5b634e487b7160e01b5f52604160045260245ffd5b6040519190601f01601f191682016001600160401b038111838210176101875760405256fe60808060405260043610156011575f80fd5b5f3560e01c90816301ffc9a714605357506334d7006c14602f575f80fd5b34604f575f366003190112604f576040516301ffc9a760e01b8152602090f35b5f80fd5b34604f576020366003190112604f576004359063ffffffff60e01b8216809203604f576020915f525f825260ff60405f20541615158152f3fea26469706673582212208100b87360acbf3b89ba19c8b4ef3cdf55e5b5d016f15a2620c455e162099d7f64736f6c63430008180033","linkReferences":{}},"methodIdentifiers":{"INTERFACE_ID_ERC165()":"34d7006c","supportsInterface(bytes4)":"01ffc9a7"},"id":134}