{"abi":[{"type":"constructor","inputs":[{"name":"trustedForwarder_","type":"address","internalType":"address"}],"stateMutability":"nonpayable"},{"type":"function","name":"isTrustedForwarder","inputs":[{"name":"forwarder","type":"address","internalType":"address"}],"outputs":[{"name":"","type":"bool","internalType":"bool"}],"stateMutability":"view"},{"type":"function","name":"mockFunction","inputs":[],"outputs":[{"name":"","type":"string","internalType":"string"}],"stateMutability":"payable"},{"type":"function","name":"mockFunctionEmptyReturn","inputs":[],"outputs":[],"stateMutability":"payable"},{"type":"function","name":"mockFunctionNonPayable","inputs":[],"outputs":[{"name":"","type":"string","internalType":"string"}],"stateMutability":"nonpayable"},{"type":"function","name":"mockFunctionOutOfGas","inputs":[],"outputs":[],"stateMutability":"payable"},{"type":"function","name":"mockFunctionRevertsNoReason","inputs":[],"outputs":[],"stateMutability":"payable"},{"type":"function","name":"mockFunctionRevertsReason","inputs":[],"outputs":[],"stateMutability":"payable"},{"type":"function","name":"mockFunctionThrows","inputs":[],"outputs":[],"stateMutability":"payable"},{"type":"function","name":"mockFunctionWithArgs","inputs":[{"name":"a","type":"uint256","internalType":"uint256"},{"name":"b","type":"uint256","internalType":"uint256"}],"outputs":[{"name":"","type":"string","internalType":"string"}],"stateMutability":"payable"},{"type":"function","name":"mockFunctionWritesStorage","inputs":[{"name":"slot","type":"bytes32","internalType":"bytes32"},{"name":"value","type":"bytes32","internalType":"bytes32"}],"outputs":[{"name":"","type":"string","internalType":"string"}],"stateMutability":"nonpayable"},{"type":"function","name":"mockStaticFunction","inputs":[],"outputs":[{"name":"","type":"string","internalType":"string"}],"stateMutability":"pure"},{"type":"event","name":"MockFunctionCalled","inputs":[],"anonymous":false},{"type":"event","name":"MockFunctionCalledWithArgs","inputs":[{"name":"a","type":"uint256","indexed":false,"internalType":"uint256"},{"name":"b","type":"uint256","indexed":false,"internalType":"uint256"}],"anonymous":false}],"bytecode":{"object":"0x60803461007457601f61048238819003918201601f19168301916001600160401b038311848410176100785780849260209460405283398101031261007457516001600160a01b0381169081900361007457600180546001600160a01b0319169190911790556040516103f5908161008d8239f35b5f80fd5b634e487b7160e01b5f52604160045260245ffdfe6080604081815260049182361015610015575f80fd5b5f3560e01c9081630c034968146102e4575080630f63e42c146102a35780632c81d638146102945780633bcfaa14146102755780633e6fec0414610239578063425397a214610216578063572b6c05146101de578063a793ab4714610141578063c292d81c14610110578063c8fc7696146100f35763fdb2732514610098575f80fd5b806003193601126100ef577f2b42b3c9af4187c86225f201736204c7597312c830cb5c2537dff6ef24b946ae816100eb938151903581526024356020820152a16100e0610378565b905191829182610331565b0390f35b5f80fd5b50346100ef575f3660031901126100ef576100eb906100e0610378565b5f3660031901126100ef577f52c66ed6ec9ca819cba26fe2b2650059270d8981b295af300187a964f54a8c235f80a1005b825f3660031901126100ef575f5b5f54680100000000000000008110156101cb5760018101805f558110156101b8577f290decd9548b62a8d60345a988386fc84ba6bc95484008f6362f93160ef3e563018190555f1981146101a55760010161014f565b601182634e487b7160e01b5f525260245ffd5b603283634e487b7160e01b5f525260245ffd5b604183634e487b7160e01b5f525260245ffd5b5090346100ef5760203660031901126100ef576001600160a01b03919035828116908190036100ef5760209260015416149051908152f35b50346100ef57806003193601126100ef576100eb916024359035556100e0610378565b505f3660031901126100ef576100eb907f52c66ed6ec9ca819cba26fe2b2650059270d8981b295af300187a964f54a8c235f80a16100e0610378565b825f3660031901126100ef57600190634e487b7160e01b5f525260245ffd5b5f3660031901126100ef575f80fd5b50346100ef575f3660031901126100ef576100eb907f52c66ed6ec9ca819cba26fe2b2650059270d8981b295af300187a964f54a8c235f80a16100e0610378565b83905f3660031901126100ef57602060649262461bcd60e51b8352820152601b60248201527f43616c6c52656365697665724d6f636b3a20726576657274696e6700000000006044820152fd5b602080825282518183018190529093925f5b82811061036457505060409293505f838284010152601f8019910116010190565b818101860151848201604001528501610343565b604051906040820182811067ffffffffffffffff8211176103ab5760405260068252650c1e0c4c8ccd60d21b6020830152565b634e487b7160e01b5f52604160045260245ffdfea26469706673582212208f9e24cd4f3006d9a3c3991c5e048bad2a9de7cf3e54d2a39b1f277294fac19f64736f6c63430008180033","linkReferences":{}},"methodIdentifiers":{"isTrustedForwarder(address)":"572b6c05","mockFunction()":"3e6fec04","mockFunctionEmptyReturn()":"c292d81c","mockFunctionNonPayable()":"0f63e42c","mockFunctionOutOfGas()":"a793ab47","mockFunctionRevertsNoReason()":"2c81d638","mockFunctionRevertsReason()":"0c034968","mockFunctionThrows()":"3bcfaa14","mockFunctionWithArgs(uint256,uint256)":"fdb27325","mockFunctionWritesStorage(bytes32,bytes32)":"425397a2","mockStaticFunction()":"c8fc7696"},"id":129}