{"abi":[{"type":"function","name":"mockFunction","inputs":[],"outputs":[{"name":"","type":"string","internalType":"string"}],"stateMutability":"payable"},{"type":"function","name":"mockFunctionEmptyReturn","inputs":[],"outputs":[],"stateMutability":"payable"},{"type":"function","name":"mockFunctionNonPayable","inputs":[],"outputs":[{"name":"","type":"string","internalType":"string"}],"stateMutability":"nonpayable"},{"type":"function","name":"mockFunctionOutOfGas","inputs":[],"outputs":[],"stateMutability":"payable"},{"type":"function","name":"mockFunctionRevertsNoReason","inputs":[],"outputs":[],"stateMutability":"payable"},{"type":"function","name":"mockFunctionRevertsReason","inputs":[],"outputs":[],"stateMutability":"payable"},{"type":"function","name":"mockFunctionThrows","inputs":[],"outputs":[],"stateMutability":"payable"},{"type":"function","name":"mockFunctionWithArgs","inputs":[{"name":"a","type":"uint256","internalType":"uint256"},{"name":"b","type":"uint256","internalType":"uint256"}],"outputs":[{"name":"","type":"string","internalType":"string"}],"stateMutability":"payable"},{"type":"function","name":"mockFunctionWritesStorage","inputs":[{"name":"slot","type":"bytes32","internalType":"bytes32"},{"name":"value","type":"bytes32","internalType":"bytes32"}],"outputs":[{"name":"","type":"string","internalType":"string"}],"stateMutability":"nonpayable"},{"type":"function","name":"mockStaticFunction","inputs":[],"outputs":[{"name":"","type":"string","internalType":"string"}],"stateMutability":"pure"},{"type":"event","name":"MockFunctionCalled","inputs":[],"anonymous":false},{"type":"event","name":"MockFunctionCalledWithArgs","inputs":[{"name":"a","type":"uint256","indexed":false,"internalType":"uint256"},{"name":"b","type":"uint256","indexed":false,"internalType":"uint256"}],"anonymous":false}],"bytecode":{"object":"0x60808060405234610016576103b2908161001b8239f35b5f80fdfe6080604081815260049182361015610015575f80fd5b5f3560e01c9081630c034968146102a1575080630f63e42c146102605780632c81d638146102515780633bcfaa14146102325780633e6fec04146101f6578063425397a2146101d3578063a793ab4714610136578063c292d81c14610105578063c8fc7696146100e85763fdb273251461008d575f80fd5b806003193601126100e4577f2b42b3c9af4187c86225f201736204c7597312c830cb5c2537dff6ef24b946ae816100e0938151903581526024356020820152a16100d5610335565b9051918291826102ee565b0390f35b5f80fd5b50346100e4575f3660031901126100e4576100e0906100d5610335565b5f3660031901126100e4577f52c66ed6ec9ca819cba26fe2b2650059270d8981b295af300187a964f54a8c235f80a1005b825f3660031901126100e4575f5b5f54680100000000000000008110156101c05760018101805f558110156101ad577f290decd9548b62a8d60345a988386fc84ba6bc95484008f6362f93160ef3e563018190555f19811461019a57600101610144565b601182634e487b7160e01b5f525260245ffd5b603283634e487b7160e01b5f525260245ffd5b604183634e487b7160e01b5f525260245ffd5b50346100e457806003193601126100e4576100e0916024359035556100d5610335565b505f3660031901126100e4576100e0907f52c66ed6ec9ca819cba26fe2b2650059270d8981b295af300187a964f54a8c235f80a16100d5610335565b825f3660031901126100e457600190634e487b7160e01b5f525260245ffd5b5f3660031901126100e4575f80fd5b50346100e4575f3660031901126100e4576100e0907f52c66ed6ec9ca819cba26fe2b2650059270d8981b295af300187a964f54a8c235f80a16100d5610335565b83905f3660031901126100e457602060649262461bcd60e51b8352820152601b60248201527f43616c6c52656365697665724d6f636b3a20726576657274696e6700000000006044820152fd5b602080825282518183018190529093925f5b82811061032157505060409293505f838284010152601f8019910116010190565b818101860151848201604001528501610300565b604051906040820182811067ffffffffffffffff8211176103685760405260068252650c1e0c4c8ccd60d21b6020830152565b634e487b7160e01b5f52604160045260245ffdfea264697066735822122030f9b7452d44da545d3d7662b1e84090de04839617d2f793f7788955a0a3f2ce64736f6c63430008180033","linkReferences":{}},"methodIdentifiers":{"mockFunction()":"3e6fec04","mockFunctionEmptyReturn()":"c292d81c","mockFunctionNonPayable()":"0f63e42c","mockFunctionOutOfGas()":"a793ab47","mockFunctionRevertsNoReason()":"2c81d638","mockFunctionRevertsReason()":"0c034968","mockFunctionThrows()":"3bcfaa14","mockFunctionWithArgs(uint256,uint256)":"fdb27325","mockFunctionWritesStorage(bytes32,bytes32)":"425397a2","mockStaticFunction()":"c8fc7696"},"id":129}