{"abi":[{"type":"function","name":"canCall","inputs":[{"name":"","type":"address","internalType":"address"},{"name":"","type":"address","internalType":"address"},{"name":"","type":"bytes4","internalType":"bytes4"}],"outputs":[{"name":"immediate","type":"bool","internalType":"bool"},{"name":"delay","type":"uint32","internalType":"uint32"}],"stateMutability":"pure"},{"type":"function","name":"consumeScheduledOp","inputs":[{"name":"caller","type":"address","internalType":"address"},{"name":"data","type":"bytes","internalType":"bytes"}],"outputs":[],"stateMutability":"nonpayable"},{"type":"event","name":"ConsumeScheduledOpCalled","inputs":[{"name":"caller","type":"address","indexed":false,"internalType":"address"},{"name":"data","type":"bytes","indexed":false,"internalType":"bytes"},{"name":"isConsuming","type":"bytes4","indexed":false,"internalType":"bytes4"}],"anonymous":false}],"bytecode":{"object":"0x6080806040523461001657610274908161001b8239f35b5f80fdfe60806040908082526004361015610014575f80fd5b5f3560e01c90816394c7d7ee14610085575063b700961314610034575f80fd5b346100815760603660031901126100815761004d610206565b506024356001600160a01b03811603610081576044356001600160e01b03198116036100815780515f815260016020820152f35b5f80fd5b90503461008157816003193601126100815761009f610206565b906024359267ffffffffffffffff80851161008157366023860112156100815784600401359081116101f257602090601f19956100e38388601f850116018661021c565b818552366024838301011161008157815f92602485930183880137850101528151638fb3603760e01b8152908082600481335afa9182156101e8575f926101a8575b5082519460018060a01b031685526060818601528351938460608701525f5b858110610194577f6be74e75ed90ba015d494c939c763657508b563a99197bf1323feb9e8f08b401876080818b601f8b8b8b5f87848801015263ffffffff60e01b169085015201168101030190a1005b818101830151878201608001528201610144565b9080925081813d83116101e1575b6101c0818361021c565b8101031261008157516001600160e01b03198116810361008157905f610125565b503d6101b6565b83513d5f823e3d90fd5b634e487b7160e01b5f52604160045260245ffd5b600435906001600160a01b038216820361008157565b90601f8019910116810190811067ffffffffffffffff8211176101f25760405256fea26469706673582212209f6e3aa1739c7575c867b54179018918a576ba55fa79b01bfdf32d5abf972e5964736f6c63430008180033","linkReferences":{}},"methodIdentifiers":{"canCall(address,address,bytes4)":"b7009613","consumeScheduledOp(address,bytes)":"94c7d7ee"},"id":128}