{"abi":[{"type":"function","name":"_setImmediate","inputs":[{"name":"immediate","type":"bool","internalType":"bool"}],"outputs":[],"stateMutability":"nonpayable"},{"type":"function","name":"canCall","inputs":[{"name":"","type":"address","internalType":"address"},{"name":"","type":"address","internalType":"address"},{"name":"","type":"bytes4","internalType":"bytes4"}],"outputs":[{"name":"immediate","type":"bool","internalType":"bool"}],"stateMutability":"view"}],"bytecode":{"object":"0x608080604052346100155760dd908161001a8239f35b5f80fdfe60808060405260043610156011575f80fd5b5f3560e01c80633e5047b214607c5763b700961314602d575f80fd5b3460785760603660031901126078576001600160a01b0360043581811603607857602435908116036078576044356001600160e01b031981160360785760209060ff5f541615158152f35b5f80fd5b34607857602036600319011260785760043580151580910360785760ff80195f54169116175f555f80f3fea26469706673582212200c97934ce5bc195b517d1bfcc9d12140b96a4beaeb14e8bb05dfd6634ba3e05164736f6c63430008180033","linkReferences":{}},"methodIdentifiers":{"_setImmediate(bool)":"3e5047b2","canCall(address,address,bytes4)":"b7009613"},"id":128}