{"abi":[{"type":"function","name":"canCall","inputs":[{"name":"","type":"address","internalType":"address"},{"name":"","type":"address","internalType":"address"},{"name":"","type":"bytes4","internalType":"bytes4"}],"outputs":[],"stateMutability":"view"}],"bytecode":{"object":"0x60808060405234601457609690816100198239f35b5f80fdfe6004361015600b575f80fd5b5f3560e01c63b700961314601d575f80fd5b34605c576060366003190112605c576001600160a01b0360043581811603605c5760243590811603605c576044356001600160e01b0319811603605c57005b5f80fdfea26469706673582212201d1d3920449a99a8a02aa4798e14451561a62239ee6966ee1c573fab4d1b8abb64736f6c63430008180033","linkReferences":{}},"methodIdentifiers":{"canCall(address,address,bytes4)":"b7009613"},"id":128}