{"abi":[{"type":"function","name":"_setDelay","inputs":[{"name":"delay","type":"uint32","internalType":"uint32"}],"outputs":[],"stateMutability":"nonpayable"},{"type":"function","name":"_setImmediate","inputs":[{"name":"immediate","type":"bool","internalType":"bool"}],"outputs":[],"stateMutability":"nonpayable"},{"type":"function","name":"canCall","inputs":[{"name":"","type":"address","internalType":"address"},{"name":"","type":"address","internalType":"address"},{"name":"","type":"bytes4","internalType":"bytes4"}],"outputs":[{"name":"immediate","type":"bool","internalType":"bool"},{"name":"delay","type":"uint32","internalType":"uint32"}],"stateMutability":"view"}],"bytecode":{"object":"0x6080806040523461001657610140908161001b8239f35b5f80fdfe6080806040526004361015610012575f80fd5b5f3560e01c80632afc4521146100cc5780633e5047b21461009e5763b70096131461003b575f80fd5b3461009a57606036600319011261009a576001600160a01b036004358181160361009a576024359081160361009a576044356001600160e01b031981160361009a5760409063ffffffff5f5460ff81161515835260081c166020820152f35b5f80fd5b3461009a57602036600319011261009a5760043580151580910361009a5760ff80195f54169116175f555f80f35b3461009a57602036600319011261009a5760043563ffffffff8116810361009a5764ffffffff005f549160081b169064ffffffff001916175f555f80f3fea264697066735822122050430c8b9252df976aa502f638a124d6e634b0d79b4bc16ba463be472535824964736f6c63430008180033","linkReferences":{}},"methodIdentifiers":{"_setDelay(uint32)":"2afc4521","_setImmediate(bool)":"3e5047b2","canCall(address,address,bytes4)":"b7009613"},"id":128}