{"abi":[{"type":"function","name":"canCall","inputs":[{"name":"","type":"address","internalType":"address"},{"name":"","type":"address","internalType":"address"},{"name":"","type":"bytes4","internalType":"bytes4"}],"outputs":[{"name":"","type":"bool","internalType":"bool"}],"stateMutability":"pure"}],"bytecode":{"object":"0x608080604052346100155760ea908161001a8239f35b5f80fdfe60808060405260043610156011575f80fd5b5f3560e01c63b7009613146023575f80fd5b3460b057606036600319011260b0576001600160a01b036004358181160360b0576024359081160360b0576044356001600160e01b031981160360b05762461bcd60e51b815260206004820152602560248201527f417574686f726974794e6f44656c61794d6f636b3a206e6f7420696d706c656d604482015264195b9d195960da1b6064820152608490fd5b5f80fdfea26469706673582212200c4f178fdf66664fba20eae4edf4b5c951258ef4e080d468b0beec226d84b3cf64736f6c63430008180033","linkReferences":{}},"methodIdentifiers":{"canCall(address,address,bytes4)":"b7009613"},"id":128}