{"abi":[{"type":"constructor","inputs":[],"stateMutability":"nonpayable"},{"type":"function","name":"callback","inputs":[],"outputs":[],"stateMutability":"nonpayable"},{"type":"function","name":"countAndCall","inputs":[{"name":"attacker","type":"address","internalType":"contract ReentrancyAttack"}],"outputs":[],"stateMutability":"nonpayable"},{"type":"function","name":"countLocalRecursive","inputs":[{"name":"n","type":"uint256","internalType":"uint256"}],"outputs":[],"stateMutability":"nonpayable"},{"type":"function","name":"countThisRecursive","inputs":[{"name":"n","type":"uint256","internalType":"uint256"}],"outputs":[],"stateMutability":"nonpayable"},{"type":"function","name":"counter","inputs":[],"outputs":[{"name":"","type":"uint256","internalType":"uint256"}],"stateMutability":"view"},{"type":"function","name":"guardedCheckEntered","inputs":[],"outputs":[],"stateMutability":"nonpayable"},{"type":"function","name":"unguardedCheckNotEntered","inputs":[],"outputs":[],"stateMutability":"view"},{"type":"error","name":"ReentrancyGuardReentrantCall","inputs":[]}],"bytecode":{"object":"0x6080806040523461001e5760015f555f60015561046790816100238239f35b5f80fdfe60406080815260049081361015610014575f80fd5b5f915f3560e01c918263083b27321461039257826361bc221a146103755782638c5344fa1461023f57826396ffa690146101df578263a408f312146101b8578263b672ad8b1461008d57505063cecc95a71461006e575f80fd5b3461008a578060031936011261008a57600281541461008a5780f35b80fd5b909150346101a15760209160206003193601126101a15780356001600160a01b03811693908490036101a1576100c16103fd565b6100c961041e565b82519363041d939960e11b60208601528285528385019467ffffffffffffffff86119281871084176101a557868652823b156101a15763f8123dd560e01b8752602060448301528151606483018190528792915f5b82811061018a5750505f604483838360848896829a98010152601f801991011681010301925af1801561018057610158575b846001815580f35b909192935061016d5750525f80808080610150565b604190634e487b7160e01b5f525260245ffd5b83513d5f823e3d90fd5b80840180830151608490910152899450810161011e565b5f80fd5b604185634e487b7160e01b5f525260245ffd5b346101a1575f3660031901126101a1576101d06103fd565b60025f54036101a15760015f55005b50346101a15760203660031901126101a1578035906101fc6103fd565b81610208575b60015f55005b61021061041e565b5f19820191821161022c5750610225906103b2565b8080610202565b601190634e487b7160e01b5f525260245ffd5b90346101a15760203660031901126101a15780359161025c6103fd565b826102675760015f55005b61026f61041e565b5f19830192831161036257805160208101634629a27d60e11b815260249485830152848252606082019167ffffffffffffffff9281811084821117610338578452515f9182919082305af1903d1561035c573d81811161034a57835191601f8201601f19908116603f011683019081118382101761033857845281525f60203d92013e5b610202576064926020601b92519362461bcd60e51b85528401528201527f5265656e7472616e63794d6f636b3a206661696c65642063616c6c00000000006044820152fd5b86604187634e487b7160e01b5f52525ffd5b85604186634e487b7160e01b5f52525ffd5b506102f3565b601182634e487b7160e01b5f525260245ffd5b346101a1575f3660031901126101a1576020906001549051908152f35b346101a1575f3660031901126101a1576103aa6103fd565b61020261041e565b6103ba6103fd565b806103c7575b5060015f55565b6103cf61041e565b5f1981019081116103e9576103e3906103b2565b5f6103c0565b634e487b7160e01b5f52601160045260245ffd5b60025f541461040c5760025f55565b604051633ee5aeb560e01b8152600490fd5b600154600181018091116103e95760015556fea2646970667358221220a693fe15628ab90543f409a3f148a42d76ca3347b0196e755818955fa958024a64736f6c63430008180033","linkReferences":{}},"methodIdentifiers":{"callback()":"083b2732","countAndCall(address)":"b672ad8b","countLocalRecursive(uint256)":"96ffa690","countThisRecursive(uint256)":"8c5344fa","counter()":"61bc221a","guardedCheckEntered()":"a408f312","unguardedCheckNotEntered()":"cecc95a7"},"id":147}