{"abi":[{"type":"function","name":"exchangeRate","inputs":[],"outputs":[{"name":"","type":"uint256","internalType":"uint256"}],"stateMutability":"view"},{"type":"function","name":"execute","inputs":[{"name":"commands","type":"bytes","internalType":"bytes"},{"name":"inputs","type":"bytes[]","internalType":"bytes[]"},{"name":"deadline","type":"uint256","internalType":"uint256"}],"outputs":[],"stateMutability":"payable"},{"type":"function","name":"fundRouter","inputs":[{"name":"token","type":"address","internalType":"address"},{"name":"amount","type":"uint256","internalType":"uint256"}],"outputs":[],"stateMutability":"nonpayable"},{"type":"function","name":"setExchangeRate","inputs":[{"name":"rate","type":"uint256","internalType":"uint256"}],"outputs":[],"stateMutability":"nonpayable"},{"type":"function","name":"setShouldFail","inputs":[{"name":"fail","type":"bool","internalType":"bool"}],"outputs":[],"stateMutability":"nonpayable"},{"type":"function","name":"shouldFail","inputs":[],"outputs":[{"name":"","type":"bool","internalType":"bool"}],"stateMutability":"view"}],"bytecode":{"object":"0x6080806040523461002b57670de0b6b3a76400005f5560ff196001541660015561066490816100308239f35b5f80fdfe60806040526004361015610011575f80fd5b5f3560e01c80633593564c146100745780633ba0b9a91461006f578063678d22041461006a578063a5aa5c1214610065578063db068e0e146100605763ef5d3adb1461005b575f80fd5b6101bf565b610196565b610165565b61012c565b610110565b60603660031901126100db5767ffffffffffffffff6004358181116100db57366023820112156100db5780600401358281116100db57369101602401116100db576024359081116100db576100d06100d99136906004016100df565b604435916104c7565b005b5f80fd5b9181601f840112156100db5782359167ffffffffffffffff83116100db576020808501948460051b0101116100db57565b346100db575f3660031901126100db5760205f54604051908152f35b346100db575f3660031901126100db57602060ff600154166040519015158152f35b801515036100db57565b35906101638261014e565b565b346100db5760203660031901126100db576004356101828161014e565b60ff80196001541691151516176001555f80f35b346100db5760203660031901126100db576004355f55005b6001600160a01b038116036100db57565b346100db5760403660031901126100db576004356101dc816101ae565b6040516323b872dd60e01b81523360048201523060248083019190915235604482015290602090829060649082905f906001600160a01b03165af1801561024b5761022357005b6100d99060203d602011610244575b61023c8183610337565b8101906104a7565b503d610232565b6104bc565b1561025757565b60405162461bcd60e51b8152602060048201526011602482015270135bd8dace8814ddd85c0819985a5b1959607a1b6044820152606490fd5b1561029757565b60405162461bcd60e51b8152602060048201526015602482015274135bd8dace88111958591b1a5b99481c185cdcd959605a1b6044820152606490fd5b901561030f57803590601e19813603018212156100db57019081359167ffffffffffffffff83116100db5760200182360381136100db579190565b634e487b7160e01b5f52603260045260245ffd5b634e487b7160e01b5f52604160045260245ffd5b90601f8019910116810190811067ffffffffffffffff82111761035957604052565b610323565b919060a0838203126100db578235610375816101ae565b92602092838201359360408301359360608401359067ffffffffffffffff918281116100db57850181601f820112156100db57803592831161035957604051916103c8601f8501601f1916860184610337565b8383528484830101116100db5783836080946103f0965f940183860137830101529301610158565b90565b156103fa57565b60405162461bcd60e51b815260206004820152601260248201527109adec6d6744092dcecc2d8d2c840e0c2e8d60731b6044820152606490fd5b8181029291811591840414171561044757565b634e487b7160e01b5f52601160045260245ffd5b1561046257565b60405162461bcd60e51b815260206004820152601960248201527f4d6f636b3a20496e73756666696369656e74206f7574707574000000000000006044820152606490fd5b908160209103126100db57516103f08161014e565b6040513d5f823e3d90fd5b916104ef906104e76104e26104de60015460ff1690565b1590565b610250565b421115610290565b806104f8575050565b61050861051091610595936102d4565b81019061035e565b50929160018060a01b03610528602b865110156103f3565b602b60148601519501519161055b6105526105445f5484610434565b670de0b6b3a7640000900490565b9485101561045b565b6040516323b872dd60e01b815233600482015230602482015260448101919091526020969095879187919082905f90869083906064820190565b0393165af194851561024b578187955f926105e598610611575b5060405163a9059cbb60e01b815293166001600160a01b0316600484015260248301949094529094859384929183906044820190565b0393165af1801561024b576105f8575050565b8161060e92903d106102445761023c8183610337565b50565b61062790883d8a116102445761023c8183610337565b505f6105af56fea2646970667358221220e894b73c773408a4caab4c53a2a6cd6d316b608d3f88c3c19035cde74876681764736f6c63430008180033","linkReferences":{}},"methodIdentifiers":{"exchangeRate()":"3ba0b9a9","execute(bytes,bytes[],uint256)":"3593564c","fundRouter(address,uint256)":"ef5d3adb","setExchangeRate(uint256)":"db068e0e","setShouldFail(bool)":"a5aa5c12","shouldFail()":"678d2204"},"id":313}