{"abi":[{"type":"constructor","inputs":[{"name":"underlying","type":"address","internalType":"address"}],"stateMutability":"nonpayable"},{"type":"function","name":"allowance","inputs":[{"name":"owner","type":"address","internalType":"address"},{"name":"spender","type":"address","internalType":"address"}],"outputs":[{"name":"","type":"uint256","internalType":"uint256"}],"stateMutability":"view"},{"type":"function","name":"approve","inputs":[{"name":"spender","type":"address","internalType":"address"},{"name":"value","type":"uint256","internalType":"uint256"}],"outputs":[{"name":"","type":"bool","internalType":"bool"}],"stateMutability":"nonpayable"},{"type":"function","name":"asset","inputs":[],"outputs":[{"name":"","type":"address","internalType":"address"}],"stateMutability":"view"},{"type":"function","name":"balanceOf","inputs":[{"name":"account","type":"address","internalType":"address"}],"outputs":[{"name":"","type":"uint256","internalType":"uint256"}],"stateMutability":"view"},{"type":"function","name":"burn","inputs":[{"name":"account","type":"address","internalType":"address"},{"name":"amount","type":"uint256","internalType":"uint256"}],"outputs":[],"stateMutability":"nonpayable"},{"type":"function","name":"convertToAssets","inputs":[{"name":"shares","type":"uint256","internalType":"uint256"}],"outputs":[{"name":"","type":"uint256","internalType":"uint256"}],"stateMutability":"view"},{"type":"function","name":"convertToShares","inputs":[{"name":"assets","type":"uint256","internalType":"uint256"}],"outputs":[{"name":"","type":"uint256","internalType":"uint256"}],"stateMutability":"view"},{"type":"function","name":"decimals","inputs":[],"outputs":[{"name":"","type":"uint8","internalType":"uint8"}],"stateMutability":"view"},{"type":"function","name":"deposit","inputs":[{"name":"assets","type":"uint256","internalType":"uint256"},{"name":"receiver","type":"address","internalType":"address"}],"outputs":[{"name":"","type":"uint256","internalType":"uint256"}],"stateMutability":"nonpayable"},{"type":"function","name":"maxDeposit","inputs":[{"name":"","type":"address","internalType":"address"}],"outputs":[{"name":"","type":"uint256","internalType":"uint256"}],"stateMutability":"view"},{"type":"function","name":"maxMint","inputs":[{"name":"","type":"address","internalType":"address"}],"outputs":[{"name":"","type":"uint256","internalType":"uint256"}],"stateMutability":"view"},{"type":"function","name":"maxRedeem","inputs":[{"name":"owner","type":"address","internalType":"address"}],"outputs":[{"name":"","type":"uint256","internalType":"uint256"}],"stateMutability":"view"},{"type":"function","name":"maxWithdraw","inputs":[{"name":"owner","type":"address","internalType":"address"}],"outputs":[{"name":"","type":"uint256","internalType":"uint256"}],"stateMutability":"view"},{"type":"function","name":"mint","inputs":[{"name":"account","type":"address","internalType":"address"},{"name":"amount","type":"uint256","internalType":"uint256"}],"outputs":[],"stateMutability":"nonpayable"},{"type":"function","name":"mint","inputs":[{"name":"shares","type":"uint256","internalType":"uint256"},{"name":"receiver","type":"address","internalType":"address"}],"outputs":[{"name":"","type":"uint256","internalType":"uint256"}],"stateMutability":"nonpayable"},{"type":"function","name":"name","inputs":[],"outputs":[{"name":"","type":"string","internalType":"string"}],"stateMutability":"view"},{"type":"function","name":"previewDeposit","inputs":[{"name":"assets","type":"uint256","internalType":"uint256"}],"outputs":[{"name":"","type":"uint256","internalType":"uint256"}],"stateMutability":"view"},{"type":"function","name":"previewMint","inputs":[{"name":"shares","type":"uint256","internalType":"uint256"}],"outputs":[{"name":"","type":"uint256","internalType":"uint256"}],"stateMutability":"view"},{"type":"function","name":"previewRedeem","inputs":[{"name":"shares","type":"uint256","internalType":"uint256"}],"outputs":[{"name":"","type":"uint256","internalType":"uint256"}],"stateMutability":"view"},{"type":"function","name":"previewWithdraw","inputs":[{"name":"assets","type":"uint256","internalType":"uint256"}],"outputs":[{"name":"","type":"uint256","internalType":"uint256"}],"stateMutability":"view"},{"type":"function","name":"redeem","inputs":[{"name":"shares","type":"uint256","internalType":"uint256"},{"name":"receiver","type":"address","internalType":"address"},{"name":"owner","type":"address","internalType":"address"}],"outputs":[{"name":"","type":"uint256","internalType":"uint256"}],"stateMutability":"nonpayable"},{"type":"function","name":"symbol","inputs":[],"outputs":[{"name":"","type":"string","internalType":"string"}],"stateMutability":"view"},{"type":"function","name":"totalAssets","inputs":[],"outputs":[{"name":"","type":"uint256","internalType":"uint256"}],"stateMutability":"view"},{"type":"function","name":"totalSupply","inputs":[],"outputs":[{"name":"","type":"uint256","internalType":"uint256"}],"stateMutability":"view"},{"type":"function","name":"transfer","inputs":[{"name":"to","type":"address","internalType":"address"},{"name":"value","type":"uint256","internalType":"uint256"}],"outputs":[{"name":"","type":"bool","internalType":"bool"}],"stateMutability":"nonpayable"},{"type":"function","name":"transferFrom","inputs":[{"name":"from","type":"address","internalType":"address"},{"name":"to","type":"address","internalType":"address"},{"name":"value","type":"uint256","internalType":"uint256"}],"outputs":[{"name":"","type":"bool","internalType":"bool"}],"stateMutability":"nonpayable"},{"type":"function","name":"withdraw","inputs":[{"name":"assets","type":"uint256","internalType":"uint256"},{"name":"receiver","type":"address","internalType":"address"},{"name":"owner","type":"address","internalType":"address"}],"outputs":[{"name":"","type":"uint256","internalType":"uint256"}],"stateMutability":"nonpayable"},{"type":"event","name":"Approval","inputs":[{"name":"owner","type":"address","indexed":true,"internalType":"address"},{"name":"spender","type":"address","indexed":true,"internalType":"address"},{"name":"value","type":"uint256","indexed":false,"internalType":"uint256"}],"anonymous":false},{"type":"event","name":"Deposit","inputs":[{"name":"sender","type":"address","indexed":true,"internalType":"address"},{"name":"owner","type":"address","indexed":true,"internalType":"address"},{"name":"assets","type":"uint256","indexed":false,"internalType":"uint256"},{"name":"shares","type":"uint256","indexed":false,"internalType":"uint256"}],"anonymous":false},{"type":"event","name":"Transfer","inputs":[{"name":"from","type":"address","indexed":true,"internalType":"address"},{"name":"to","type":"address","indexed":true,"internalType":"address"},{"name":"value","type":"uint256","indexed":false,"internalType":"uint256"}],"anonymous":false},{"type":"event","name":"Withdraw","inputs":[{"name":"sender","type":"address","indexed":true,"internalType":"address"},{"name":"receiver","type":"address","indexed":true,"internalType":"address"},{"name":"owner","type":"address","indexed":true,"internalType":"address"},{"name":"assets","type":"uint256","indexed":false,"internalType":"uint256"},{"name":"shares","type":"uint256","indexed":false,"internalType":"uint256"}],"anonymous":false},{"type":"error","name":"AddressEmptyCode","inputs":[{"name":"target","type":"address","internalType":"address"}]},{"type":"error","name":"AddressInsufficientBalance","inputs":[{"name":"account","type":"address","internalType":"address"}]},{"type":"error","name":"ERC20InsufficientAllowance","inputs":[{"name":"spender","type":"address","internalType":"address"},{"name":"allowance","type":"uint256","internalType":"uint256"},{"name":"needed","type":"uint256","internalType":"uint256"}]},{"type":"error","name":"ERC20InsufficientBalance","inputs":[{"name":"sender","type":"address","internalType":"address"},{"name":"balance","type":"uint256","internalType":"uint256"},{"name":"needed","type":"uint256","internalType":"uint256"}]},{"type":"error","name":"ERC20InvalidApprover","inputs":[{"name":"approver","type":"address","internalType":"address"}]},{"type":"error","name":"ERC20InvalidReceiver","inputs":[{"name":"receiver","type":"address","internalType":"address"}]},{"type":"error","name":"ERC20InvalidSender","inputs":[{"name":"sender","type":"address","internalType":"address"}]},{"type":"error","name":"ERC20InvalidSpender","inputs":[{"name":"spender","type":"address","internalType":"address"}]},{"type":"error","name":"ERC4626ExceededMaxDeposit","inputs":[{"name":"receiver","type":"address","internalType":"address"},{"name":"assets","type":"uint256","internalType":"uint256"},{"name":"max","type":"uint256","internalType":"uint256"}]},{"type":"error","name":"ERC4626ExceededMaxMint","inputs":[{"name":"receiver","type":"address","internalType":"address"},{"name":"shares","type":"uint256","internalType":"uint256"},{"name":"max","type":"uint256","internalType":"uint256"}]},{"type":"error","name":"ERC4626ExceededMaxRedeem","inputs":[{"name":"owner","type":"address","internalType":"address"},{"name":"shares","type":"uint256","internalType":"uint256"},{"name":"max","type":"uint256","internalType":"uint256"}]},{"type":"error","name":"ERC4626ExceededMaxWithdraw","inputs":[{"name":"owner","type":"address","internalType":"address"},{"name":"assets","type":"uint256","internalType":"uint256"},{"name":"max","type":"uint256","internalType":"uint256"}]},{"type":"error","name":"FailedInnerCall","inputs":[]},{"type":"error","name":"MathOverflowedMulDiv","inputs":[]},{"type":"error","name":"SafeERC20FailedOperation","inputs":[{"name":"token","type":"address","internalType":"address"}]}],"bytecode":{"object":"0x60c0806040523462000378578062001587803803809162000021828562000398565b83396020928391810103126200037857516001600160a01b0381169190829003620003785760405162000054816200037c565b600b81526a455243343632364d6f636b60a81b8282015260405162000079816200037c565b600681526545343632364d60d01b8382015281516001600160401b03919082811162000283576003918254916001958684811c941680156200036d575b8885101462000359578190601f9485811162000306575b508890858311600114620002a3575f9262000297575b50505f1982861b1c191690861b1783555b8051938411620002835760049586548681811c9116801562000278575b8282101462000265578381116200021d575b5080928511600114620001b357509383949184925f95620001a7575b50501b925f19911b1c19161790555b6200015981620003bc565b90156200019e575b60a05260805260405161110990816200047e82396080518181816105610152818161097d01528181610d380152610ea4015260a051816105a50152f35b50601262000161565b015193505f806200013f565b92919084601f198116885f52855f20955f905b89838310620002025750505010620001e8575b50505050811b0190556200014e565b01519060f8845f19921b161c191690555f808080620001d9565b858701518955909701969485019488935090810190620001c6565b875f52815f208480880160051c8201928489106200025b575b0160051c019087905b8281106200024f57505062000123565b5f81550187906200023f565b9250819262000236565b602288634e487b7160e01b5f525260245ffd5b90607f169062000111565b634e487b7160e01b5f52604160045260245ffd5b015190505f80620000e3565b90889350601f19831691875f528a5f20925f5b8c828210620002ef5750508411620002d7575b505050811b018355620000f4565b01515f1983881b60f8161c191690555f8080620002c9565b8385015186558c97909501949384019301620002b6565b909150855f52885f208580850160051c8201928b86106200034f575b918a91869594930160051c01915b82811062000340575050620000cd565b5f81558594508a910162000330565b9250819262000322565b634e487b7160e01b5f52602260045260245ffd5b93607f1693620000b6565b5f80fd5b604081019081106001600160401b038211176200028357604052565b601f909101601f19168101906001600160401b038211908210176200028357604052565b5f80604051926020938481019063313ce56760e01b825260048152620003e2816200037c565b51916001600160a01b03165afa3d1562000474573d906001600160401b03821162000283576040519162000420601f8201601f191685018462000398565b82523d5f8484013e5b8062000468575b6200043e575b50505f905f90565b81818051810103126200037857015160ff8111156200045e578062000436565b9060ff6001921690565b50818151101562000430565b6060906200042956fe60406080815260049081361015610014575f80fd5b5f3560e01c91826301e1d114146107ff57826306fdde031461070b57826307a2d13a14610524578263095ea7b3146106635782630a28a4771461064557826318160ddd1461062757826323b872dd146105eb578263313ce5671461059057826338d52e0f1461054d578263402d267d1461020f57826340c10f19146105295782634cdad506146105245782636e553f65146104f157826370a08231146104d157826394bf804d1461049e57826395d89b411461039c5782639dc29fac14610376578263a9059cbb14610346578263b3d7f6b914610328578263b460af941461029d578263ba0876521461021457508163c63d75b61461020f578163c6e6f59214610148578163ce96cb77146101d9578163d905777e14610199578163dd62ed3e1461014d575063ef8b30f714610148575f80fd5b61090e565b34610195578060031936011261019557602090610168610888565b61017061089e565b9060018060a01b038091165f5260018452825f2091165f528252805f20549051908152f35b5f80fd5b34610195576020366003190112610195576020906101d26101b8610888565b6001600160a01b03165f9081526020819052604090205490565b9051908152f35b34610195576020366003190112610195576020906001600160a01b036101fd610888565b165f525f82526101d2815f2054610a34565b6108b4565b903461019557610223366108d9565b9291936102408460018060a01b03165f525f60205260405f205490565b8086116102685750508361026291610259602096610a34565b94859133610e14565b51908152f35b9251632e52afbb60e21b81526001600160a01b0390941690840190815260208101949094525060408301529081906060010390fd5b9034610195576102ac366108d9565b9291936102d16102cc8560018060a01b03165f525f60205260405f205490565b610a34565b8086116102f357505061026290846102ea602096610a5f565b94859233610e14565b9251633fa733bb60e21b81526001600160a01b0390941690840190815260208101949094525060408301529081906060010390fd5b9034610195576020366003190112610195576101d2602092356109f2565b503461019557806003193601126101955760209061036f610365610888565b6024359033610b82565b5160018152f35b5034610195573660031901126101955761039a610391610888565b60243590610d75565b005b9034610195575f366003190112610195578051905f9280549060018260011c9160018416938415610494575b60209485851081146104815784885290811561045f5750600114610406575b61040286866103f8828b038361092c565b519182918261081b565b0390f35b5f9081529295507f8a35acfbc15ff81a39ae7d344fd709f28e8600b4aa8c65c6b64bfe7fe36bd19b5b82841061044c5750505082610402946103f89282010194866103e7565b805486850188015292860192810161042f565b60ff191687860152505050151560051b83010192506103f882610402866103e7565b602283634e487b7160e01b5f525260245ffd5b92607f16926103c8565b903461019557806003193601126101955760209135906102626104bf61089e565b926104c9816109f2565b809433610cbc565b5034610195576020366003190112610195576020906101d26101b8610888565b9034610195578060031936011261019557602091359061026261051261089e565b61051b84610a8a565b93849133610cbc565b610862565b5034610195573660031901126101955761039a610544610888565b60243590610c5c565b5034610195575f36600319011261019557517f00000000000000000000000000000000000000000000000000000000000000006001600160a01b03168152602090f35b9034610195575f3660031901126101955760ff7f0000000000000000000000000000000000000000000000000000000000000000169060ff82116105d8576020925051908152f35b601183634e487b7160e01b5f525260245ffd5b50346101955760603660031901126101955760209061036f61060b610888565b61061361089e565b60443591610622833383610ab5565b610b82565b5034610195575f366003190112610195576020906002549051908152f35b9034610195576020366003190112610195576101d260209235610a5f565b903461019557806003193601126101955761067c610888565b6024359033156106f5576001600160a01b03169081156106df5760209350335f5260018452825f20825f52845280835f205582519081527f8c5be1e5ebec7d5bd14f71427d1e84f3dd0314c0f7b2291e5b200ac8c7c3b925843392a35160018152f35b8251634a1406b160e11b81525f81860152602490fd5b825163e602df0560e01b81525f81860152602490fd5b9034610195575f366003190112610195578051905f9260035460018160011c916001811680156107f5575b60209485851082146107e257508387529081156107c25750600114610768575b5050506103f88261040294038361092c565b60035f9081529295507fc2575a0e9e593c00f959f8c92f12db2869c3395a3b0502d05e2516446f71f85b5b8284106107af5750505082610402946103f89282010194610756565b8054868501880152928601928101610793565b60ff1916868501525050151560051b83010192506103f882610402610756565b602290634e487b7160e01b5f525260245ffd5b92607f1692610736565b5034610195575f366003190112610195576020906101d2610962565b602080825282518183018190529093925f5b82811061084e57505060409293505f838284010152601f8019910116010190565b81810186015184820160400152850161082d565b34610195576020366003190112610195576020610880600435610a34565b604051908152f35b600435906001600160a01b038216820361019557565b602435906001600160a01b038216820361019557565b34610195576020366003190112610195576108cd610888565b5060206040515f198152f35b606090600319011261019557600435906001600160a01b03906024358281168103610195579160443590811681036101955790565b34610195576020366003190112610195576020610880600435610a8a565b90601f8019910116810190811067ffffffffffffffff82111761094e57604052565b634e487b7160e01b5f52604160045260245ffd5b6040516370a0823160e01b81523060048201526020816024817f00000000000000000000000000000000000000000000000000000000000000006001600160a01b03165afa9081156109e7575f916109b8575090565b90506020813d6020116109df575b816109d36020938361092c565b81010312610195575190565b3d91506109c6565b6040513d5f823e3d90fd5b6109fa610962565b60018101809111610a20576002549060018201809211610a2057610a1d92610ee6565b90565b634e487b7160e01b5f52601160045260245ffd5b610a3c610962565b60018101809111610a20576002549060018201809211610a2057610a1d92610f24565b60025460018101809111610a2057610a75610962565b9060018201809211610a2057610a1d92610ee6565b60025460018101809111610a2057610aa0610962565b9060018201809211610a2057610a1d92610f24565b919060018060a01b0380931692835f526001602052604093845f2091831691825f52602052845f2054925f198403610af0575b505050505050565b848410610b5257508015610b3b578115610b24575f526001602052835f20905f5260205203905f20555f8080808080610ae8565b8451634a1406b160e11b81525f6004820152602490fd5b845163e602df0560e01b81525f6004820152602490fd5b8551637dc7a0d960e11b81526001600160a01b039190911660048201526024810184905260448101859052606490fd5b916001600160a01b03808416928315610c445716928315610c2c57825f525f60205260405f205490828210610bfa5750817fddf252ad1be2c89b69c2b068fc378daa952ba7f163c4a11628f55a4df523b3ef92602092855f525f84520360405f2055845f5260405f20818154019055604051908152a3565b60405163391434e360e21b81526001600160a01b03919091166004820152602481019190915260448101829052606490fd5b60405163ec442f0560e01b81525f6004820152602490fd5b604051634b637e8f60e11b81525f6004820152602490fd5b6001600160a01b0316908115610c2c5760025490808201809211610a205760207fddf252ad1be2c89b69c2b068fc378daa952ba7f163c4a11628f55a4df523b3ef915f9360025584845283825260408420818154019055604051908152a3565b6040516323b872dd60e01b60208201526001600160a01b039182166024820181905230604483015260648083018690528252939460a08201939192919067ffffffffffffffff85118486101761094e57610d5c6040947fdcbc1c05240f31ff3ad067ef1ee35ce4997762752e3a095284754544f4c709d79686527f0000000000000000000000000000000000000000000000000000000000000000610fb7565b610d668183610c5c565b835196875260208701521693a3565b91906001600160a01b038316908115610c4457815f525f60205260405f205493818510610de257506020817fddf252ad1be2c89b69c2b068fc378daa952ba7f163c4a11628f55a4df523b3ef925f95968587528684520360408620558060025403600255604051908152a3565b60405163391434e360e21b81526001600160a01b03919091166004820152602481018590526044810191909152606490fd5b6001600160a01b038084169581831694909392610e3d918591828a8903610ed5575b5050610d75565b6040519163a9059cbb60e01b6020840152169384602483015280604483015260448252608082019282841067ffffffffffffffff85111761094e57610ec86040937ffbde797d201c681b91056529119e0b02407c7bb96a4a2c75c01fc9667232c8db9585527f0000000000000000000000000000000000000000000000000000000000000000610fb7565b82519182526020820152a4565b610edf9183610ab5565b5f82610e36565b9190610ef3828285610f24565b928215610f105709610f025790565b60018101809111610a205790565b634e487b7160e01b5f52601260045260245ffd5b9091828202915f1984820993838086109503948086039514610fa95784831115610f9757829109815f038216809204600280826003021880830282030280830282030280830282030280830282030280830282030280920290030293600183805f03040190848311900302920304170290565b60405163227bc15360e01b8152600490fd5b505080925015610f10570490565b81516001600160a01b03909116915f91829160200182855af13d15611064573d67ffffffffffffffff811161094e5761101291604051916110026020601f19601f840116018461092c565b82523d5f602084013e5b83611070565b8051908115159182611040575b50506110285750565b60249060405190635274afe760e01b82526004820152fd5b81925090602091810103126101955760200151801590811503610195575f8061101f565b6110129060609061100c565b90611097575080511561108557805190602001fd5b604051630a12f52160e11b8152600490fd5b815115806110ca575b6110a8575090565b604051639996b31560e01b81526001600160a01b039091166004820152602490fd5b50803b156110a056fea264697066735822122017da26422e95709e11c1f65e89016dd422adcda0838b5d355415b21ff36a59ac64736f6c63430008180033","linkReferences":{}},"methodIdentifiers":{"allowance(address,address)":"dd62ed3e","approve(address,uint256)":"095ea7b3","asset()":"38d52e0f","balanceOf(address)":"70a08231","burn(address,uint256)":"9dc29fac","convertToAssets(uint256)":"07a2d13a","convertToShares(uint256)":"c6e6f592","decimals()":"313ce567","deposit(uint256,address)":"6e553f65","maxDeposit(address)":"402d267d","maxMint(address)":"c63d75b6","maxRedeem(address)":"d905777e","maxWithdraw(address)":"ce96cb77","mint(address,uint256)":"40c10f19","mint(uint256,address)":"94bf804d","name()":"06fdde03","previewDeposit(uint256)":"ef8b30f7","previewMint(uint256)":"b3d7f6b9","previewRedeem(uint256)":"4cdad506","previewWithdraw(uint256)":"0a28a477","redeem(uint256,address,address)":"ba087652","symbol()":"95d89b41","totalAssets()":"01e1d114","totalSupply()":"18160ddd","transfer(address,uint256)":"a9059cbb","transferFrom(address,address,uint256)":"23b872dd","withdraw(uint256,address,address)":"b460af94"},"id":187}