{"abi":[{"type":"function","name":"bytesMap","inputs":[{"name":"key","type":"uint256","internalType":"uint256"}],"outputs":[{"name":"","type":"bytes","internalType":"bytes"}],"stateMutability":"view"},{"type":"function","name":"getAddress","inputs":[{"name":"slot","type":"bytes32","internalType":"bytes32"}],"outputs":[{"name":"","type":"address","internalType":"address"}],"stateMutability":"view"},{"type":"function","name":"getBoolean","inputs":[{"name":"slot","type":"bytes32","internalType":"bytes32"}],"outputs":[{"name":"","type":"bool","internalType":"bool"}],"stateMutability":"view"},{"type":"function","name":"getBytes","inputs":[{"name":"slot","type":"bytes32","internalType":"bytes32"}],"outputs":[{"name":"","type":"bytes","internalType":"bytes"}],"stateMutability":"view"},{"type":"function","name":"getBytes32","inputs":[{"name":"slot","type":"bytes32","internalType":"bytes32"}],"outputs":[{"name":"","type":"bytes32","internalType":"bytes32"}],"stateMutability":"view"},{"type":"function","name":"getBytesStorage","inputs":[{"name":"key","type":"uint256","internalType":"uint256"}],"outputs":[{"name":"","type":"bytes","internalType":"bytes"}],"stateMutability":"view"},{"type":"function","name":"getString","inputs":[{"name":"slot","type":"bytes32","internalType":"bytes32"}],"outputs":[{"name":"","type":"string","internalType":"string"}],"stateMutability":"view"},{"type":"function","name":"getStringStorage","inputs":[{"name":"key","type":"uint256","internalType":"uint256"}],"outputs":[{"name":"","type":"string","internalType":"string"}],"stateMutability":"view"},{"type":"function","name":"getUint256","inputs":[{"name":"slot","type":"bytes32","internalType":"bytes32"}],"outputs":[{"name":"","type":"uint256","internalType":"uint256"}],"stateMutability":"view"},{"type":"function","name":"setAddress","inputs":[{"name":"slot","type":"bytes32","internalType":"bytes32"},{"name":"value","type":"address","internalType":"address"}],"outputs":[],"stateMutability":"nonpayable"},{"type":"function","name":"setBoolean","inputs":[{"name":"slot","type":"bytes32","internalType":"bytes32"},{"name":"value","type":"bool","internalType":"bool"}],"outputs":[],"stateMutability":"nonpayable"},{"type":"function","name":"setBytes","inputs":[{"name":"slot","type":"bytes32","internalType":"bytes32"},{"name":"value","type":"bytes","internalType":"bytes"}],"outputs":[],"stateMutability":"nonpayable"},{"type":"function","name":"setBytes32","inputs":[{"name":"slot","type":"bytes32","internalType":"bytes32"},{"name":"value","type":"bytes32","internalType":"bytes32"}],"outputs":[],"stateMutability":"nonpayable"},{"type":"function","name":"setBytesStorage","inputs":[{"name":"key","type":"uint256","internalType":"uint256"},{"name":"value","type":"bytes","internalType":"bytes"}],"outputs":[],"stateMutability":"nonpayable"},{"type":"function","name":"setString","inputs":[{"name":"slot","type":"bytes32","internalType":"bytes32"},{"name":"value","type":"string","internalType":"string"}],"outputs":[],"stateMutability":"nonpayable"},{"type":"function","name":"setStringStorage","inputs":[{"name":"key","type":"uint256","internalType":"uint256"},{"name":"value","type":"string","internalType":"string"}],"outputs":[],"stateMutability":"nonpayable"},{"type":"function","name":"setUint256","inputs":[{"name":"slot","type":"bytes32","internalType":"bytes32"},{"name":"value","type":"uint256","internalType":"uint256"}],"outputs":[],"stateMutability":"nonpayable"},{"type":"function","name":"stringMap","inputs":[{"name":"key","type":"uint256","internalType":"uint256"}],"outputs":[{"name":"","type":"string","internalType":"string"}],"stateMutability":"view"}],"bytecode":{"object":"0x6080806040523461001657610784908161001b8239f35b5f80fdfe60406080815260049081361015610014575f80fd5b5f3560e01c80630afb30ba146104bb5780631e133d0f1461011357806321f8a721146104925780632e28d084146103ed57806333598b00146101a85780633848207a146103ca5780633e60bd78146102ef5780634e91db08146102d75780634f3029c2146102d75780635a46e25d146101c65780636e899550146101ef578063986e791a146101895780639b22f343146101c6578063a6ed563e146101a8578063c031a18014610189578063ca446dd914610152578063df6e58d6146101135763f8715b3e146100e2575f80fd5b3461010f5736600319011261010f573560243580151580910361010f5760ff801983541691161790555f80f35b5f80fd5b503461010f57602036600319011261010f5761014e91355f525f60205261013b815f206105fd565b90519182916020835260208301906106c1565b0390f35b503461010f5736600319011261010f57356024356001600160a01b0381169081900361010f5781546001600160a01b031916179055005b503461010f57602036600319011261010f5761013b61014e92356105fd565b503461010f57602036600319011261010f5760209135549051908152f35b503461010f57602036600319011261010f5761014e91355f52600160205261013b815f206105fd565b823461010f576101fe36610578565b909267ffffffffffffffff82116102c457506102248161021e84546105c5565b846106ff565b5f601f821160011461026157819061025293945f92610256575b50508160011b915f199060031b1c19161790565b9055005b01359050848061023e565b601f19821693835f5260209160205f20925f905b8782106102ac575050836001959610610293575b505050811b019055005b01355f19600384901b60f8161c19169055838080610289565b80600184968294958701358155019501920190610275565b604190634e487b7160e01b5f525260245ffd5b503461010f5736600319011261010f57602435903555005b50903461010f576102ff36610578565b915f526020935f6020525f209267ffffffffffffffff83116102c457506103308261032a85546105c5565b856106ff565b5f93601f831160011461036a5750610252929382915f9261035f5750508160011b915f199060031b1c19161790565b013590505f8061023e565b90601f19831694845f5260205f20925f905b8782106103b257505083600195961061039957505050811b019055005b01355f19600384901b60f8161c191690555f8080610289565b8060018496829495870135815501950192019061037c565b503461010f57602036600319011261010f5760ff60209235541690519015158152f35b823461010f576103fc36610578565b909267ffffffffffffffff82116102c4575061041c8161021e84546105c5565b5f601f821160011461044957819061025293945f926102565750508160011b915f199060031b1c19161790565b601f19821693835f5260209160205f20925f905b87821061047a57505083600195961061029357505050811b019055005b8060018496829495870135815501950192019061045d565b503461010f57602036600319011261010f5790355490516001600160a01b039091168152602090f35b50903461010f576104cb36610578565b915f5260019060209460016020525f209367ffffffffffffffff84116102c45750610500836104fa86546105c5565b866106ff565b5f91601f841160011461053157506102529394509082915f9261035f5750508160011b915f199060031b1c19161790565b5f85815260208120601f198616979094925b8883106105615750505083600195961061039957505050811b019055005b848401358655948501949281019291810191610543565b604060031982011261010f576004359160243567ffffffffffffffff9283821161010f578060238301121561010f57816004013593841161010f576024848301011161010f576024019190565b90600182811c921680156105f3575b60208310146105df57565b634e487b7160e01b5f52602260045260245ffd5b91607f16916105d4565b90604051915f90805461060f816105c5565b908186526020926001916001811690815f146106a3575060011461066a575b50505050829003601f01601f1916820167ffffffffffffffff81118382101761065657604052565b634e487b7160e01b5f52604160045260245ffd5b909293505f52825f2091835f935b83851061068f57505050508301015f80808061062e565b805488860183015293019284908201610678565b60ff191688860152505050151560051b84010190505f80808061062e565b91908251928382525f5b8481106106eb575050825f602080949584010152601f8019910116010190565b6020818301810151848301820152016106cb565b601f821161070c57505050565b5f5260205f20906020601f840160051c83019310610744575b601f0160051c01905b818110610739575050565b5f815560010161072e565b909150819061072556fea26469706673582212204ba285590bac6190636cb770ec440802bfdf5380faaa08907ecb4b159fa8fdbf64736f6c63430008180033","linkReferences":{}},"methodIdentifiers":{"bytesMap(uint256)":"5a46e25d","getAddress(bytes32)":"21f8a721","getBoolean(bytes32)":"3848207a","getBytes(bytes32)":"c031a180","getBytes32(bytes32)":"a6ed563e","getBytesStorage(uint256)":"9b22f343","getString(bytes32)":"986e791a","getStringStorage(uint256)":"df6e58d6","getUint256(bytes32)":"33598b00","setAddress(bytes32,address)":"ca446dd9","setBoolean(bytes32,bool)":"f8715b3e","setBytes(bytes32,bytes)":"2e28d084","setBytes32(bytes32,bytes32)":"4e91db08","setBytesStorage(uint256,bytes)":"0afb30ba","setString(bytes32,string)":"6e899550","setStringStorage(uint256,string)":"3e60bd78","setUint256(bytes32,uint256)":"4f3029c2","stringMap(uint256)":"1e133d0f"},"id":151}