{"abi":[{"type":"function","name":"get","inputs":[],"outputs":[{"name":"","type":"bool","internalType":"bool"}],"stateMutability":"pure"},{"type":"function","name":"initialize","inputs":[{"name":"_value","type":"uint256","internalType":"uint256"},{"name":"_text","type":"string","internalType":"string"},{"name":"_values","type":"uint256[]","internalType":"uint256[]"}],"outputs":[],"stateMutability":"nonpayable"},{"type":"function","name":"initializeNonPayable","inputs":[],"outputs":[],"stateMutability":"nonpayable"},{"type":"function","name":"initializeNonPayableWithValue","inputs":[{"name":"_value","type":"uint256","internalType":"uint256"}],"outputs":[],"stateMutability":"nonpayable"},{"type":"function","name":"initializePayable","inputs":[],"outputs":[],"stateMutability":"payable"},{"type":"function","name":"initializePayableWithValue","inputs":[{"name":"_value","type":"uint256","internalType":"uint256"}],"outputs":[],"stateMutability":"payable"},{"type":"function","name":"reverts","inputs":[],"outputs":[],"stateMutability":"pure"},{"type":"function","name":"text","inputs":[],"outputs":[{"name":"","type":"string","internalType":"string"}],"stateMutability":"view"},{"type":"function","name":"unsafeOverrideAdmin","inputs":[{"name":"newAdmin","type":"address","internalType":"address"}],"outputs":[],"stateMutability":"nonpayable"},{"type":"function","name":"value","inputs":[],"outputs":[{"name":"","type":"uint256","internalType":"uint256"}],"stateMutability":"view"},{"type":"function","name":"values","inputs":[{"name":"","type":"uint256","internalType":"uint256"}],"outputs":[{"name":"","type":"uint256","internalType":"uint256"}],"stateMutability":"view"},{"type":"function","name":"version","inputs":[],"outputs":[{"name":"","type":"string","internalType":"string"}],"stateMutability":"pure"}],"bytecode":{"object":"0x6080806040523461001657610732908161001b8239f35b5f80fdfe608060409080825260049182361015610016575f80fd5b5f3560e01c91826319af86e7146105d85782631f1bd6921461050157508163227367d5146104eb5781633bccbbc9146104985781633fa4f2451461047c57816354fd4d501461041a5781635e383d21146103cb5781636d4ce63c146103b1578163763e28311461039a5781639fba1f9a14610389578163d31f8b6b146100ba575063e79f5bee146100a5575f80fd5b60203660031901126100b657355f55005b5f80fd5b82346100b65760603660031901126100b65760249081359267ffffffffffffffff928385116100b657366023860112156100b657848301359284841161027b57825195602094601f1991610115601f8301841688018a610669565b818952368583830101116100b657815f9286899301838c013789010152604435908682116100b657366023830112156100b6578183013591878311610367578260051b95519261016788880185610669565b8352868301858197830101913683116100b65786899101915b838310610379575050505082355f558751908782116103675781906001996101a88b54610631565b601f8111610310575b508891601f841160011461029757505f9261028c575b50505f19600383901b1c191690881b1787555b5194851161027b5768010000000000000000851161027b57505060025483600255808410610245575b509060025f525f5b83811061021457005b82517f405787fa12a823e0f2b7631cc41b3ba8828b3321ca811111fa75cd3aa3bb5ace82015591810191840161020b565b61027590847f405787fa12a823e0f2b7631cc41b3ba8828b3321ca811111fa75cd3aa3bb5ace91820191016106e6565b84610203565b604190634e487b7160e01b5f52525ffd5b0151905089806101c7565b5f8c81528c957fb10e2d527612073b26eecdfd717e6a320cf44b4afac2b0732d9fcbe2b7fa0cf694939216905b8b8282106102fa57505084116102e2575b505050811b0187556101da565b01515f1960f88460031b161c191690558980806102d5565b8385015186558e979095019493840193016102c4565b610357908c5f527fb10e2d527612073b26eecdfd717e6a320cf44b4afac2b0732d9fcbe2b7fa0cf6601f860160051c8101918c871061035d575b601f0160051c01906106e6565b8b6101b1565b909150819061034a565b84604185634e487b7160e01b5f52525ffd5b8235815291810191899101610180565b5f3660031901126100b65760645f55005b82346100b65760203660031901126100b657355f55005b346100b6575f3660031901126100b6576020905160018152f35b82346100b65760203660031901126100b65735906002548210156100b65760209160025f527f405787fa12a823e0f2b7631cc41b3ba8828b3321ca811111fa75cd3aa3bb5ace01549051908152f35b9050346100b6575f3660031901126100b65780519080820182811067ffffffffffffffff82111761046957610465935081526002825261563160f01b6020830152519182918261069f565b0390f35b604184634e487b7160e01b5f525260245ffd5b346100b6575f3660031901126100b6576020905f549051908152f35b82346100b6575f3660031901126100b6576020606492519162461bcd60e51b8352820152601c60248201527f44756d6d79496d706c656d656e746174696f6e207265766572746564000000006044820152fd5b346100b6575f3660031901126100b657600a5f55005b346100b6575f3660031901126100b6575f6001805461051f81610631565b80855291602091600181169081156105ae5750600114610555575b610465858761054b82880383610669565b519182918261069f565b60015f90815293507fb10e2d527612073b26eecdfd717e6a320cf44b4afac2b0732d9fcbe2b7fa0cf65b83851061059b5750505050810160200161054b8261046561053a565b805486860184015293820193810161057f565b6104659795508693506020925061054b94915060ff191682840152151560051b820101929461053a565b83346100b65760203660031901126100b657356001600160a01b038116908190036100b6577fb53127684a568b3173ae13b9f8a6016e243e63b6e8ee1178d6a717850b5d610380546001600160a01b0319169091179055005b90600182811c9216801561065f575b602083101461064b57565b634e487b7160e01b5f52602260045260245ffd5b91607f1691610640565b90601f8019910116810190811067ffffffffffffffff82111761068b57604052565b634e487b7160e01b5f52604160045260245ffd5b602080825282518183018190529093925f5b8281106106d257505060409293505f838284010152601f8019910116010190565b8181018601518482016040015285016106b1565b8181106106f1575050565b5f81556001016106e656fea2646970667358221220f8a211f48192e76d382b509fee7a732de67252a32df96042319383e45e4cd05c64736f6c63430008180033","linkReferences":{}},"methodIdentifiers":{"get()":"6d4ce63c","initialize(uint256,string,uint256[])":"d31f8b6b","initializeNonPayable()":"227367d5","initializeNonPayableWithValue(uint256)":"763e2831","initializePayable()":"9fba1f9a","initializePayableWithValue(uint256)":"e79f5bee","reverts()":"3bccbbc9","text()":"1f1bd692","unsafeOverrideAdmin(address)":"19af86e7","value()":"3fa4f245","values(uint256)":"5e383d21","version()":"54fd4d50"},"id":131}