{"abi":[{"type":"function","name":"get","inputs":[],"outputs":[{"name":"","type":"bool","internalType":"bool"}],"stateMutability":"pure"},{"type":"function","name":"initialize","inputs":[{"name":"_value","type":"uint256","internalType":"uint256"},{"name":"_text","type":"string","internalType":"string"},{"name":"_values","type":"uint256[]","internalType":"uint256[]"}],"outputs":[],"stateMutability":"nonpayable"},{"type":"function","name":"initializeNonPayable","inputs":[],"outputs":[],"stateMutability":"nonpayable"},{"type":"function","name":"initializeNonPayableWithValue","inputs":[{"name":"_value","type":"uint256","internalType":"uint256"}],"outputs":[],"stateMutability":"nonpayable"},{"type":"function","name":"initializePayable","inputs":[],"outputs":[],"stateMutability":"payable"},{"type":"function","name":"initializePayableWithValue","inputs":[{"name":"_value","type":"uint256","internalType":"uint256"}],"outputs":[],"stateMutability":"payable"},{"type":"function","name":"migrate","inputs":[{"name":"newVal","type":"uint256","internalType":"uint256"}],"outputs":[],"stateMutability":"payable"},{"type":"function","name":"reverts","inputs":[],"outputs":[],"stateMutability":"pure"},{"type":"function","name":"text","inputs":[],"outputs":[{"name":"","type":"string","internalType":"string"}],"stateMutability":"view"},{"type":"function","name":"unsafeOverrideAdmin","inputs":[{"name":"newAdmin","type":"address","internalType":"address"}],"outputs":[],"stateMutability":"nonpayable"},{"type":"function","name":"value","inputs":[],"outputs":[{"name":"","type":"uint256","internalType":"uint256"}],"stateMutability":"view"},{"type":"function","name":"values","inputs":[{"name":"","type":"uint256","internalType":"uint256"}],"outputs":[{"name":"","type":"uint256","internalType":"uint256"}],"stateMutability":"view"},{"type":"function","name":"version","inputs":[],"outputs":[{"name":"","type":"string","internalType":"string"}],"stateMutability":"pure"}],"bytecode":{"object":"0x6080806040523461001657610742908161001b8239f35b5f80fdfe60806040818152600480361015610014575f80fd5b5f3560e01c92836319af86e7146105d55783631f1bd692146104fc57508263227367d5146104e65782633bccbbc9146104945782633fa4f24514610477578263454b0608146100af57826354fd4d50146104165782635e383d21146103c85782636d4ce63c146103ad578263763e2831146103975782639fba1f9a14610386578263d31f8b6b146100b457505063e79f5bee146100af575f80fd5b6106e3565b346103825760603660031901126103825760249081359267ffffffffffffffff92838511610382573660238601121561038257848301359284841161027457825195602094601f199161010e601f8301841688018a610666565b8189523685838301011161038257815f9286899301838c013789010152604435908682116103825736602383011215610382578183013591878311610360578260051b95519261016088880185610666565b8352868301858197830101913683116103825786899101915b838310610372575050505082355f558751908782116103605781906001996101a18b5461062e565b601f8111610309575b508891601f841160011461029057505f92610285575b50505f19600383901b1c191690881b1787555b51948511610274576801000000000000000085116102745750506002548360025580841061023e575b509060025f525f5b83811061020d57005b82517f405787fa12a823e0f2b7631cc41b3ba8828b3321ca811111fa75cd3aa3bb5ace820155918101918401610204565b61026e90847f405787fa12a823e0f2b7631cc41b3ba8828b3321ca811111fa75cd3aa3bb5ace91820191016106f6565b846101fc565b604190634e487b7160e01b5f52525ffd5b0151905089806101c0565b5f8c81528c957fb10e2d527612073b26eecdfd717e6a320cf44b4afac2b0732d9fcbe2b7fa0cf694939216905b8b8282106102f357505084116102db575b505050811b0187556101d3565b01515f1960f88460031b161c191690558980806102ce565b8385015186558e979095019493840193016102bd565b610350908c5f527fb10e2d527612073b26eecdfd717e6a320cf44b4afac2b0732d9fcbe2b7fa0cf6601f860160051c8101918c8710610356575b601f0160051c01906106f6565b8b6101aa565b9091508190610343565b84604185634e487b7160e01b5f52525ffd5b8235815291810191899101610179565b5f80fd5b5f3660031901126103825760645f55005b3461038257602036600319011261038257355f55005b5034610382575f366003190112610382576020905160018152f35b346103825760203660031901126103825735906002548210156103825760209160025f527f405787fa12a823e0f2b7631cc41b3ba8828b3321ca811111fa75cd3aa3bb5ace01549051908152f35b9034610382575f3660031901126103825780519080820182811067ffffffffffffffff821117610464576104609350815260028252612b1960f11b6020830152519182918261069c565b0390f35b604184634e487b7160e01b5f525260245ffd5b5034610382575f366003190112610382576020905f549051908152f35b34610382575f366003190112610382576020606492519162461bcd60e51b8352820152601c60248201527f44756d6d79496d706c656d656e746174696f6e207265766572746564000000006044820152fd5b34610382575f36600319011261038257600a5f55005b905034610382575f366003190112610382575f6001805461051c8161062e565b80855291602091600181169081156105ab5750600114610552575b610460858761054882880383610666565b519182918261069c565b60015f90815293507fb10e2d527612073b26eecdfd717e6a320cf44b4afac2b0732d9fcbe2b7fa0cf65b8385106105985750505050810160200161054882610460610537565b805486860184015293820193810161057c565b6104609795508693506020925061054894915060ff191682840152151560051b8201019294610537565b503461038257602036600319011261038257356001600160a01b03811690819003610382577fb53127684a568b3173ae13b9f8a6016e243e63b6e8ee1178d6a717850b5d610380546001600160a01b0319169091179055005b90600182811c9216801561065c575b602083101461064857565b634e487b7160e01b5f52602260045260245ffd5b91607f169161063d565b90601f8019910116810190811067ffffffffffffffff82111761068857604052565b634e487b7160e01b5f52604160045260245ffd5b602080825282518183018190529093925f5b8281106106cf57505060409293505f838284010152601f8019910116010190565b8181018601518482016040015285016106ae565b6020366003190112610382576004355f55005b818110610701575050565b5f81556001016106f656fea26469706673582212205ac568fd418f9eb2623811069eed4d1d490edc1bd54b3f25965e06aa6448df7564736f6c63430008180033","linkReferences":{}},"methodIdentifiers":{"get()":"6d4ce63c","initialize(uint256,string,uint256[])":"d31f8b6b","initializeNonPayable()":"227367d5","initializeNonPayableWithValue(uint256)":"763e2831","initializePayable()":"9fba1f9a","initializePayableWithValue(uint256)":"e79f5bee","migrate(uint256)":"454b0608","reverts()":"3bccbbc9","text()":"1f1bd692","unsafeOverrideAdmin(address)":"19af86e7","value()":"3fa4f245","values(uint256)":"5e383d21","version()":"54fd4d50"},"id":131}