{"abi":[{"type":"function","name":"acceptOwnership","inputs":[],"outputs":[],"stateMutability":"nonpayable"},{"type":"function","name":"getPrice","inputs":[{"name":"feedId","type":"bytes32","internalType":"bytes32"}],"outputs":[{"name":"","type":"uint224","internalType":"uint224"},{"name":"","type":"uint32","internalType":"uint32"}],"stateMutability":"view"},{"type":"function","name":"onReport","inputs":[{"name":"metadata","type":"bytes","internalType":"bytes"},{"name":"rawReport","type":"bytes","internalType":"bytes"}],"outputs":[],"stateMutability":"nonpayable"},{"type":"function","name":"owner","inputs":[],"outputs":[{"name":"","type":"address","internalType":"address"}],"stateMutability":"view"},{"type":"function","name":"supportsInterface","inputs":[{"name":"interfaceId","type":"bytes4","internalType":"bytes4"}],"outputs":[{"name":"","type":"bool","internalType":"bool"}],"stateMutability":"pure"},{"type":"function","name":"transferOwnership","inputs":[{"name":"to","type":"address","internalType":"address"}],"outputs":[],"stateMutability":"nonpayable"},{"type":"event","name":"FeedReceived","inputs":[{"name":"feedId","type":"bytes32","indexed":true,"internalType":"bytes32"},{"name":"price","type":"uint224","indexed":false,"internalType":"uint224"},{"name":"timestamp","type":"uint32","indexed":false,"internalType":"uint32"}],"anonymous":false},{"type":"event","name":"OwnershipTransferRequested","inputs":[{"name":"from","type":"address","indexed":true,"internalType":"address"},{"name":"to","type":"address","indexed":true,"internalType":"address"}],"anonymous":false},{"type":"event","name":"OwnershipTransferred","inputs":[{"name":"from","type":"address","indexed":true,"internalType":"address"},{"name":"to","type":"address","indexed":true,"internalType":"address"}],"anonymous":false}],"bytecode":{"object":"0x60808060405234610072573315610030575f80546001600160a01b031916331790556040516105e690816100778239f35b62461bcd60e51b815260206004820152601860248201527f43616e6e6f7420736574206f776e657220746f207a65726f00000000000000006044820152606490fd5b5f80fdfe6080604081815260049182361015610015575f80fd5b60e05f3560e01c91826301ffc9a7146104d45750816331d98b3f1461047257816379ba5097146103c4578163805f213214610181575080638da5cb5b1461015a5763f2fde38b14610064575f80fd5b346101565760203660031901126101565781356001600160a01b038181169391849003610156575f54169182330361011a573384146100d7575050600180546001600160a01b031916831790557fed8889f560326eb138920d842192f0eb3dd22b4f139c87a2c57538e05bae12785f80a3005b906020606492519162461bcd60e51b8352820152601760248201527f43616e6e6f74207472616e7366657220746f2073656c660000000000000000006044820152fd5b906020606492519162461bcd60e51b8352820152601660248201527527b7363c9031b0b63630b1363290313c9037bbb732b960511b6044820152fd5b5f80fd5b5034610156575f366003190112610156575f5490516001600160a01b039091168152602090f35b82843461015657816003193601126101565767ffffffffffffffff928135848111610156576101b39036908401610526565b5050602493602435818111610156576101cf9036908501610526565b8194910160209485818303126101565780359084821161015657019181601f84011215610156578235938085116103b157875198601f19603f8760051b01168a018a81108382111761039e578952858a52878a019388606080980287010195818711610156578901945b86861061032f578b8b8b8b5f5b845181101561032d576001906001600160e01b037f2c30f5cb3caf4239d0f994ce539d7ef24817fa550169c388e3a110f02e40197d8187610287858b610588565b5101511663ffffffff90818861029d878d610588565b510151166102a9610554565b9182528882019081526102bc868c610588565b51515f5260028952848a5f209251169063ffffffff60e01b9051891b161790556102e6848a610588565b515192886102f4868c610588565b510151169087610304868c610588565b51015189516001600160e01b039390931683521663ffffffff166020820152604090a201610246565b005b8786830312610156578a51908882018281108682111761038c578c52863582528a87013563ffffffff8116810361015657828c0152868c0135906001600160e01b038216820361015657828c928e8c950152815201950194610239565b84604188634e487b7160e01b5f52525ffd5b604184634e487b7160e01b5f525260245ffd5b604182634e487b7160e01b5f525260245ffd5b505034610156575f36600319011261015657600154916001600160a01b039182841633036104365750505f54916bffffffffffffffffffffffff60a01b9033828516175f55166001553391167f8be0079c531659141344cd1fd0a4f28419497f9722a3daafe3b4186f6b6457e05f80a3005b906020606492519162461bcd60e51b8352820152601660248201527526bab9ba10313290383937b837b9b2b21037bbb732b960511b6044820152fd5b50503461015657602036600319011261015657602091355f52600282526104d0815f209161049e610554565b92546001600160e01b03811680855260e09190911c949093018490525191825260208201929092529081906040820190565b0390f35b843461015657602036600319011261015657359063ffffffff60e01b82168092036101565760209163402f909960e11b8114908115610515575b5015158152f35b6301ffc9a760e01b1490508361050e565b9181601f840112156101565782359167ffffffffffffffff8311610156576020838186019501011161015657565b604051906040820182811067ffffffffffffffff82111761057457604052565b634e487b7160e01b5f52604160045260245ffd5b805182101561059c5760209160051b010190565b634e487b7160e01b5f52603260045260245ffdfea26469706673582212207dd5b28f4a28c99d4c63adf81452111de0e27a42cd7ef88984fc33b38404321564736f6c63430008180033","linkReferences":{}},"methodIdentifiers":{"acceptOwnership()":"79ba5097","getPrice(bytes32)":"31d98b3f","onReport(bytes,bytes)":"805f2132","owner()":"8da5cb5b","supportsInterface(bytes4)":"01ffc9a7","transferOwnership(address)":"f2fde38b"},"id":6}