{"abi":[{"type":"function","name":"msgData","inputs":[{"name":"integerValue","type":"uint256","internalType":"uint256"},{"name":"stringValue","type":"string","internalType":"string"}],"outputs":[],"stateMutability":"nonpayable"},{"type":"function","name":"msgDataShort","inputs":[],"outputs":[],"stateMutability":"nonpayable"},{"type":"function","name":"msgSender","inputs":[],"outputs":[],"stateMutability":"nonpayable"},{"type":"event","name":"Data","inputs":[{"name":"data","type":"bytes","indexed":false,"internalType":"bytes"},{"name":"integerValue","type":"uint256","indexed":false,"internalType":"uint256"},{"name":"stringValue","type":"string","indexed":false,"internalType":"string"}],"anonymous":false},{"type":"event","name":"DataShort","inputs":[{"name":"data","type":"bytes","indexed":false,"internalType":"bytes"}],"anonymous":false},{"type":"event","name":"Sender","inputs":[{"name":"sender","type":"address","indexed":false,"internalType":"address"}],"anonymous":false}],"bytecode":{"object":"0x608080604052346100165761022e908161001b8239f35b5f80fdfe60806040908082526004361015610014575f80fd5b5f3560e01c908163376bf262146100c957508063d737d0c71461008d5763ff5f6b591461003f575f80fd5b34610089575f366003190112610089577f6d7cec71eba467294d92341ddc4e8634eb4d742a90e16f408f06e4b70bc4cd669051602081528061008460208201366101d8565b0390a1005b5f80fd5b5034610089575f3660031901126100895760207fd6558c3ed910d959271054471fd1c326679d9fece99c5091b00ed89627cf2bfc9151338152a1005b9050346100895781600319360112610089576024359167ffffffffffffffff80841161008957366023850112156100895783600401358181116101c457601f1991601f82018316603f0183168501908111858210176101c4578352808452602094366024838301011161008957815f92602488930183880137850101528151926060845261015a60608501366101d8565b9260043586860152848403908501528051908184525f5b8281106101b1577faf235354a0a47c91ee171961326335cb2d1a8e55b8a89859b0e61eb049e50ea08688818888601f895f868286010152011601030190a1005b8181018701518582018801528601610171565b634e487b7160e01b5f52604160045260245ffd5b90602091808252805f848401375f828201840152601f01601f191601019056fea2646970667358221220281c1d4f5f2ad8e360e9d6790e5c918ac6a6f58532301704d6260e89b577890764736f6c63430008180033","linkReferences":{}},"methodIdentifiers":{"msgData(uint256,string)":"376bf262","msgDataShort()":"ff5f6b59","msgSender()":"d737d0c7"},"id":130}