{"abi":[{"type":"function","name":"decimals","inputs":[],"outputs":[{"name":"","type":"uint256","internalType":"uint256"}],"stateMutability":"pure"}],"bytecode":{"object":"0x60808060405234601457607490816100198239f35b5f80fdfe60808060405260043610156011575f80fd5b5f3560e01c63313ce567146023575f80fd5b34603a575f366003190112603a575f198152602090f35b5f80fdfea2646970667358221220d63dd94ed4fbb053f313cf9fdd2e0ad2346dfa7f86cd81ac50851eb7faffff4064736f6c63430008180033","linkReferences":{}},"methodIdentifiers":{"decimals()":"313ce567"},"id":177}