{"abi":[{"type":"function","name":"setUp","inputs":[],"outputs":[],"stateMutability":"nonpayable"},{"type":"function","name":"test_pass","inputs":[],"outputs":[],"stateMutability":"pure"}],"bytecode":{"object":"0x60808060405234601457607690816100198239f35b5f80fdfe608060405260043610156010575f80fd5b5f3560e01c80630a9254e414602c57638ab6815214602c575f80fd5b34603c575f366003190112603c57005b5f80fdfea2646970667358221220c107378dbb7a920e318e83fdbb02e57101589e954a7d8eb22ef7579319f1099464736f6c63430008180033","linkReferences":{}},"methodIdentifiers":{"setUp()":"0a9254e4","test_pass()":"8ab68152"},"id":275}