{"abi":[{"type":"function","name":"disableReentrancy","inputs":[],"outputs":[],"stateMutability":"nonpayable"},{"type":"function","name":"enableRentrancy","inputs":[{"name":"target","type":"address","internalType":"address"},{"name":"data","type":"bytes","internalType":"bytes"}],"outputs":[],"stateMutability":"nonpayable"},{"type":"function","name":"reenter","inputs":[],"outputs":[],"stateMutability":"nonpayable"},{"type":"error","name":"AddressEmptyCode","inputs":[{"name":"target","type":"address","internalType":"address"}]},{"type":"error","name":"AddressInsufficientBalance","inputs":[{"name":"account","type":"address","internalType":"address"}]},{"type":"error","name":"FailedInnerCall","inputs":[]}],"bytecode":{"object":"0x6080806040523461001657610454908161001b8239f35b5f80fdfe60806040526004361015610011575f80fd5b5f3560e01c80633654421b146101b7578063a0fe97e31461005d5763cc23fb1c1461003a575f80fd5b34610059575f366003190112610059576002805460ff19166001179055005b5f80fd5b34610059575f3660031901126100595760025460ff81161561007b57005b60018060ff198093161760025560018060a01b035f5416916040515f600154936100a485610361565b9081845260209586808601966001831692835f1461019a57505050600114610142575b505091816100da5f949385940382610399565b519082865af13d15610135573d9267ffffffffffffffff84116101215760405161011f94610111601f8201601f1916860183610399565b81525f81943d92013e6103bb565b005b634e487b7160e01b5f52604160045260245ffd5b61011f92606092506103bb565b9085925060015f527fb10e2d527612073b26eecdfd717e6a320cf44b4afac2b0732d9fcbe2b7fa0cf6915f925b82841061018557505050820101816100da6100c7565b8054868501860152879490930192810161016f565b16875292151560051b850190920192508391506100da90506100c7565b34610059576040366003190112610059576004356001600160a01b03811690819003610059576024906024359067ffffffffffffffff908183116100595736602384011215610059578260040135918211610059573660248385010111610059576bffffffffffffffffffffffff60a01b5f5416175f5560019161023b8354610361565b601f81116102ff575b505f93601f83116001146102805750928192935f92610272575b50505f19600383901b1c191690821b179055005b60249250010135838061025e565b601f198316947fb10e2d527612073b26eecdfd717e6a320cf44b4afac2b0732d9fcbe2b7fa0cf692915f905b8782106102e4575050838596106102c8575b505050811b019055005b01602401355f19600384901b60f8161c191690558380806102be565b909193602087819284888801013581550195019201906102ac565b7fb10e2d527612073b26eecdfd717e6a320cf44b4afac2b0732d9fcbe2b7fa0cf6601f840160051c81019160208510610357575b601f0160051c019084905b82811061034c575050610244565b5f815501849061033e565b9091508190610333565b90600182811c9216801561038f575b602083101461037b57565b634e487b7160e01b5f52602260045260245ffd5b91607f1691610370565b90601f8019910116810190811067ffffffffffffffff82111761012157604052565b906103e257508051156103d057805190602001fd5b604051630a12f52160e11b8152600490fd5b81511580610415575b6103f3575090565b604051639996b31560e01b81526001600160a01b039091166004820152602490fd5b50803b156103eb56fea2646970667358221220501e95f446ac8d874c3fd2c6054451065ff49580129b0cb02f319e58f281e74d64736f6c63430008180033","linkReferences":{}},"methodIdentifiers":{"disableReentrancy()":"cc23fb1c","enableRentrancy(address,bytes)":"3654421b","reenter()":"a0fe97e3"},"id":152}