{"abi":[{"type":"constructor","inputs":[{"name":"_initialBankCapInUsd","type":"uint256","internalType":"uint256"},{"name":"_initialWithdrawalLimitInUsd","type":"uint256","internalType":"uint256"},{"name":"_universalRouter","type":"address","internalType":"address"},{"name":"_permit2","type":"address","internalType":"address"},{"name":"_usdc","type":"address","internalType":"address"},{"name":"_poolManager","type":"address","internalType":"address"}],"stateMutability":"nonpayable"},{"type":"function","name":"ASSET_MANAGER_ROLE","inputs":[],"outputs":[{"name":"","type":"bytes32","internalType":"bytes32"}],"stateMutability":"view"},{"type":"function","name":"DEFAULT_ADMIN_ROLE","inputs":[],"outputs":[{"name":"","type":"bytes32","internalType":"bytes32"}],"stateMutability":"view"},{"type":"function","name":"ETH_ADDRESS","inputs":[],"outputs":[{"name":"","type":"address","internalType":"address"}],"stateMutability":"view"},{"type":"function","name":"FUNDS_RECOVERY_ROLE","inputs":[],"outputs":[{"name":"","type":"bytes32","internalType":"bytes32"}],"stateMutability":"view"},{"type":"function","name":"OPERATIONS_MANAGER_ROLE","inputs":[],"outputs":[{"name":"","type":"bytes32","internalType":"bytes32"}],"stateMutability":"view"},{"type":"function","name":"USDC","inputs":[],"outputs":[{"name":"","type":"address","internalType":"address"}],"stateMutability":"view"},{"type":"function","name":"WETH","inputs":[],"outputs":[{"name":"","type":"address","internalType":"address"}],"stateMutability":"view"},{"type":"function","name":"addToken","inputs":[{"name":"_tokenAddress","type":"address","internalType":"address"},{"name":"_priceFeedAddress","type":"address","internalType":"address"}],"outputs":[],"stateMutability":"nonpayable"},{"type":"function","name":"addTokenPool","inputs":[{"name":"_tokenAddress","type":"address","internalType":"address"},{"name":"_poolKey","type":"tuple","internalType":"struct PoolKey","components":[{"name":"currency0","type":"address","internalType":"Currency"},{"name":"currency1","type":"address","internalType":"Currency"},{"name":"fee","type":"uint24","internalType":"uint24"},{"name":"tickSpacing","type":"int24","internalType":"int24"},{"name":"hooks","type":"address","internalType":"contract IHooks"}]}],"outputs":[],"stateMutability":"nonpayable"},{"type":"function","name":"balances","inputs":[{"name":"","type":"address","internalType":"address"},{"name":"","type":"address","internalType":"address"}],"outputs":[{"name":"","type":"uint256","internalType":"uint256"}],"stateMutability":"view"},{"type":"function","name":"bankCapInUsd","inputs":[],"outputs":[{"name":"","type":"uint256","internalType":"uint256"}],"stateMutability":"view"},{"type":"function","name":"deposit","inputs":[{"name":"_tokenAddress","type":"address","internalType":"address"},{"name":"_amount","type":"uint256","internalType":"uint256"}],"outputs":[],"stateMutability":"payable"},{"type":"function","name":"depositArbitraryToken","inputs":[{"name":"_tokenAddress","type":"address","internalType":"address"},{"name":"_amount","type":"uint256","internalType":"uint256"},{"name":"_minUsdcOut","type":"uint256","internalType":"uint256"}],"outputs":[],"stateMutability":"payable"},{"type":"function","name":"getRoleAdmin","inputs":[{"name":"role","type":"bytes32","internalType":"bytes32"}],"outputs":[{"name":"","type":"bytes32","internalType":"bytes32"}],"stateMutability":"view"},{"type":"function","name":"grantRole","inputs":[{"name":"role","type":"bytes32","internalType":"bytes32"},{"name":"account","type":"address","internalType":"address"}],"outputs":[],"stateMutability":"nonpayable"},{"type":"function","name":"hasRole","inputs":[{"name":"role","type":"bytes32","internalType":"bytes32"},{"name":"account","type":"address","internalType":"address"}],"outputs":[{"name":"","type":"bool","internalType":"bool"}],"stateMutability":"view"},{"type":"function","name":"permit2","inputs":[],"outputs":[{"name":"","type":"address","internalType":"contract IPermit2"}],"stateMutability":"view"},{"type":"function","name":"poolManager","inputs":[],"outputs":[{"name":"","type":"address","internalType":"address"}],"stateMutability":"view"},{"type":"function","name":"recoverBalance","inputs":[{"name":"_tokenAddress","type":"address","internalType":"address"},{"name":"_user","type":"address","internalType":"address"},{"name":"_newBalance","type":"uint256","internalType":"uint256"}],"outputs":[],"stateMutability":"nonpayable"},{"type":"function","name":"renounceRole","inputs":[{"name":"role","type":"bytes32","internalType":"bytes32"},{"name":"callerConfirmation","type":"address","internalType":"address"}],"outputs":[],"stateMutability":"nonpayable"},{"type":"function","name":"revokeRole","inputs":[{"name":"role","type":"bytes32","internalType":"bytes32"},{"name":"account","type":"address","internalType":"address"}],"outputs":[],"stateMutability":"nonpayable"},{"type":"function","name":"setBankCapInUsd","inputs":[{"name":"_newCap","type":"uint256","internalType":"uint256"}],"outputs":[],"stateMutability":"nonpayable"},{"type":"function","name":"setWithdrawalLimitInUsd","inputs":[{"name":"_newLimit","type":"uint256","internalType":"uint256"}],"outputs":[],"stateMutability":"nonpayable"},{"type":"function","name":"supportsInterface","inputs":[{"name":"interfaceId","type":"bytes4","internalType":"bytes4"}],"outputs":[{"name":"","type":"bool","internalType":"bool"}],"stateMutability":"view"},{"type":"function","name":"tokenPriceFeeds","inputs":[{"name":"","type":"address","internalType":"address"}],"outputs":[{"name":"","type":"address","internalType":"address"}],"stateMutability":"view"},{"type":"function","name":"tokenToUsdcPools","inputs":[{"name":"","type":"address","internalType":"address"}],"outputs":[{"name":"currency0","type":"address","internalType":"Currency"},{"name":"currency1","type":"address","internalType":"Currency"},{"name":"fee","type":"uint24","internalType":"uint24"},{"name":"tickSpacing","type":"int24","internalType":"int24"},{"name":"hooks","type":"address","internalType":"contract IHooks"}],"stateMutability":"view"},{"type":"function","name":"totalBankValueInUsd","inputs":[],"outputs":[{"name":"","type":"uint256","internalType":"uint256"}],"stateMutability":"view"},{"type":"function","name":"universalRouter","inputs":[],"outputs":[{"name":"","type":"address","internalType":"contract IUniversalRouter"}],"stateMutability":"view"},{"type":"function","name":"withdraw","inputs":[{"name":"_tokenAddress","type":"address","internalType":"address"},{"name":"_amount","type":"uint256","internalType":"uint256"}],"outputs":[],"stateMutability":"nonpayable"},{"type":"function","name":"withdrawalLimitInUsd","inputs":[],"outputs":[{"name":"","type":"uint256","internalType":"uint256"}],"stateMutability":"view"},{"type":"event","name":"BalanceRecovered","inputs":[{"name":"admin","type":"address","indexed":true,"internalType":"address"},{"name":"user","type":"address","indexed":true,"internalType":"address"},{"name":"token","type":"address","indexed":true,"internalType":"address"},{"name":"newBalance","type":"uint256","indexed":false,"internalType":"uint256"}],"anonymous":false},{"type":"event","name":"BankCapUpdated","inputs":[{"name":"newCapInUsd","type":"uint256","indexed":false,"internalType":"uint256"}],"anonymous":false},{"type":"event","name":"Deposit","inputs":[{"name":"user","type":"address","indexed":true,"internalType":"address"},{"name":"token","type":"address","indexed":true,"internalType":"address"},{"name":"amount","type":"uint256","indexed":false,"internalType":"uint256"}],"anonymous":false},{"type":"event","name":"PoolKeyAdded","inputs":[{"name":"token","type":"address","indexed":true,"internalType":"address"},{"name":"fee","type":"uint24","indexed":false,"internalType":"uint24"},{"name":"tickSpacing","type":"int24","indexed":false,"internalType":"int24"}],"anonymous":false},{"type":"event","name":"RoleAdminChanged","inputs":[{"name":"role","type":"bytes32","indexed":true,"internalType":"bytes32"},{"name":"previousAdminRole","type":"bytes32","indexed":true,"internalType":"bytes32"},{"name":"newAdminRole","type":"bytes32","indexed":true,"internalType":"bytes32"}],"anonymous":false},{"type":"event","name":"RoleGranted","inputs":[{"name":"role","type":"bytes32","indexed":true,"internalType":"bytes32"},{"name":"account","type":"address","indexed":true,"internalType":"address"},{"name":"sender","type":"address","indexed":true,"internalType":"address"}],"anonymous":false},{"type":"event","name":"RoleRevoked","inputs":[{"name":"role","type":"bytes32","indexed":true,"internalType":"bytes32"},{"name":"account","type":"address","indexed":true,"internalType":"address"},{"name":"sender","type":"address","indexed":true,"internalType":"address"}],"anonymous":false},{"type":"event","name":"TokenAdded","inputs":[{"name":"token","type":"address","indexed":true,"internalType":"address"},{"name":"priceFeed","type":"address","indexed":true,"internalType":"address"}],"anonymous":false},{"type":"event","name":"TokenSwapped","inputs":[{"name":"user","type":"address","indexed":true,"internalType":"address"},{"name":"tokenIn","type":"address","indexed":true,"internalType":"address"},{"name":"amountIn","type":"uint256","indexed":false,"internalType":"uint256"},{"name":"usdcOut","type":"uint256","indexed":false,"internalType":"uint256"}],"anonymous":false},{"type":"event","name":"Withdrawal","inputs":[{"name":"user","type":"address","indexed":true,"internalType":"address"},{"name":"token","type":"address","indexed":true,"internalType":"address"},{"name":"amount","type":"uint256","indexed":false,"internalType":"uint256"}],"anonymous":false},{"type":"event","name":"WithdrawalLimitUpdated","inputs":[{"name":"newLimitInUsd","type":"uint256","indexed":false,"internalType":"uint256"}],"anonymous":false},{"type":"error","name":"AccessControlBadConfirmation","inputs":[]},{"type":"error","name":"AccessControlUnauthorizedAccount","inputs":[{"name":"account","type":"address","internalType":"address"},{"name":"neededRole","type":"bytes32","internalType":"bytes32"}]},{"type":"error","name":"AddressEmptyCode","inputs":[{"name":"target","type":"address","internalType":"address"}]},{"type":"error","name":"AddressInsufficientBalance","inputs":[{"name":"account","type":"address","internalType":"address"}]},{"type":"error","name":"AmountDoesNotMatchMsgValue","inputs":[]},{"type":"error","name":"BankCapExceeded","inputs":[{"name":"currentTotalValue","type":"uint256","internalType":"uint256"},{"name":"depositValue","type":"uint256","internalType":"uint256"},{"name":"bankCap","type":"uint256","internalType":"uint256"}]},{"type":"error","name":"FailedInnerCall","inputs":[]},{"type":"error","name":"InsufficientBalance","inputs":[{"name":"balance","type":"uint256","internalType":"uint256"},{"name":"requested","type":"uint256","internalType":"uint256"}]},{"type":"error","name":"InvalidAmount","inputs":[]},{"type":"error","name":"InvalidPriceFeed","inputs":[{"name":"token","type":"address","internalType":"address"}]},{"type":"error","name":"InvalidRouter","inputs":[]},{"type":"error","name":"InvalidUSDC","inputs":[]},{"type":"error","name":"MsgValueMustBeZeroForErc20","inputs":[]},{"type":"error","name":"PoolNotConfigured","inputs":[{"name":"token","type":"address","internalType":"address"}]},{"type":"error","name":"ReentrancyGuardReentrantCall","inputs":[]},{"type":"error","name":"SafeERC20FailedOperation","inputs":[{"name":"token","type":"address","internalType":"address"}]},{"type":"error","name":"SlippageExceeded","inputs":[{"name":"amountOut","type":"uint256","internalType":"uint256"},{"name":"minAmountOut","type":"uint256","internalType":"uint256"}]},{"type":"error","name":"SwapFailed","inputs":[]},{"type":"error","name":"TokenNotSupported","inputs":[{"name":"token","type":"address","internalType":"address"}]},{"type":"error","name":"TransferFailed","inputs":[]},{"type":"error","name":"WithdrawalAmountExceedsUsdLimit","inputs":[{"name":"amountInUsd","type":"uint256","internalType":"uint256"},{"name":"limitInUsd","type":"uint256","internalType":"uint256"}]}],"bytecode":{"object":"0x61010034620001ea57601f62002b9238819003918201601f19168301916001600160401b03831184841017620001ee5780849260c094604052833981010312620001ea578051906020810151916200005a6040830162000202565b90620000696060840162000202565b906200008660a06200007e6080870162000202565b950162000202565b60018055946001600160a01b03938416918215620001d85784861615620001c6576002556003556080521660a05260c05260e052620000c53362000217565b50620000d13362000287565b50620000dd3362000327565b50620000e933620003c1565b506040516126f690816200045c8239608051818181610c5401528181610df801528181610e9301528181610ece01528181610f78015281816110d1015281816112e00152818161141c015281816114b7015281816114fa015281816115960152818161169f0152611ab6015260a05181611bae015260c0518181816105db015281816109580152818161098a015281816109c101528181610a0b01528181610a5601528181610c0801528181610d2001528181610f2901528181611294015281816113930152818161153f01526117e9015260e051816103740152f35b604051634e05805760e01b8152600490fd5b60405163466d7fef60e01b8152600490fd5b5f80fd5b634e487b7160e01b5f52604160045260245ffd5b51906001600160a01b0382168203620001ea57565b6001600160a01b03165f8181525f8051602062002b72833981519152602052604090205460ff1662000282575f8181525f8051602062002b7283398151915260205260408120805460ff191660011790553391905f8051602062002b528339815191528180a4600190565b505f90565b6001600160a01b03165f8181527f08d2b0bc599dd50285d83b41a4d1bda96826e60e45b21a9787e10330db9153d360205260409020547fdfb26f8ea1e2d7ec8eca1da8954dd9b4ac136b181b0d95b898d5a00865c72d64919060ff166200032157815f525f60205260405f20815f5260205260405f20600160ff1982541617905533915f8051602062002b528339815191525f80a4600190565b50505f90565b6001600160a01b03165f8181527fa790c693a249880a6dd3819c4e2e8b8e0ec250d35513176d672dfb24091f467d60205260409020547fb1fadd3142ab2ad7f1337ea4d97112bcc8337fc11ce5b20cb04ad038adf99819919060ff166200032157815f525f60205260405f20815f5260205260405f20600160ff1982541617905533915f8051602062002b528339815191525f80a4600190565b6001600160a01b03165f8181527f6a9e69ca3c092ec27931e7426f7d9f98d24b7db4a1e6ca9da4b594c7ec146f7860205260409020547f3796904275ea7d7b78e7d6f6eb3c30bfa6b9b385e9fe839bb2d23e7d8fbbc60e919060ff166200032157815f525f60205260405f20815f5260205260405f20600160ff1982541617905533915f8051602062002b528339815191525f80a460019056fe6080806040526004361015610012575f80fd5b5f905f3560e01c90816301ffc9a714611c4c575080630fcf7d9314611bdd57806312261ee714611b99578063248a9ca314611b6d5780632f2ff15d14611b315780633564ac7714611ae557806335a9e4df14611aa157806336568abe14611a585780633b517888146118ef5780633cc41631146117a75780633e8d4f2614610926578063421c8a8c146108eb57806347e7ef24146107135780635476bd7214610693578063655fd83914610645578063866be7581461060a57806389a30271146105c557806391d148541461057c578063a217fddf14610560578063a4b32de814610525578063a734f06e146104f6578063ad5c4648146104c7578063bd9c47e31461048b578063c1fcd84f1461046d578063c23f001f14610420578063cd2cf71a14610402578063d547741f146103c1578063dadc7790146103a3578063dc4c90d31461035e5763f3fef3a314610168575f80fd5b3461035b57604036600319011261035b57610181611c9f565b60243561018c612218565b80156103495760018060a01b038216918284526020906005825260408520335f52825260405f205483811061032b5750826101c69161200e565b60035480821161030d57506101fe908486526005835260408620335f52835260405f206101f4858254611ccb565b9055600454611ccb565b60045573eeeeeeeeeeeeeeeeeeeeeeeeeeeeeeeeeeeeeeee8303610277578380808085335af161022c611dd9565b5015610265577f2717ead6b9200dd235aad468c9809ea400fe33ac69b5bfaa6d3e90fc922b6398905b6040519283523392a36001805580f35b6040516312171d8360e31b8152600490fd5b60405163a9059cbb60e01b815233600482015260248101839052818160448188885af19081156103025785916102d5575b5015610265577f2717ead6b9200dd235aad468c9809ea400fe33ac69b5bfaa6d3e90fc922b639890610255565b6102f59150823d84116102fb575b6102ed8183611d9f565b810190611dc1565b5f6102a8565b503d6102e3565b6040513d87823e3d90fd5b6044925060405191633e189c3f60e11b835260048301526024820152fd5b604490846040519163cf47918160e01b835260048301526024820152fd5b60405163162908e360e11b8152600490fd5b80fd5b503461035b578060031936011261035b576040517f00000000000000000000000000000000000000000000000000000000000000006001600160a01b03168152602090f35b503461035b578060031936011261035b576020600354604051908152f35b503461035b57604036600319011261035b576103fe6004356103e1611cb5565b90808452836020526103f96001604086200154611ece565b611f6b565b5080f35b503461035b578060031936011261035b576020600454604051908152f35b503461035b57604036600319011261035b5761043a611c9f565b6040610444611cb5565b9260018060a01b03809316815260056020522091165f52602052602060405f2054604051908152f35b503461035b578060031936011261035b576020600254604051908152f35b503461035b57602036600319011261035b576020906001600160a01b0390604090826104b5611c9f565b16815260068452205416604051908152f35b503461035b578060031936011261035b576020604051737b79995e5f793a07bc00c21412e50ecae098e7f98152f35b503461035b578060031936011261035b57602060405173eeeeeeeeeeeeeeeeeeeeeeeeeeeeeeeeeeeeeeee8152f35b503461035b578060031936011261035b5760206040517fb1fadd3142ab2ad7f1337ea4d97112bcc8337fc11ce5b20cb04ad038adf998198152f35b503461035b578060031936011261035b57602090604051908152f35b503461035b57604036600319011261035b576040610598611cb5565b91600435815280602052209060018060a01b03165f52602052602060ff60405f2054166040519015158152f35b503461035b578060031936011261035b576040517f00000000000000000000000000000000000000000000000000000000000000006001600160a01b03168152602090f35b503461035b578060031936011261035b5760206040517fdfb26f8ea1e2d7ec8eca1da8954dd9b4ac136b181b0d95b898d5a00865c72d648152f35b503461035b57602036600319011261035b577fbb1d6466d6b9cb3ce29a9dcd7cc2e51ee7e921992290f96d813b174787857a8c6020600435610685611e18565b80600255604051908152a180f35b503461035b57604036600319011261035b576106ad611c9f565b6106b5611cb5565b6106bd611e73565b6001600160a01b03908116918215610349571680835260066020526040832080546001600160a01b031916831790557fdffbd9ded1c09446f09377de547142dcce7dc541c8b0b028142b1eba7026b9e78380a380f35b50604036600319011261035b57610728611c9f565b602435610733612218565b8015610349576001600160a01b038281169273eeeeeeeeeeeeeeeeeeeeeeeeeeeeeeeeeeeeeeee841491821590816108d4575b506108bb57826107759161200e565b906004546107838382611cd8565b6002548091116108905750501561081357813403610801576107cb905b838552600560205260408520335f5260205260405f206107c1848254611cd8565b9055600454611cd8565b6004556040519081527f5548c837ab068cf56a2c2479df0882a4922fd203edb7517321831d95078c5f6260203392a36001805580f35b60405163b89240f560e01b8152600490fd5b3461087e576040516323b872dd60e01b81523360048201523060248201526044810183905260208160648188885af190811561030257859161085f575b5015610265576107cb906107a0565b610878915060203d6020116102fb576102ed8183611d9f565b5f610850565b6040516301110cd560e21b8152600490fd5b60405163621e5a6960e01b815260048101929092526024820193909352604481019290925250606490fd5b6040516306439c6b60e01b815260048101859052602490fd5b90508486526006602052604086205416155f610766565b503461035b578060031936011261035b5760206040517f3796904275ea7d7b78e7d6f6eb3c30bfa6b9b385e9fe839bb2d23e7d8fbbc60e8152f35b50606036600319011261103f5761093b611c9f565b610943612218565b60243515610349576001600160a01b038181167f000000000000000000000000000000000000000000000000000000000000000090911603610ad857506109b760243530337f00000000000000000000000000000000000000000000000000000000000000006001600160a01b031661223b565b6024355b6109e5817f000000000000000000000000000000000000000000000000000000000000000061200e565b6004546109f28282611cd8565b600254809111610aae575050610a4b9060018060a01b037f0000000000000000000000000000000000000000000000000000000000000000168452600560205260408420335f5260205260405f206107c1848254611cd8565b6004556040519081527f00000000000000000000000000000000000000000000000000000000000000006001600160a01b03169033907f5548c837ab068cf56a2c2479df0882a4922fd203edb7517321831d95078c5f6290602090a36001805580f35b60405163621e5a6960e01b8152600481019290925260248201929092526044810191909152606490fd5b6001600160a01b03811673eeeeeeeeeeeeeeeeeeeeeeeeeeeeeeeeeeeeeeee036111f05750602435340361080157737b79995e5f793a07bc00c21412e50ecae098e7f93b1561103f57604051630d0e30db60e41b81525f81600481602435737b79995e5f793a07bc00c21412e50ecae098e7f95af180156111a8576111df575b50737b79995e5f793a07bc00c21412e50ecae098e7f95f90815260076020526040517fa6c11890d43cf1ab318a34edff0c9ecf8f7020962fc9ed23e743e150a2557bc2610ba482611d2f565b80546001600160a01b039081168084526001830154808316602086015260a081901c62ffffff16604086015260b81c600290810b606086015290920154166080830152156111b3576040516370a0823160e01b8152306004820152906020826024817f00000000000000000000000000000000000000000000000000000000000000006001600160a01b03165afa9182156111a8575f92611172575b506040805163095ea7b360e01b60208201527f00000000000000000000000000000000000000000000000000000000000000006001600160a01b0316602480830191909152356044820152610d9092610da49291610cab81606481015b03601f198101835282611d9f565b5f8082516020840182737b79995e5f793a07bc00c21412e50ecae098e7f95af1610cd3611dd9565b81611143575b5080611125575b156110c0575b500151604051737b79995e5f793a07bc00c21412e50ecae098e7f960601b602082015260e89190911b6001600160e81b03191660348201527f000000000000000000000000000000000000000000000000000000000000000060601b6bffffffffffffffffffffffff19166037820152602b8152610d6381611d4b565b6040519283913060208401526024356040840152604435606084015260a0608084015260c08301906122a7565b5f60a083015203601f198101835282611d9f565b604051905f602083015260018252610dbb82611d67565b60405190610dc882611d67565b600182525f5b602081106110af5750610de082612286565b52610dea81612286565b5061012c4201421161109b577f00000000000000000000000000000000000000000000000000000000000000006001600160a01b03163b1561103f57604051630d64d59360e21b81526060600482015291829190610e4c9060648401906122a7565b600319838203016024840152815180825260208201916020808360051b8301019401925f915b83831061106a575050504261012c016044850152505f9291829003905081837f00000000000000000000000000000000000000000000000000000000000000006001600160a01b03165af19081611057575b50610f0d57610efb7f00000000000000000000000000000000000000000000000000000000000000006001600160a01b0316612435565b60405163081ceff360e41b8152600490fd5b6040516370a0823160e01b8152306004820152916020836024817f00000000000000000000000000000000000000000000000000000000000000006001600160a01b03165afa90811561104b5790611013575b610f6a9250611ccb565b6044358110610ff457610fa57f00000000000000000000000000000000000000000000000000000000000000006001600160a01b0316612435565b73eeeeeeeeeeeeeeeeeeeeeeeeeeeeeeeeeeeeeeee8160405190602435825260208201527f30b60ee4dc75c0fb04420331b13e9ad7f8ff8fc51eac9c97d36fb20ccbe09d6660403392a36109bb565b604490604051906371c4efed60e01b8252600482015281356024820152fd5b506020823d602011611043575b8161102d60209383611d9f565b8101031261103f57610f6a9151610f60565b5f80fd5b3d9150611020565b604051903d90823e3d90fd5b611062919350611d07565b5f915f610ec4565b919395509193602080611089600193601f1986820301875289516122a7565b97019301930190928695949293610e72565b634e487b7160e01b5f52601160045260245ffd5b806060602080938601015201610dce565b825163095ea7b360e01b60208201527f00000000000000000000000000000000000000000000000000000000000000006001600160a01b031660248201525f604480830191909152815261111f919061111a908181611d83565b612392565b5f610ce6565b50737b79995e5f793a07bc00c21412e50ecae098e7f93b1515610ce0565b8051801592508215611158575b50505f610cd9565b61116b9250602080918301019101611dc1565b5f80611150565b9091506020813d6020116111a0575b8161118e60209383611d9f565b8101031261103f575190610da4610c40565b3d9150611181565b6040513d5f823e3d90fd5b6040516334f97e8f60e01b8152737b79995e5f793a07bc00c21412e50ecae098e7f96004820152602490fd5b6111e99150611d07565b5f80610b58565b3461087e5761120c60243530336001600160a01b03851661223b565b6001600160a01b0381165f9081526007602052604080822090519061123082611d2f565b80546001600160a01b039081168084526001830154808316602086015260a081901c62ffffff16604086015260b81c600290810b60608601529092015416608083015215611786576040516370a0823160e01b8152306004820152906020826024817f00000000000000000000000000000000000000000000000000000000000000006001600160a01b03165afa9182156111a8575f92611750575b506040805163095ea7b360e01b60208201527f00000000000000000000000000000000000000000000000000000000000000006001600160a01b0316602480830191909152356044820152610d90926113c8929161132d8160648101610c9d565b80515f90819060208401826001600160a01b038d165af161134c611dd9565b81611721575b508061170e575b1561168e575b500151604051906bffffffffffffffffffffffff1990818860601b16602084015262ffffff60e81b9060e81b1660348301527f000000000000000000000000000000000000000000000000000000000000000060601b166037820152602b8152610d6381611d4b565b604051905f6020830152600182526113df82611d67565b604051906113ec82611d67565b600182525f5b6020811061167d575061140482612286565b5261140e81612286565b5061012c4201421161109b577f00000000000000000000000000000000000000000000000000000000000000006001600160a01b03163b1561103f57604051630d64d59360e21b815260606004820152918291906114709060648401906122a7565b600319838203016024840152815180825260208201916020808360051b8301019401925f915b83831061164c575050504261012c016044850152505f9291829003905081837f00000000000000000000000000000000000000000000000000000000000000006001600160a01b03165af19081611639575b5061152357610efb6001600160a01b037f0000000000000000000000000000000000000000000000000000000000000000811690851661250f565b6040516370a0823160e01b8152306004820152916020836024817f00000000000000000000000000000000000000000000000000000000000000006001600160a01b03165afa90811561104b5790611605575b6115809250611ccb565b6044358110610ff4576115bf6001600160a01b037f0000000000000000000000000000000000000000000000000000000000000000811690841661250f565b6040805160243581526020810183905291926001600160a01b03169133917f30b60ee4dc75c0fb04420331b13e9ad7f8ff8fc51eac9c97d36fb20ccbe09d6691a36109bb565b506020823d602011611631575b8161161f60209383611d9f565b8101031261103f576115809151611576565b3d9150611612565b611644919350611d07565b5f915f6114e8565b91939550919360208061166b600193601f1986820301875289516122a7565b97019301930190928695949293611496565b8060606020809386010152016113f2565b825163095ea7b360e01b60208201527f00000000000000000000000000000000000000000000000000000000000000006001600160a01b031660248201525f604480830191909152815261170891906116f9906116ea81611d83565b6001600160a01b038b1661240d565b6001600160a01b03891661240d565b5f61135f565b506001600160a01b0388163b1515611359565b8051801592508215611736575b50505f611352565b6117499250602080918301019101611dc1565b5f8061172e565b9091506020813d60201161177e575b8161176c60209383611d9f565b8101031261103f5751906113c86112cc565b3d915061175f565b6040516334f97e8f60e01b81526001600160a01b0384166004820152602490fd5b3461103f5760c036600319011261103f576117c0611c9f565b60a036602319011261103f576117d4611e73565b6001600160a01b0390811690811561034957807f000000000000000000000000000000000000000000000000000000000000000016821461034957815f52600760205260405f20906024359181831680930361103f576bffffffffffffffffffffffff60a01b928382541617815560018101906044359183831680930361103f57805460029362ffffff60a01b611869611ce5565b60a01b1690611876611cf7565b60b81b62ffffff60b81b169265ffffffffffff60d01b161717179055019160a43591821680920361103f578254161790557feefcc3441707b1e15d417d70a06933c78478667ef7390aa039ddf006a98616b560406118d2611ce5565b6118da611cf7565b62ffffff83519216825260020b6020820152a2005b3461103f57606036600319011261103f57611908611c9f565b611910611cb5565b335f9081527f6a9e69ca3c092ec27931e7426f7d9f98d24b7db4a1e6ca9da4b594c7ec146f78602090815260409091205460443591907f3796904275ea7d7b78e7d6f6eb3c30bfa6b9b385e9fe839bb2d23e7d8fbbc60e9060ff1615611a3a57507fd8821fd6781f6004bdc798e551c2d48d6bd799e1287af7e3f86d39e8c075bc919060018060a01b039485811695865f526005835260405f20951694855f52825260405f205490848281115f14611a0657906119d36119e1936119d993611ccb565b9061200e565b600454611cd8565b6004555b845f526005815260405f20845f5281528260405f20556040519283523392a4005b90828210611a17575b5050506119e5565b6119d3611a2792611a2f94611ccb565b600454611ccb565b600455858381611a0f565b6044906040519063e2517d3f60e01b82523360048301526024820152fd5b3461103f57604036600319011261103f57611a71611cb5565b336001600160a01b03821603611a8f57611a8d90600435611f6b565b005b60405163334bd91960e11b8152600490fd5b3461103f575f36600319011261103f576040517f00000000000000000000000000000000000000000000000000000000000000006001600160a01b03168152602090f35b3461103f57602036600319011261103f577feba65f720b8ecc1107416cbbd6649477c59e0ab49bbad891f8d3ddc153f218476020600435611b24611e18565b80600355604051908152a1005b3461103f57604036600319011261103f57611a8d600435611b50611cb5565b90805f525f602052611b68600160405f200154611ece565b611eef565b3461103f57602036600319011261103f576004355f525f6020526020600160405f200154604051908152f35b3461103f575f36600319011261103f576040517f00000000000000000000000000000000000000000000000000000000000000006001600160a01b03168152602090f35b3461103f57602036600319011261103f5760a06001600160a01b0380611c01611c9f565b165f52600760205260405f20908082541691816002600183015492015416916040519384528116602084015262ffffff81851c16604084015260b81c60020b60608301526080820152f35b3461103f57602036600319011261103f576004359063ffffffff60e01b821680920361103f57602091637965db0b60e01b8114908115611c8e575b5015158152f35b6301ffc9a760e01b14905083611c87565b600435906001600160a01b038216820361103f57565b602435906001600160a01b038216820361103f57565b9190820391821161109b57565b9190820180921161109b57565b60643562ffffff8116810361103f5790565b6084358060020b810361103f5790565b67ffffffffffffffff8111611d1b57604052565b634e487b7160e01b5f52604160045260245ffd5b60a0810190811067ffffffffffffffff821117611d1b57604052565b6060810190811067ffffffffffffffff821117611d1b57604052565b6040810190811067ffffffffffffffff821117611d1b57604052565b6080810190811067ffffffffffffffff821117611d1b57604052565b90601f8019910116810190811067ffffffffffffffff821117611d1b57604052565b9081602091031261103f5751801515810361103f5790565b3d15611e13573d9067ffffffffffffffff8211611d1b5760405191611e08601f8201601f191660200184611d9f565b82523d5f602084013e565b606090565b335f9081527f08d2b0bc599dd50285d83b41a4d1bda96826e60e45b21a9787e10330db9153d360205260409020547fdfb26f8ea1e2d7ec8eca1da8954dd9b4ac136b181b0d95b898d5a00865c72d649060ff1615611a3a5750565b335f9081527fa790c693a249880a6dd3819c4e2e8b8e0ec250d35513176d672dfb24091f467d60205260409020547fb1fadd3142ab2ad7f1337ea4d97112bcc8337fc11ce5b20cb04ad038adf998199060ff1615611a3a5750565b805f525f60205260405f20335f5260205260ff60405f20541615611a3a5750565b90815f525f60205260405f209060018060a01b031690815f5260205260ff60405f205416155f14611f6557815f525f60205260405f20815f5260205260405f20600160ff1982541617905533917f2f8788117e7eff1d82e926ec794901d17c78024a50270940304540a733656f0d5f80a4600190565b50505f90565b90815f525f60205260405f209060018060a01b031690815f5260205260ff60405f2054165f14611f6557815f525f60205260405f20815f5260205260405f2060ff19815416905533917ff6391f5c32d9c69d2a47ea670b442974b53935d1edc7fd64eb21e047a839171b5f80a4600190565b8181029291811591840414171561109b57565b8115611ffa570490565b634e487b7160e01b5f52601260045260245ffd5b919080156122125760018060a01b039283811693845f526006602052604090815f2054169081156121fb57805191633fabe5a360e21b835260049660a0848981855afa9384156121f1575f946121a2575b505f84131561218c57506020879183519283809263313ce56760e01b82525afa91821561218357509060ff915f91612154575b50166008811115612113576007190160ff811161210057916120cb6120c56120d1936120bf60ff96612315565b90611ff0565b91612326565b93611fdd565b9116604d81116120ed576120ea929350600a0a90611ff0565b90565b601184634e487b7160e01b5f525260245ffd5b601186634e487b7160e01b5f525260245ffd5b60088110156121435760080360ff811161210057916120cb6120c56120d19361213d60ff96612315565b90611fdd565b5060ff916120cb6120d19291612326565b612176915060203d60201161217c575b61216e8183611d9f565b8101906122fc565b5f612092565b503d612164565b513d5f823e3d90fd5b87602491845191636ade937960e11b8352820152fd5b90935060a0813d60a0116121e9575b816121be60a09383611d9f565b8101031261103f576121cf816122e5565b506121e16080602083015192016122e5565b50925f61205f565b3d91506121b1565b83513d5f823e3d90fd5b516306439c6b60e01b815260048101869052602490fd5b505f9150565b600260015414612229576002600155565b604051633ee5aeb560e01b8152600490fd5b6040516323b872dd60e01b60208201526001600160a01b0392831660248201529290911660448301526064808301939093529181526122849161227f608483611d9f565b61240d565b565b8051156122935760200190565b634e487b7160e01b5f52603260045260245ffd5b91908251928382525f5b8481106122d1575050825f602080949584010152601f8019910116010190565b6020818301810151848301820152016122b1565b519069ffffffffffffffffffff8216820361103f57565b9081602091031261103f575160ff8116810361103f5790565b60ff16604d811161109b57600a0a90565b6001600160a01b031673eeeeeeeeeeeeeeeeeeeeeeeeeeeeeeeeeeeeeeee811461238c5760206004916040519283809263313ce56760e01b82525afa9081156111a8575f91612373575090565b6120ea915060203d60201161217c5761216e8183611d9f565b50601290565b6123c45f8083516020737b79995e5f793a07bc00c21412e50ecae098e7f9950182865af16123be611dd9565b906125ec565b80519081151591826123f2575b50506123da5750565b60249060405190635274afe760e01b82526004820152fd5b6124059250602080918301019101611dc1565b155f806123d1565b5f806123c49260018060a01b03169360208151910182865af161242e611dd9565b908361266f565b6040516020810163095ea7b360e01b9283825260018060a01b0316908160248401525f60448401526044835261246a83611d83565b5f808451737b79995e5f793a07bc00c21412e50ecae098e7f99382855af190612491611dd9565b826124dd575b50816124d2575b50156124a957505050565b6122849261111a9160405191602083015260248201525f60448201526044815261111a81611d83565b90503b15155f61249e565b805191925081159182156124f5575b5050905f612497565b6125089250602080918301019101611dc1565b5f806124ec565b60405190602082019263095ea7b360e01b938481525f8060018060a01b03809416938460248801528160448801526044875261254a87611d83565b85169286519082855af19061255d611dd9565b826125ba575b50816125af575b5015612577575b50505050565b6125a69361227f9160405191602083015260248201525f6044820152604481526125a081611d83565b8261240d565b5f808080612571565b90503b15155f61256a565b805191925081159182156125d2575b5050905f612563565b6125e59250602080918301019101611dc1565b5f806125c9565b909190612615575080511561260357805190602001fd5b604051630a12f52160e11b8152600490fd5b9080511580612652575b6126265790565b604051639996b31560e01b8152737b79995e5f793a07bc00c21412e50ecae098e7f96004820152602490fd5b50737b79995e5f793a07bc00c21412e50ecae098e7f93b1561261f565b90612684575080511561260357805190602001fd5b815115806126b7575b612695575090565b604051639996b31560e01b81526001600160a01b039091166004820152602490fd5b50803b1561268d56fea26469706673582212200b6fcb699da82618e79389e199de471d71034f88d22e6a957a2f10d9c755076f64736f6c634300081800332f8788117e7eff1d82e926ec794901d17c78024a50270940304540a733656f0dad3228b676f7d3cd4284a5443f17f1962b36e491b30a40b2405849e597ba5fb5","linkReferences":{}},"methodIdentifiers":{"ASSET_MANAGER_ROLE()":"a4b32de8","DEFAULT_ADMIN_ROLE()":"a217fddf","ETH_ADDRESS()":"a734f06e","FUNDS_RECOVERY_ROLE()":"421c8a8c","OPERATIONS_MANAGER_ROLE()":"866be758","USDC()":"89a30271","WETH()":"ad5c4648","addToken(address,address)":"5476bd72","addTokenPool(address,(address,address,uint24,int24,address))":"3cc41631","balances(address,address)":"c23f001f","bankCapInUsd()":"c1fcd84f","deposit(address,uint256)":"47e7ef24","depositArbitraryToken(address,uint256,uint256)":"3e8d4f26","getRoleAdmin(bytes32)":"248a9ca3","grantRole(bytes32,address)":"2f2ff15d","hasRole(bytes32,address)":"91d14854","permit2()":"12261ee7","poolManager()":"dc4c90d3","recoverBalance(address,address,uint256)":"3b517888","renounceRole(bytes32,address)":"36568abe","revokeRole(bytes32,address)":"d547741f","setBankCapInUsd(uint256)":"655fd839","setWithdrawalLimitInUsd(uint256)":"3564ac77","supportsInterface(bytes4)":"01ffc9a7","tokenPriceFeeds(address)":"bd9c47e3","tokenToUsdcPools(address)":"0fcf7d93","totalBankValueInUsd()":"cd2cf71a","universalRouter()":"35a9e4df","withdraw(address,uint256)":"f3fef3a3","withdrawalLimitInUsd()":"dadc7790"},"id":37}