{"abi":[{"type":"constructor","inputs":[{"name":"decimals_","type":"uint8","internalType":"uint8"},{"name":"initialAnswer","type":"int256","internalType":"int256"},{"name":"description_","type":"string","internalType":"string"}],"stateMutability":"nonpayable"},{"type":"function","name":"decimals","inputs":[],"outputs":[{"name":"","type":"uint8","internalType":"uint8"}],"stateMutability":"view"},{"type":"function","name":"description","inputs":[],"outputs":[{"name":"","type":"string","internalType":"string"}],"stateMutability":"view"},{"type":"function","name":"getRoundData","inputs":[{"name":"_roundId","type":"uint80","internalType":"uint80"}],"outputs":[{"name":"roundId","type":"uint80","internalType":"uint80"},{"name":"answer","type":"int256","internalType":"int256"},{"name":"startedAt","type":"uint256","internalType":"uint256"},{"name":"updatedAt","type":"uint256","internalType":"uint256"},{"name":"answeredInRound","type":"uint80","internalType":"uint80"}],"stateMutability":"view"},{"type":"function","name":"latestRoundData","inputs":[],"outputs":[{"name":"roundId","type":"uint80","internalType":"uint80"},{"name":"answer","type":"int256","internalType":"int256"},{"name":"startedAt","type":"uint256","internalType":"uint256"},{"name":"updatedAt","type":"uint256","internalType":"uint256"},{"name":"answeredInRound","type":"uint80","internalType":"uint80"}],"stateMutability":"view"},{"type":"function","name":"updateAnswer","inputs":[{"name":"newAnswer","type":"int256","internalType":"int256"}],"outputs":[],"stateMutability":"nonpayable"},{"type":"function","name":"version","inputs":[],"outputs":[{"name":"","type":"uint256","internalType":"uint256"}],"stateMutability":"view"}],"bytecode":{"object":"0x60806040523461020c576105078038038061001981610210565b92833981019060608183031261020c57805160ff811680910361020c576020928383015190604084015160018060401b039485821161020c570194601f9282848801121561020c5786518681116101e457601f199761007d8287018a168501610210565b9482865284838301011161020c5783905f5b8381106101f85750505f91850101526001948560035560ff195f5416175f55845581519485116101e4576002548481811c911680156101da575b828210146101c657838111610182575b50809285116001146101205750839450908392915f94610115575b50501b915f199060031b1c1916176002555b6040516102d190816102368239f35b015192505f806100f4565b92948490811660025f52845f20945f905b888383106101685750505010610150575b505050811b01600255610106565b01515f1960f88460031b161c191690555f8080610142565b858701518855909601959485019487935090810190610131565b60025f52815f208480880160051c8201928489106101bd575b0160051c019085905b8281106101b25750506100d9565b5f81550185906101a4565b9250819261019b565b634e487b7160e01b5f52602260045260245ffd5b90607f16906100c9565b634e487b7160e01b5f52604160045260245ffd5b81810183015187820184015285920161008f565b5f80fd5b6040519190601f01601f191682016001600160401b038111838210176101e45760405256fe60806040908082526004361015610014575f80fd5b5f3560e01c908163313ce5671461027f5750806354fd4d50146102615780637284e416146101025780639a6fc8f5146100b4578063a87a20ce1461009b5763feaf968c14610060575f80fd5b34610097575f3660031901126100975760a09060015490805191600183526020830152429082015242606082015260016080820152f35b5f80fd5b3461009757602036600319011261009757600435600155005b5034610097576020366003190112610097576004359069ffffffffffffffffffff82168092036100975760a09160015491805192828452602084015242908301524260608301526080820152f35b5034610097575f36600319011261009757805160025491600183811c92905f90808616908115610257575b602096878710831461024357868552879290811561022457506001146101ce575b505081929350601f801993849203011681019381851067ffffffffffffffff8611176101ba579084929183855280845281519182828601525f5b8381106101a45750505f84830186015250601f01168101030190f35b8181018301518882018801528795508201610188565b634e487b7160e01b5f52604160045260245ffd5b60025f9081529192507f405787fa12a823e0f2b7631cc41b3ba8828b3321ca811111fa75cd3aa3bb5ace5b8683106102115750939450849350820101845f61014e565b80548584018501529183019181016101f9565b60ff191683860152509394859450151560051b8301019050845f61014e565b634e487b7160e01b5f52602260045260245ffd5b94607f169461012d565b5034610097575f366003190112610097576020906003549051908152f35b34610097575f3660031901126100975760209060ff5f54168152f3fea264697066735822122018de10eac973eed7f1d27fafbdf812dc9be6279bace745d5edcebdb42abdf1b664736f6c63430008180033","linkReferences":{}},"methodIdentifiers":{"decimals()":"313ce567","description()":"7284e416","getRoundData(uint80)":"9a6fc8f5","latestRoundData()":"feaf968c","updateAnswer(int256)":"a87a20ce","version()":"54fd4d50"},"id":46}