{"abi":[{"type":"constructor","inputs":[],"stateMutability":"nonpayable"},{"type":"function","name":"childInitialize","inputs":[],"outputs":[],"stateMutability":"nonpayable"},{"type":"function","name":"childInitializerRan","inputs":[],"outputs":[{"name":"","type":"bool","internalType":"bool"}],"stateMutability":"view"},{"type":"function","name":"initialize","inputs":[],"outputs":[],"stateMutability":"nonpayable"},{"type":"function","name":"initializeOnlyInitializing","inputs":[],"outputs":[],"stateMutability":"nonpayable"},{"type":"function","name":"initializerRan","inputs":[],"outputs":[{"name":"","type":"bool","internalType":"bool"}],"stateMutability":"view"},{"type":"function","name":"onlyInitializingRan","inputs":[],"outputs":[{"name":"","type":"bool","internalType":"bool"}],"stateMutability":"view"},{"type":"event","name":"Initialized","inputs":[{"name":"version","type":"uint64","indexed":false,"internalType":"uint64"}],"anonymous":false},{"type":"error","name":"InvalidInitialization","inputs":[]},{"type":"error","name":"NotInitializing","inputs":[]}],"bytecode":{"object":"0x608060409080825234610329577ff0c57e16840df040f15088dc2f81fe391c3923bec73e23a9662efc9c229c6a0080546001600160401b038082169382861c60ff161590851580610322575b60018097149081610318575b15908161030f575b5061030057506001600160401b03198381168617855592816102e3575b5083549060ff82881c16159183811687811591826102db575b1490816102d1575b1590816102c8575b506101e15782878683161787556102ab575b505f5491610280575b84549060ff82891c161561026f57610245575b5083549260ff84881c161593838116878115918261023d575b149081610233575b15908161022a575b506101e157848783831617875561020d575b5084549060ff82891c16159382168781159182610205575b1490816101fb575b1590816101f2575b506101e157811686178555620101019190836101c4575b5062ffffff1916175f55610199575b61016f575b8251610347908161032e8239f35b805460ff60401b1916905581519081525f8051602061067583398151915290602090a15f80610161565b68ff00000000000000001982541682555f8051602061067583398151915260208551858152a161015c565b6001600160481b031916680100000000000000011785555f61014d565b875163f92ee8a960e01b8152600490fd5b9050155f610136565b303b15915061012e565b869250610126565b6001600160481b031916680100000000000000011785555f61010e565b9050155f6100fc565b303b1591506100f4565b8792506100ec565b68ff0000000000000000191684555f8051602061067583398151915260208751878152a15f6100d3565b8751631afcd79f60e31b8152600490fd5b68ff00000000000000001985541685555f8051602061067583398151915260208851888152a16100c0565b6001600160481b031916680100000000000000011785555f6100b7565b9050155f6100a5565b303b15915061009d565b859250610095565b6001600160481b031916680100000000000000011784555f61007c565b63f92ee8a960e01b8152600490fd5b9050155f61005f565b303b159150610057565b508161004b565b5f80fdfe60806040908082526004361015610014575f80fd5b5f3560e01c90816310065ed2146102b5575080637cffe97a146102905780638129fc1c146101c6578063b23d810b146101a1578063c3b8ef2a1461017f5763de74c70314610060575f80fd5b3461017b575f36600319011261017b577ff0c57e16840df040f15088dc2f81fe391c3923bec73e23a9662efc9c229c6a00805460ff81841c16159067ffffffffffffffff811680159081610173575b6001149081610169575b159081610160575b5061014f5767ffffffffffffffff198116600117835581610130575b506201000062ff0000195f5416175f556100f357005b805468ff00000000000000001916905551600181527fc7f505b2f371ae2175ee4913f4499e1f2633a7b5936321eed1cdaeb6115181d290602090a1005b68ffffffffffffffffff1916680100000000000000011782555f6100dd565b835163f92ee8a960e01b8152600490fd5b9050155f6100c1565b303b1591506100b9565b8391506100af565b5f80fd5b503461017b575f36600319011261017b5760209060ff5f541690519015158152f35b503461017b575f36600319011261017b5760209060ff5f5460101c1690519015158152f35b503461017b575f36600319011261017b577ff0c57e16840df040f15088dc2f81fe391c3923bec73e23a9662efc9c229c6a00805460ff81841c16159067ffffffffffffffff811680159081610288575b600114908161027e575b159081610275575b5061014f5767ffffffffffffffff198116600117835581610256575b50600160ff195f5416175f556100f357005b68ffffffffffffffffff1916680100000000000000011782555f610244565b9050155f610228565b303b159150610220565b839150610216565b503461017b575f36600319011261017b5760209060ff5f5460081c1690519015158152f35b823461017b575f36600319011261017b577ff0c57e16840df040f15088dc2f81fe391c3923bec73e23a9662efc9c229c6a0054901c60ff1615610302575f805461ff001916610100179055005b631afcd79f60e31b8152600490fdfea26469706673582212206618dd98a15bcbdb223068da5cd77559e400521f10eb5362412d67dbf508223164736f6c63430008180033c7f505b2f371ae2175ee4913f4499e1f2633a7b5936321eed1cdaeb6115181d2","linkReferences":{}},"methodIdentifiers":{"childInitialize()":"de74c703","childInitializerRan()":"b23d810b","initialize()":"8129fc1c","initializeOnlyInitializing()":"10065ed2","initializerRan()":"c3b8ef2a","onlyInitializingRan()":"7cffe97a"},"id":142}