{"abi":[{"type":"function","name":"fail","inputs":[],"outputs":[],"stateMutability":"pure"},{"type":"function","name":"initialize","inputs":[],"outputs":[],"stateMutability":"nonpayable"},{"type":"function","name":"initializeOnlyInitializing","inputs":[],"outputs":[],"stateMutability":"nonpayable"},{"type":"function","name":"initializeWithX","inputs":[{"name":"_x","type":"uint256","internalType":"uint256"}],"outputs":[],"stateMutability":"payable"},{"type":"function","name":"initializerNested","inputs":[],"outputs":[],"stateMutability":"nonpayable"},{"type":"function","name":"initializerRan","inputs":[],"outputs":[{"name":"","type":"bool","internalType":"bool"}],"stateMutability":"view"},{"type":"function","name":"isInitializing","inputs":[],"outputs":[{"name":"","type":"bool","internalType":"bool"}],"stateMutability":"view"},{"type":"function","name":"nonInitializable","inputs":[{"name":"_x","type":"uint256","internalType":"uint256"}],"outputs":[],"stateMutability":"payable"},{"type":"function","name":"onlyInitializingNested","inputs":[],"outputs":[],"stateMutability":"nonpayable"},{"type":"function","name":"onlyInitializingRan","inputs":[],"outputs":[{"name":"","type":"bool","internalType":"bool"}],"stateMutability":"view"},{"type":"function","name":"x","inputs":[],"outputs":[{"name":"","type":"uint256","internalType":"uint256"}],"stateMutability":"view"},{"type":"event","name":"Initialized","inputs":[{"name":"version","type":"uint64","indexed":false,"internalType":"uint64"}],"anonymous":false},{"type":"error","name":"InvalidInitialization","inputs":[]},{"type":"error","name":"NotInitializing","inputs":[]}],"bytecode":{"object":"0x60808060405234610016576106a4908161001b8239f35b5f80fdfe608060409080825260049182361015610016575f80fd5b5f3560e01c91826218eaa814610571575081630c55699c1461055457816310065ed21461050c5781633ec91f05146104dd57816368449d1b146103d457816376268ae8146102385781637cffe97a146102145781638129fc1c14610123578163a9cc4718146100d0578163c3b8ef2a146100af575063e955c9ec14610099575f80fd5b60203660031901126100ab5735600155005b5f80fd5b346100ab575f3660031901126100ab5760209060ff5f541690519015158152f35b82346100ab575f3660031901126100ab576020606492519162461bcd60e51b8352820152602060248201527f496e697469616c697a61626c654d6f636b20666f72636564206661696c7572656044820152fd5b82346100ab575f3660031901126100ab575f8051602061064f83398151915290815460ff81851c16159167ffffffffffffffff82168015908161020c575b6001149081610202575b1590816101f9575b506101eb575067ffffffffffffffff1981166001178355816101cc575b50600160ff195f5416175f556101a257005b805468ff00000000000000001916905551600181525f8051602061062f83398151915290602090a1005b68ffffffffffffffffff19166801000000000000000117825583610190565b845163f92ee8a960e01b8152fd5b90501586610173565b303b15915061016b565b849150610161565b346100ab575f3660031901126100ab5760209060ff5f5460081c1690519015158152f35b82346100ab575f3660031901126100ab575f8051602061064f8339815191529081549060ff82851c16159067ffffffffffffffff90818416938415806103cd575b600180961490816103c3575b1590816103ba575b506103ab5767ffffffffffffffff1981811686178755908461038c575b5085549160ff83891c16159383168681159182610384575b14908161037a575b159081610371575b50610363575081168417855581610344575b508260ff195f5416175f5561031e575b6102fa57005b5f8051602061062f8339815191529260209260ff60401b19815416905551908152a1005b60ff60401b1983541683555f8051602061062f83398151915260208551848152a16102f4565b68ffffffffffffffffff191668010000000000000001178455856102e4565b875163f92ee8a960e01b8152fd5b905015896102d2565b303b1591506102ca565b8692506102c2565b68ffffffffffffffffff191668010000000000000001178655876102aa565b50855163f92ee8a960e01b8152fd5b9050158861028d565b303b159150610285565b5083610279565b82346100ab575f3660031901126100ab575f8051602061064f83398151915291825460ff81831c16159067ffffffffffffffff8116801590816104d5575b60011490816104cb575b1590816104c2575b506104b35767ffffffffffffffff198116600117855581610494575b5083549260ff84841c1615610486575061010061ff00195f5416175f5561046357005b5f8051602061062f8339815191529260209260ff60401b191690555160018152a1005b8251631afcd79f60e31b8152fd5b68ffffffffffffffffff19166801000000000000000117845584610440565b50505163f92ee8a960e01b8152fd5b90501586610424565b303b15915061041c565b839150610412565b346100ab575f3660031901126100ab575f8051602061064f833981519152548151911c60ff1615158152602090f35b9050346100ab575f3660031901126100ab5760ff5f8051602061064f83398151915254821c1615610547575f805461ff001916610100179055005b51631afcd79f60e31b8152fd5b346100ab575f3660031901126100ab576020906001549051908152f35b839060203660031901126100ab575f8051602061064f83398151915291825460ff81861c16159267ffffffffffffffff821680159081610626575b600114908161061c575b159081610613575b50610605575067ffffffffffffffff1981166001178455826105e6575b50356001556101a257005b68ffffffffffffffffff191668010000000000000001178355846105db565b63f92ee8a960e01b81529050fd5b905015876105be565b303b1591506105b6565b8591506105ac56fec7f505b2f371ae2175ee4913f4499e1f2633a7b5936321eed1cdaeb6115181d2f0c57e16840df040f15088dc2f81fe391c3923bec73e23a9662efc9c229c6a00a264697066735822122009da3868e07d53ef4b9beb8f892f007ef2c6e1f19a29c020b472631a75815c8c64736f6c63430008180033","linkReferences":{}},"methodIdentifiers":{"fail()":"a9cc4718","initialize()":"8129fc1c","initializeOnlyInitializing()":"10065ed2","initializeWithX(uint256)":"0018eaa8","initializerNested()":"76268ae8","initializerRan()":"c3b8ef2a","isInitializing()":"3ec91f05","nonInitializable(uint256)":"e955c9ec","onlyInitializingNested()":"68449d1b","onlyInitializingRan()":"7cffe97a","x()":"0c55699c"},"id":142}