{"abi":[{"type":"function","name":"chainReinitialize","inputs":[{"name":"i","type":"uint64","internalType":"uint64"},{"name":"j","type":"uint64","internalType":"uint64"}],"outputs":[],"stateMutability":"nonpayable"},{"type":"function","name":"counter","inputs":[],"outputs":[{"name":"","type":"uint256","internalType":"uint256"}],"stateMutability":"view"},{"type":"function","name":"disableInitializers","inputs":[],"outputs":[],"stateMutability":"nonpayable"},{"type":"function","name":"doStuff","inputs":[],"outputs":[],"stateMutability":"nonpayable"},{"type":"function","name":"getInitializedVersion","inputs":[],"outputs":[{"name":"","type":"uint64","internalType":"uint64"}],"stateMutability":"view"},{"type":"function","name":"initialize","inputs":[],"outputs":[],"stateMutability":"nonpayable"},{"type":"function","name":"nestedReinitialize","inputs":[{"name":"i","type":"uint64","internalType":"uint64"},{"name":"j","type":"uint64","internalType":"uint64"}],"outputs":[],"stateMutability":"nonpayable"},{"type":"function","name":"reinitialize","inputs":[{"name":"i","type":"uint64","internalType":"uint64"}],"outputs":[],"stateMutability":"nonpayable"},{"type":"event","name":"Initialized","inputs":[{"name":"version","type":"uint64","indexed":false,"internalType":"uint64"}],"anonymous":false},{"type":"error","name":"InvalidInitialization","inputs":[]},{"type":"error","name":"NotInitializing","inputs":[]}],"bytecode":{"object":"0x608080604052346100165761068c908161001b8239f35b5f80fdfe6080604081815260049182361015610015575f80fd5b5f3560e01c90816331f449001461056e5750806361bc221a146105515780638129fc1c14610444578063874f33a1146103f95780639a1b97df14610327578063b3c65015146102f3578063b5f214c0146101af5763ff57ab7414610077575f80fd5b346101ab57806003193601126101ab5761008f6105e8565b6100976105ff565b925f805160206106378339815191529182549060ff82861c168015610194575b6101845767ffffffffffffffff80911695600160401b91828868ffffffffffffffffff1980961617179160ff83891c168015610176575b61016657169283911617179160ff83861c1615610158575f54905f198214610145576020808888888888600189015f5583519081525f80516020610617833981519152968791a160ff60401b1916905551908152a1005b601190634e487b7160e01b5f525260245ffd5b8451631afcd79f60e31b8152fd5b875163f92ee8a960e01b81528690fd5b5081811682841610156100ee565b845163f92ee8a960e01b81528390fd5b5067ffffffffffffffff80821690831610156100b7565b5f80fd5b5090346101ab57816003193601126101ab576101c96105e8565b6101d16105ff565b925f8051602061063783398151915280549360ff85841c1680156102dc575b6102ce5767ffffffffffffffff80941690600160401b808368ffffffffffffffffff1980991617179660ff88871c16156102be575f54975f1994858a146102ab576020999a899189519081525f805160206106178339815191529b8c91a11680988216101561029b57168617179182851c60ff161561028c5760018801146101455750600260209596015f5560ff60401b1916905551908152a1005b508351631afcd79f60e31b8152fd5b865163f92ee8a960e01b81528490fd5b601185634e487b7160e01b5f525260245ffd5b8551631afcd79f60e31b81528390fd5b825163f92ee8a960e01b8152fd5b5067ffffffffffffffff80851690861610156101f0565b50346101ab575f3660031901126101ab5760209067ffffffffffffffff5f8051602061063783398151915254169051908152f35b50346101ab5760203660031901126101ab576103416105e8565b915f805160206106378339815191529081549360ff85851c1680156103e2575b6103d35767ffffffffffffffff169368ffffffffffffffffff19168417600160401b179081841c60ff16156103c5575f54905f19821461014557600182015f5560ff60401b198316845584518681525f8051602061061783398151915290602090a1005b8351631afcd79f60e31b8152fd5b50825163f92ee8a960e01b8152fd5b5067ffffffffffffffff8082169086161015610361565b50346101ab575f3660031901126101ab5760ff5f8051602061063783398151915254821c161561043757505f54905f19821461014557600182015f55005b51631afcd79f60e31b8152fd5b5090346101ab575f3660031901126101ab575f8051602061063783398151915291825460ff81831c16159067ffffffffffffffff811680159081610549575b600114908161053f575b159081610536575b506105275767ffffffffffffffff198116600117855581610508575b5083549260ff84841c16156104fa575f54905f19821461014557506001015f556104d757005b5f805160206106178339815191529260209260ff60401b191690555160018152a1005b8251631afcd79f60e31b8152fd5b68ffffffffffffffffff1916680100000000000000011784555f6104b1565b50505163f92ee8a960e01b8152fd5b9050155f610495565b303b15915061048d565b839150610483565b50346101ab575f3660031901126101ab576020905f549051908152f35b919050346101ab575f3660031901126101ab575f805160206106378339815191529283549260ff84841c166105dc57505067ffffffffffffffff9081808416036105b457005b5f80516020610617833981519152938260209467ffffffffffffffff191617905551908152a1005b63f92ee8a960e01b8152fd5b6004359067ffffffffffffffff821682036101ab57565b6024359067ffffffffffffffff821682036101ab5756fec7f505b2f371ae2175ee4913f4499e1f2633a7b5936321eed1cdaeb6115181d2f0c57e16840df040f15088dc2f81fe391c3923bec73e23a9662efc9c229c6a00a2646970667358221220e73f759b3dec5112a67f70251cb87d4defde7dbda127c09a9347b4b366f1678664736f6c63430008180033","linkReferences":{}},"methodIdentifiers":{"chainReinitialize(uint64,uint64)":"b5f214c0","counter()":"61bc221a","disableInitializers()":"31f44900","doStuff()":"874f33a1","getInitializedVersion()":"b3c65015","initialize()":"8129fc1c","nestedReinitialize(uint64,uint64)":"ff57ab74","reinitialize(uint64)":"9a1b97df"},"id":142}