{"abi":[{"type":"function","name":"assertExists","inputs":[{"name":"self","type":"tuple","internalType":"struct Variable","components":[{"name":"ty","type":"tuple","internalType":"struct Type","components":[{"name":"kind","type":"TypeKind","internalType":"enum TypeKind"},{"name":"isArray","type":"bool","internalType":"bool"}]},{"name":"data","type":"bytes","internalType":"bytes"}]}],"outputs":[],"stateMutability":"pure"},{"type":"error","name":"NotInitialized","inputs":[]},{"type":"error","name":"TypeMismatch","inputs":[{"name":"expected","type":"string","internalType":"string"},{"name":"actual","type":"string","internalType":"string"}]},{"type":"error","name":"UnsafeCast","inputs":[{"name":"message","type":"string","internalType":"string"}]}],"bytecode":{"object":"0x6080806040523461001a576101c3908161001f823930815050f35b5f80fdfe6080604052600480361015610012575f80fd5b5f3560e01c6315af8fee14610025575f80fd5b6003196020368201126101315781359067ffffffffffffffff908183116101315782360301906060821261013157604061005d610159565b92126101315761006b610159565b9280850135600881101561013157845260249384820135801515810361013157602082015283526044810135908282116101315701366023820112156101315784810135908282116101475760405192601f8301601f19908116603f0116840190811184821017610135576040528183523685838301011161013157815f92866020930183860137830101526020820152515190600882101561011f57501561011057005b6040516321c4e35760e21b8152fd5b634e487b7160e01b5f90815260218452fd5b5f80fd5b85604188634e487b7160e01b5f52525ffd5b84604187634e487b7160e01b5f52525ffd5b604051906040820182811067ffffffffffffffff82111761017957604052565b634e487b7160e01b5f52604160045260245ffdfea264697066735822122071a244b5fd3280b13ac0ce8df67861d9b2dbd62e02c7f9ec7c5849a2a4e19e2a64736f6c63430008180033","linkReferences":{}},"methodIdentifiers":{"assertExists(Variable)":"15af8fee"},"id":13}