{"abi":[{"type":"constructor","inputs":[{"name":"beneficiary","type":"address","internalType":"address"},{"name":"startTimestamp","type":"uint64","internalType":"uint64"},{"name":"durationSeconds","type":"uint64","internalType":"uint64"}],"stateMutability":"payable"},{"type":"receive","stateMutability":"payable"},{"type":"function","name":"duration","inputs":[],"outputs":[{"name":"","type":"uint256","internalType":"uint256"}],"stateMutability":"view"},{"type":"function","name":"end","inputs":[],"outputs":[{"name":"","type":"uint256","internalType":"uint256"}],"stateMutability":"view"},{"type":"function","name":"owner","inputs":[],"outputs":[{"name":"","type":"address","internalType":"address"}],"stateMutability":"view"},{"type":"function","name":"releasable","inputs":[{"name":"token","type":"address","internalType":"address"}],"outputs":[{"name":"","type":"uint256","internalType":"uint256"}],"stateMutability":"view"},{"type":"function","name":"releasable","inputs":[],"outputs":[{"name":"","type":"uint256","internalType":"uint256"}],"stateMutability":"view"},{"type":"function","name":"release","inputs":[{"name":"token","type":"address","internalType":"address"}],"outputs":[],"stateMutability":"nonpayable"},{"type":"function","name":"release","inputs":[],"outputs":[],"stateMutability":"nonpayable"},{"type":"function","name":"released","inputs":[],"outputs":[{"name":"","type":"uint256","internalType":"uint256"}],"stateMutability":"view"},{"type":"function","name":"released","inputs":[{"name":"token","type":"address","internalType":"address"}],"outputs":[{"name":"","type":"uint256","internalType":"uint256"}],"stateMutability":"view"},{"type":"function","name":"renounceOwnership","inputs":[],"outputs":[],"stateMutability":"nonpayable"},{"type":"function","name":"start","inputs":[],"outputs":[{"name":"","type":"uint256","internalType":"uint256"}],"stateMutability":"view"},{"type":"function","name":"transferOwnership","inputs":[{"name":"newOwner","type":"address","internalType":"address"}],"outputs":[],"stateMutability":"nonpayable"},{"type":"function","name":"vestedAmount","inputs":[{"name":"timestamp","type":"uint64","internalType":"uint64"}],"outputs":[{"name":"","type":"uint256","internalType":"uint256"}],"stateMutability":"view"},{"type":"function","name":"vestedAmount","inputs":[{"name":"token","type":"address","internalType":"address"},{"name":"timestamp","type":"uint64","internalType":"uint64"}],"outputs":[{"name":"","type":"uint256","internalType":"uint256"}],"stateMutability":"view"},{"type":"event","name":"ERC20Released","inputs":[{"name":"token","type":"address","indexed":true,"internalType":"address"},{"name":"amount","type":"uint256","indexed":false,"internalType":"uint256"}],"anonymous":false},{"type":"event","name":"EtherReleased","inputs":[{"name":"amount","type":"uint256","indexed":false,"internalType":"uint256"}],"anonymous":false},{"type":"event","name":"OwnershipTransferred","inputs":[{"name":"previousOwner","type":"address","indexed":true,"internalType":"address"},{"name":"newOwner","type":"address","indexed":true,"internalType":"address"}],"anonymous":false},{"type":"error","name":"AddressEmptyCode","inputs":[{"name":"target","type":"address","internalType":"address"}]},{"type":"error","name":"AddressInsufficientBalance","inputs":[{"name":"account","type":"address","internalType":"address"}]},{"type":"error","name":"FailedInnerCall","inputs":[]},{"type":"error","name":"OwnableInvalidOwner","inputs":[{"name":"owner","type":"address","internalType":"address"}]},{"type":"error","name":"OwnableUnauthorizedAccount","inputs":[{"name":"account","type":"address","internalType":"address"}]},{"type":"error","name":"SafeERC20FailedOperation","inputs":[{"name":"token","type":"address","internalType":"address"}]}],"bytecode":{"object":"0x60c0601f610a0238819003918201601f19168301916001600160401b03831184841017610106578084926060946040528339810103126101025780516001600160a01b0391828216918290036101025761006760406100606020840161011a565b920161011a565b9180156100ea575f80546001600160a01b03198116831782556040519516907f8be0079c531659141344cd1fd0a4f28419497f9722a3daafe3b4186f6b6457e09080a360805260a0526108d3908161012f82396080518181816101d5015281816106fc0152610730015260a051818181610527015281816106d901526107910152f35b604051631e4fbdf760e01b81525f6004820152602490fd5b5f80fd5b634e487b7160e01b5f52604160045260245ffd5b51906001600160401b03821682036101025756fe60406080815260048036101561001e575b5050361561001c575f80fd5b005b5f3560e01c9081630a17b06b1461054b5781630fb5a6b41461050757816319165587146103df578163715018a614610388578163810ec23b1461034d57816386d1a69f1461029a5781638da5cb5b1461027357816396132521146102555781639852595c1461021e578163a3f8eace146101f9578163be9a6555146101b5578163efbe1c1c14610199578163f2fde38b1461010c575063fbccedae146100c45780610010565b34610108575f36600319011261010857602090610101476100fc600154916100f78367ffffffffffffffff42169261059a565b610721565b610686565b9051908152f35b5f80fd5b90503461010857602036600319011261010857610127610584565b906101306107d0565b6001600160a01b039182169283156101835750505f54826bffffffffffffffffffffffff60a01b8216175f55167f8be0079c531659141344cd1fd0a4f28419497f9722a3daafe3b4186f6b6457e05f80a3005b905f6024925191631e4fbdf760e01b8352820152fd5b8234610108575f366003190112610108576020906101016106ca565b8234610108575f366003190112610108576020905167ffffffffffffffff7f0000000000000000000000000000000000000000000000000000000000000000168152f35b823461010857602036600319011261010857602090610101610219610584565b610693565b8234610108576020366003190112610108576020906001600160a01b03610243610584565b165f5260028252805f20549051908152f35b8234610108575f366003190112610108576020906001549051908152f35b8234610108575f366003190112610108575f5490516001600160a01b039091168152602090f35b8234610108575f366003190112610108576001546102d46102cd826100fc4267ffffffffffffffff166100f7834761059a565b809261059a565b6001557fda9d4e5f101b8b9b1c5b76d0c5a9f7923571acfc02376aa076b75a8c080c956b60208351838152a15f546001600160a01b0316478211610337575f80809381935af16103226107fb565b501561032a57005b51630a12f52160e11b8152fd5b825163cd78605960e01b81523081860152602490fd5b8234610108578060031936011261010857610366610584565b906024359167ffffffffffffffff8316830361010857602092610101916105f1565b34610108575f366003190112610108576103a06107d0565b5f80546001600160a01b0319811682556001600160a01b03167f8be0079c531659141344cd1fd0a4f28419497f9722a3daafe3b4186f6b6457e08280a3005b90503461010857602080600319360112610108576103fb610584565b9061040582610693565b60018060a01b0380931692835f5260028352855f2061042583825461059a565b9055837fc0e523490dd523c33b1878c9eb14ff46991e3f5b2cd33710918618f2a39cba1b848851858152a25f5416908551908382019263a9059cbb60e01b845260248301526044820152604481526080810181811067ffffffffffffffff8211176104f4578652516104a8915f91829182875af16104a16107fb565b908461083a565b80519182151591826104d3575b505090506104bf57005b6024925191635274afe760e01b8352820152fd5b80925081938101031261010857015180159081150361010857805f806104b5565b604186634e487b7160e01b5f525260245ffd5b8234610108575f366003190112610108576020905167ffffffffffffffff7f0000000000000000000000000000000000000000000000000000000000000000168152f35b90503461010857602036600319011261010857359067ffffffffffffffff82168203610108576101016020926100f7476001549061059a565b600435906001600160a01b038216820361010857565b919082018092116105a757565b634e487b7160e01b5f52601160045260245ffd5b90601f8019910116810190811067ffffffffffffffff8211176105dd57604052565b634e487b7160e01b5f52604160045260245ffd5b6040516370a0823160e01b81523060048201526001600160a01b03919091169190602081602481865afa90811561067b575f91610647575b506100f790610644935f52600260205260405f20549061059a565b90565b90506020813d602011610673575b81610662602093836105bb565b810103126101085751610644610629565b3d9150610655565b6040513d5f823e3d90fd5b919082039182116105a757565b610644906106ab67ffffffffffffffff4216826105f1565b6001600160a01b039091165f9081526002602052604090205490610686565b61064467ffffffffffffffff807f000000000000000000000000000000000000000000000000000000000000000016907f00000000000000000000000000000000000000000000000000000000000000001661059a565b9067ffffffffffffffff9081167f000000000000000000000000000000000000000000000000000000000000000082168082101561076157505050505f90565b6107696106ca565b82106107755750505090565b61077e91610686565b918281029281840414901517156105a7577f0000000000000000000000000000000000000000000000000000000000000000169081156107bc570490565b634e487b7160e01b5f52601260045260245ffd5b5f546001600160a01b031633036107e357565b60405163118cdaa760e01b8152336004820152602490fd5b3d15610835573d9067ffffffffffffffff82116105dd576040519161082a601f8201601f1916602001846105bb565b82523d5f602084013e565b606090565b90610861575080511561084f57805190602001fd5b604051630a12f52160e11b8152600490fd5b81511580610894575b610872575090565b604051639996b31560e01b81526001600160a01b039091166004820152602490fd5b50803b1561086a56fea2646970667358221220ed0e5b1bfbebbaa22d18174b82d9d63451dec0e35ce2aa7aa4d23ec4c382d8eb64736f6c63430008180033","linkReferences":{}},"methodIdentifiers":{"duration()":"0fb5a6b4","end()":"efbe1c1c","owner()":"8da5cb5b","releasable()":"fbccedae","releasable(address)":"a3f8eace","release()":"86d1a69f","release(address)":"19165587","released()":"96132521","released(address)":"9852595c","renounceOwnership()":"715018a6","start()":"be9a6555","transferOwnership(address)":"f2fde38b","vestedAmount(address,uint64)":"810ec23b","vestedAmount(uint64)":"0a17b06b"},"id":75}