{"abi":[{"type":"function","name":"initialize","inputs":[{"name":"value","type":"uint256","internalType":"uint256"}],"outputs":[],"stateMutability":"payable"},{"type":"function","name":"migrate","inputs":[{"name":"value","type":"uint256","internalType":"uint256"},{"name":"anotherValue","type":"uint256","internalType":"uint256"}],"outputs":[],"stateMutability":"payable"},{"type":"function","name":"migrate","inputs":[],"outputs":[],"stateMutability":"payable"},{"type":"function","name":"x","inputs":[],"outputs":[{"name":"","type":"uint256","internalType":"uint256"}],"stateMutability":"view"},{"type":"function","name":"y","inputs":[],"outputs":[{"name":"","type":"uint256","internalType":"uint256"}],"stateMutability":"view"},{"type":"event","name":"Initialized","inputs":[{"name":"version","type":"uint64","indexed":false,"internalType":"uint64"}],"anonymous":false},{"type":"error","name":"InvalidInitialization","inputs":[]},{"type":"error","name":"NotInitializing","inputs":[]}],"bytecode":{"object":"0x608080604052346100165761022f908161001b8239f35b5f80fdfe60806040908082526004361015610014575f80fd5b5f3560e01c9081630c55699c146101e0575080633e54bacb146101b25780638fd3ab8014610184578063a56dfe4a146101665763fe4b84df14610055575f80fd5b6020366003190112610162577ff0c57e16840df040f15088dc2f81fe391c3923bec73e23a9662efc9c229c6a00805460ff81841c16159067ffffffffffffffff81168015908161015a575b6001149081610150575b159081610147575b506101365767ffffffffffffffff198116600117835581610117575b506004355f556100da57005b805468ff00000000000000001916905551600181527fc7f505b2f371ae2175ee4913f4499e1f2633a7b5936321eed1cdaeb6115181d290602090a1005b68ffffffffffffffffff1916680100000000000000011782555f6100ce565b835163f92ee8a960e01b8152600490fd5b9050155f6100b2565b303b1591506100aa565b8391506100a0565b5f80fd5b5034610162575f366003190112610162576020906002549051908152f35b5f3660031901126101625760035460ff8116610162575f805460028054909255905560ff1916600117600355005b503660031901126101625760015460ff8116610162576004355f5560243560025560ff191660019081179055005b34610162575f366003190112610162576020905f548152f3fea264697066735822122079db76e61d06b78a954d5eec802dbffae6f06de05092c8a4b65745b84c99451b64736f6c63430008180033","linkReferences":{}},"methodIdentifiers":{"initialize(uint256)":"fe4b84df","migrate()":"8fd3ab80","migrate(uint256,uint256)":"3e54bacb","x()":"0c55699c","y()":"a56dfe4a"},"id":149}