{"abi":[{"type":"function","name":"delegatedFunction","inputs":[],"outputs":[{"name":"","type":"bool","internalType":"bool"}],"stateMutability":"pure"},{"type":"function","name":"upgradeToAndCall","inputs":[{"name":"","type":"address","internalType":"address"},{"name":"","type":"bytes","internalType":"bytes"}],"outputs":[],"stateMutability":"payable"},{"type":"event","name":"ClashingImplementationCall","inputs":[],"anonymous":false}],"bytecode":{"object":"0x6080806040523460145760f190816100198239f35b5f80fdfe60808060405260043610156011575f80fd5b5f3560e01c80634f1ef2861460485763abf8e0e714602d575f80fd5b346044575f36600319011260445780600160209252f35b5f80fd5b60403660031901126044576004356001600160a01b0381160360445760243567ffffffffffffffff808211604457366023830112156044578160040135908111604457369101602401116044577f87f295955c288a63c1ec9524b11bb3e2b47480139ca4755c7d6e1dacaa8c4b1b5f80a100fea264697066735822122087ddd9d6d0f48b1ed94cbe85fa4d692a15ba294aad771f00f6fa7bd76d59fdaf64736f6c63430008180033","linkReferences":{}},"methodIdentifiers":{"delegatedFunction()":"abf8e0e7","upgradeToAndCall(address,bytes)":"4f1ef286"},"id":172}