{"abi":[{"type":"constructor","inputs":[{"name":"_initialBankCapInUsd","type":"uint256","internalType":"uint256"},{"name":"_initialWithdrawalLimitInUsd","type":"uint256","internalType":"uint256"}],"stateMutability":"nonpayable"},{"type":"function","name":"ASSET_MANAGER_ROLE","inputs":[],"outputs":[{"name":"","type":"bytes32","internalType":"bytes32"}],"stateMutability":"view"},{"type":"function","name":"DEFAULT_ADMIN_ROLE","inputs":[],"outputs":[{"name":"","type":"bytes32","internalType":"bytes32"}],"stateMutability":"view"},{"type":"function","name":"ETH_ADDRESS","inputs":[],"outputs":[{"name":"","type":"address","internalType":"address"}],"stateMutability":"view"},{"type":"function","name":"FUNDS_RECOVERY_ROLE","inputs":[],"outputs":[{"name":"","type":"bytes32","internalType":"bytes32"}],"stateMutability":"view"},{"type":"function","name":"OPERATIONS_MANAGER_ROLE","inputs":[],"outputs":[{"name":"","type":"bytes32","internalType":"bytes32"}],"stateMutability":"view"},{"type":"function","name":"addToken","inputs":[{"name":"_tokenAddress","type":"address","internalType":"address"},{"name":"_priceFeedAddress","type":"address","internalType":"address"}],"outputs":[],"stateMutability":"nonpayable"},{"type":"function","name":"balances","inputs":[{"name":"","type":"address","internalType":"address"},{"name":"","type":"address","internalType":"address"}],"outputs":[{"name":"","type":"uint256","internalType":"uint256"}],"stateMutability":"view"},{"type":"function","name":"bankCapInUsd","inputs":[],"outputs":[{"name":"","type":"uint256","internalType":"uint256"}],"stateMutability":"view"},{"type":"function","name":"deposit","inputs":[{"name":"_tokenAddress","type":"address","internalType":"address"},{"name":"_amount","type":"uint256","internalType":"uint256"}],"outputs":[],"stateMutability":"payable"},{"type":"function","name":"getRoleAdmin","inputs":[{"name":"role","type":"bytes32","internalType":"bytes32"}],"outputs":[{"name":"","type":"bytes32","internalType":"bytes32"}],"stateMutability":"view"},{"type":"function","name":"grantRole","inputs":[{"name":"role","type":"bytes32","internalType":"bytes32"},{"name":"account","type":"address","internalType":"address"}],"outputs":[],"stateMutability":"nonpayable"},{"type":"function","name":"hasRole","inputs":[{"name":"role","type":"bytes32","internalType":"bytes32"},{"name":"account","type":"address","internalType":"address"}],"outputs":[{"name":"","type":"bool","internalType":"bool"}],"stateMutability":"view"},{"type":"function","name":"recoverBalance","inputs":[{"name":"_tokenAddress","type":"address","internalType":"address"},{"name":"_user","type":"address","internalType":"address"},{"name":"_newBalance","type":"uint256","internalType":"uint256"}],"outputs":[],"stateMutability":"nonpayable"},{"type":"function","name":"renounceRole","inputs":[{"name":"role","type":"bytes32","internalType":"bytes32"},{"name":"callerConfirmation","type":"address","internalType":"address"}],"outputs":[],"stateMutability":"nonpayable"},{"type":"function","name":"revokeRole","inputs":[{"name":"role","type":"bytes32","internalType":"bytes32"},{"name":"account","type":"address","internalType":"address"}],"outputs":[],"stateMutability":"nonpayable"},{"type":"function","name":"setBankCapInUsd","inputs":[{"name":"_newCap","type":"uint256","internalType":"uint256"}],"outputs":[],"stateMutability":"nonpayable"},{"type":"function","name":"setWithdrawalLimitInUsd","inputs":[{"name":"_newLimit","type":"uint256","internalType":"uint256"}],"outputs":[],"stateMutability":"nonpayable"},{"type":"function","name":"supportsInterface","inputs":[{"name":"interfaceId","type":"bytes4","internalType":"bytes4"}],"outputs":[{"name":"","type":"bool","internalType":"bool"}],"stateMutability":"view"},{"type":"function","name":"tokenPriceFeeds","inputs":[{"name":"","type":"address","internalType":"address"}],"outputs":[{"name":"","type":"address","internalType":"address"}],"stateMutability":"view"},{"type":"function","name":"totalBankValueInUsd","inputs":[],"outputs":[{"name":"","type":"uint256","internalType":"uint256"}],"stateMutability":"view"},{"type":"function","name":"withdraw","inputs":[{"name":"_tokenAddress","type":"address","internalType":"address"},{"name":"_amount","type":"uint256","internalType":"uint256"}],"outputs":[],"stateMutability":"nonpayable"},{"type":"function","name":"withdrawalLimitInUsd","inputs":[],"outputs":[{"name":"","type":"uint256","internalType":"uint256"}],"stateMutability":"view"},{"type":"event","name":"BalanceRecovered","inputs":[{"name":"admin","type":"address","indexed":true,"internalType":"address"},{"name":"user","type":"address","indexed":true,"internalType":"address"},{"name":"token","type":"address","indexed":true,"internalType":"address"},{"name":"newBalance","type":"uint256","indexed":false,"internalType":"uint256"}],"anonymous":false},{"type":"event","name":"BankCapUpdated","inputs":[{"name":"newCapInUsd","type":"uint256","indexed":false,"internalType":"uint256"}],"anonymous":false},{"type":"event","name":"Deposit","inputs":[{"name":"user","type":"address","indexed":true,"internalType":"address"},{"name":"token","type":"address","indexed":true,"internalType":"address"},{"name":"amount","type":"uint256","indexed":false,"internalType":"uint256"}],"anonymous":false},{"type":"event","name":"RoleAdminChanged","inputs":[{"name":"role","type":"bytes32","indexed":true,"internalType":"bytes32"},{"name":"previousAdminRole","type":"bytes32","indexed":true,"internalType":"bytes32"},{"name":"newAdminRole","type":"bytes32","indexed":true,"internalType":"bytes32"}],"anonymous":false},{"type":"event","name":"RoleGranted","inputs":[{"name":"role","type":"bytes32","indexed":true,"internalType":"bytes32"},{"name":"account","type":"address","indexed":true,"internalType":"address"},{"name":"sender","type":"address","indexed":true,"internalType":"address"}],"anonymous":false},{"type":"event","name":"RoleRevoked","inputs":[{"name":"role","type":"bytes32","indexed":true,"internalType":"bytes32"},{"name":"account","type":"address","indexed":true,"internalType":"address"},{"name":"sender","type":"address","indexed":true,"internalType":"address"}],"anonymous":false},{"type":"event","name":"TokenAdded","inputs":[{"name":"token","type":"address","indexed":true,"internalType":"address"},{"name":"priceFeed","type":"address","indexed":true,"internalType":"address"}],"anonymous":false},{"type":"event","name":"Withdrawal","inputs":[{"name":"user","type":"address","indexed":true,"internalType":"address"},{"name":"token","type":"address","indexed":true,"internalType":"address"},{"name":"amount","type":"uint256","indexed":false,"internalType":"uint256"}],"anonymous":false},{"type":"event","name":"WithdrawalLimitUpdated","inputs":[{"name":"newLimitInUsd","type":"uint256","indexed":false,"internalType":"uint256"}],"anonymous":false},{"type":"error","name":"AccessControlBadConfirmation","inputs":[]},{"type":"error","name":"AccessControlUnauthorizedAccount","inputs":[{"name":"account","type":"address","internalType":"address"},{"name":"neededRole","type":"bytes32","internalType":"bytes32"}]},{"type":"error","name":"AmountDoesNotMatchMsgValue","inputs":[]},{"type":"error","name":"BankCapExceeded","inputs":[{"name":"currentTotalValue","type":"uint256","internalType":"uint256"},{"name":"depositValue","type":"uint256","internalType":"uint256"},{"name":"bankCap","type":"uint256","internalType":"uint256"}]},{"type":"error","name":"InsufficientBalance","inputs":[{"name":"balance","type":"uint256","internalType":"uint256"},{"name":"requested","type":"uint256","internalType":"uint256"}]},{"type":"error","name":"InvalidAmount","inputs":[]},{"type":"error","name":"InvalidPriceFeed","inputs":[{"name":"token","type":"address","internalType":"address"}]},{"type":"error","name":"MsgValueMustBeZeroForErc20","inputs":[]},{"type":"error","name":"ReentrancyGuardReentrantCall","inputs":[]},{"type":"error","name":"TokenNotSupported","inputs":[{"name":"token","type":"address","internalType":"address"}]},{"type":"error","name":"TransferFailed","inputs":[]},{"type":"error","name":"WithdrawalAmountExceedsUsdLimit","inputs":[{"name":"amountInUsd","type":"uint256","internalType":"uint256"},{"name":"limitInUsd","type":"uint256","internalType":"uint256"}]}],"bytecode":{"object":"0x6080346200009357601f6200134f38819003918201601f19168301916001600160401b038311848410176200009757808492604094855283398101031262000093576020815191015190600180556002556003556200005e33620000ab565b506200006a336200011b565b506200007633620001bb565b50620000823362000255565b5060405161101f9081620002f08239f35b5f80fd5b634e487b7160e01b5f52604160045260245ffd5b6001600160a01b03165f8181525f805160206200132f833981519152602052604090205460ff1662000116575f8181525f805160206200132f83398151915260205260408120805460ff191660011790553391905f805160206200130f8339815191528180a4600190565b505f90565b6001600160a01b03165f8181527f08d2b0bc599dd50285d83b41a4d1bda96826e60e45b21a9787e10330db9153d360205260409020547fdfb26f8ea1e2d7ec8eca1da8954dd9b4ac136b181b0d95b898d5a00865c72d64919060ff16620001b557815f525f60205260405f20815f5260205260405f20600160ff1982541617905533915f805160206200130f8339815191525f80a4600190565b50505f90565b6001600160a01b03165f8181527fa790c693a249880a6dd3819c4e2e8b8e0ec250d35513176d672dfb24091f467d60205260409020547fb1fadd3142ab2ad7f1337ea4d97112bcc8337fc11ce5b20cb04ad038adf99819919060ff16620001b557815f525f60205260405f20815f5260205260405f20600160ff1982541617905533915f805160206200130f8339815191525f80a4600190565b6001600160a01b03165f8181527f6a9e69ca3c092ec27931e7426f7d9f98d24b7db4a1e6ca9da4b594c7ec146f7860205260409020547f3796904275ea7d7b78e7d6f6eb3c30bfa6b9b385e9fe839bb2d23e7d8fbbc60e919060ff16620001b557815f525f60205260405f20815f5260205260405f20600160ff1982541617905533915f805160206200130f8339815191525f80a460019056fe6080604081815260049182361015610015575f80fd5b5f3560e01c90816301ffc9a714610a7057508063248a9ca314610a475780632f2ff15d14610a1f5780633564ac77146109d257806336568abe1461098e5780633b51788814610847578063421c8a8c1461080d57806347e7ef241461063c5780635476bd7214610554578063655fd83914610507578063866be758146104cd57806391d148541461048a578063a217fddf14610436578063a4b32de814610450578063a734f06e14610436578063bd9c47e3146103fd578063c1fcd84f146103df578063c23f001f14610396578063cd2cf71a1461037a578063d547741f1461033f578063dadc7790146103215763f3fef3a314610111575f80fd5b3461031d578060031936011261031d57610129610ad8565b60243591610135610f23565b821561030e5760018060a01b03821693845f5260209260058452825f20335f528452825f20548581106102f257508461016d91610d23565b6003548082116102d857506101a290865f5260058552835f20335f528552835f20610199878254610aee565b90558254610aee565b815584610243575f80808087335af13d1561023e573d67ffffffffffffffff811161022b578351906101dd601f8201601f1916870183610b1c565b81525f853d92013e5b1561021d5750907f2717ead6b9200dd235aad468c9809ea400fe33ac69b5bfaa6d3e90fc922b6398915b519283523392a360018055005b90516312171d8360e31b8152fd5b604183634e487b7160e01b5f525260245ffd5b6101e6565b815163a9059cbb60e01b815233828201526024810185905283816044815f8a5af19081156102ce575f916102a1575b501561021d5750907f2717ead6b9200dd235aad468c9809ea400fe33ac69b5bfaa6d3e90fc922b639891610210565b6102c19150843d86116102c7575b6102b98183610b1c565b810190610b52565b5f610272565b503d6102af565b83513d5f823e3d90fd5b906044935192633e189c3f60e11b84528301526024820152fd5b859150604493519263cf47918160e01b84528301526024820152fd5b5163162908e360e11b81528390fd5b5f80fd5b503461031d575f36600319011261031d576020906003549051908152f35b503461031d578060031936011261031d5761037891356103736001610362610ac2565b93835f525f6020525f200154610be3565b610c80565b005b503461031d575f36600319011261031d57602091549051908152f35b503461031d578060031936011261031d576020906103b2610ad8565b6103ba610ac2565b9060018060a01b038091165f5260058452825f2091165f528252805f20549051908152f35b503461031d575f36600319011261031d576020906002549051908152f35b503461031d57602036600319011261031d576020906001600160a01b0380610423610ad8565b165f5260068352815f2054169051908152f35b503461031d575f36600319011261031d57602090515f8152f35b503461031d575f36600319011261031d57602090517fb1fadd3142ab2ad7f1337ea4d97112bcc8337fc11ce5b20cb04ad038adf998198152f35b503461031d578060031936011261031d576020916104a6610ac2565b90355f525f8352815f209060018060a01b03165f52825260ff815f20541690519015158152f35b503461031d575f36600319011261031d57602090517fdfb26f8ea1e2d7ec8eca1da8954dd9b4ac136b181b0d95b898d5a00865c72d648152f35b50903461031d57602036600319011261031d577fbb1d6466d6b9cb3ce29a9dcd7cc2e51ee7e921992290f96d813b174787857a8c916020913590610549610b6a565b8160025551908152a1005b503461031d578060031936011261031d5761056d610ad8565b610575610ac2565b907fb1fadd3142ab2ad7f1337ea4d97112bcc8337fc11ce5b20cb04ad038adf99819805f525f602052835f20335f5260205260ff845f2054161561061e57506001600160a01b0391821693841561061057501690815f5260066020525f20826bffffffffffffffffffffffff60a01b8254161790557fdffbd9ded1c09446f09377de547142dcce7dc541c8b0b028142b1eba7026b9e75f80a3005b835163162908e360e11b8152fd5b835163e2517d3f60e01b815233818701526024810191909152604490fd5b50908160031936011261031d57610651610ad8565b916024359161065e610f23565b82156107ff576001600160a01b0384811694851591821590816107e9575b506107d2578461068b91610d23565b9082546106988382610b0f565b906002548092116107b05750501561071f57833403610710576106de905b855f526005602052835f20335f52602052835f206106d5868254610b0f565b90558254610b0f565b9055519081527f5548c837ab068cf56a2c2479df0882a4922fd203edb7517321831d95078c5f6260203392a360018055005b50905163b89240f560e01b8152fd5b346107a15782516323b872dd60e01b81523383820152306024820152604481018590526020816064815f8a5af1908115610797575f91610778575b5015610769576106de906106b6565b5090516312171d8360e31b8152fd5b610791915060203d6020116102c7576102b98183610b1c565b5f61075a565b84513d5f823e3d90fd5b5090516301110cd560e21b8152fd5b90929150606494519363621e5a6960e01b855284015260248301526044820152fd5b83516306439c6b60e01b8152808401879052602490fd5b9050865f526006602052845f205416155f61067c565b905163162908e360e11b8152fd5b503461031d575f36600319011261031d57602090517f3796904275ea7d7b78e7d6f6eb3c30bfa6b9b385e9fe839bb2d23e7d8fbbc60e8152f35b50903461031d57606036600319011261031d57610862610ad8565b9161086b610ac2565b91604435917f3796904275ea7d7b78e7d6f6eb3c30bfa6b9b385e9fe839bb2d23e7d8fbbc60e91825f526020925f8452825f20335f52845260ff835f205416156109735750907fd8821fd6781f6004bdc798e551c2d48d6bd799e1287af7e3f86d39e8c075bc91929160018060a01b039687811697885f5260058552835f20971696875f528452825f205490868281115f1461093f579061091261091f9361091893610aee565b90610d23565b8254610b0f565b90555b855f5260058252805f20855f52825283815f2055519283523392a4005b90828210610951575b50505050610922565b6109126109619261096894610aee565b8254610aee565b90555f808581610948565b604492519163e2517d3f60e01b835233908301526024820152fd5b503461031d578060031936011261031d576109a7610ac2565b90336001600160a01b038316036109c357506103789135610c80565b5163334bd91960e11b81529050fd5b50903461031d57602036600319011261031d577feba65f720b8ecc1107416cbbd6649477c59e0ab49bbad891f8d3ddc153f21847916020913590610a14610b6a565b8160035551908152a1005b503461031d578060031936011261031d576103789135610a426001610362610ac2565b610c04565b503461031d57602036600319011261031d57602091355f525f82526001815f2001549051908152f35b833461031d57602036600319011261031d57359063ffffffff60e01b821680920361031d57602091637965db0b60e01b8114908115610ab1575b5015158152f35b6301ffc9a760e01b14905083610aaa565b602435906001600160a01b038216820361031d57565b600435906001600160a01b038216820361031d57565b91908203918211610afb57565b634e487b7160e01b5f52601160045260245ffd5b91908201809211610afb57565b90601f8019910116810190811067ffffffffffffffff821117610b3e57604052565b634e487b7160e01b5f52604160045260245ffd5b9081602091031261031d5751801515810361031d5790565b335f9081527f08d2b0bc599dd50285d83b41a4d1bda96826e60e45b21a9787e10330db9153d360205260409020547fdfb26f8ea1e2d7ec8eca1da8954dd9b4ac136b181b0d95b898d5a00865c72d649060ff1615610bc55750565b6044906040519063e2517d3f60e01b82523360048301526024820152fd5b805f525f60205260405f20335f5260205260ff60405f20541615610bc55750565b90815f525f60205260405f209060018060a01b031690815f5260205260ff60405f205416155f14610c7a57815f525f60205260405f20815f5260205260405f20600160ff1982541617905533917f2f8788117e7eff1d82e926ec794901d17c78024a50270940304540a733656f0d5f80a4600190565b50505f90565b90815f525f60205260405f209060018060a01b031690815f5260205260ff60405f2054165f14610c7a57815f525f60205260405f20815f5260205260405f2060ff19815416905533917ff6391f5c32d9c69d2a47ea670b442974b53935d1edc7fd64eb21e047a839171b5f80a4600190565b81810292918115918404141715610afb57565b8115610d0f570490565b634e487b7160e01b5f52601260045260245ffd5b91908015610f1d5760018060a01b039283811693845f526006602052604090815f205416908115610f0657805191633fabe5a360e21b835260049660a0848981855afa9384156102ce575f94610eb7575b505f841315610ea157506020879183519283809263313ce56760e01b82525afa918215610e9857509060ff915f91610e69575b50166008811115610e28576007190160ff8111610e155791610de0610dda610de693610dd460ff96610f76565b90610d05565b91610f87565b93610cf2565b9116604d8111610e0257610dff929350600a0a90610d05565b90565b601184634e487b7160e01b5f525260245ffd5b601186634e487b7160e01b5f525260245ffd5b6008811015610e585760080360ff8111610e155791610de0610dda610de693610e5260ff96610f76565b90610cf2565b5060ff91610de0610de69291610f87565b610e8b915060203d602011610e91575b610e838183610b1c565b810190610f5d565b5f610da7565b503d610e79565b513d5f823e3d90fd5b87602491845191636ade937960e11b8352820152fd5b90935060a0813d60a011610efe575b81610ed360a09383610b1c565b8101031261031d57610ee481610f46565b50610ef6608060208301519201610f46565b50925f610d74565b3d9150610ec6565b516306439c6b60e01b815260048101869052602490fd5b505f9150565b600260015414610f34576002600155565b604051633ee5aeb560e01b8152600490fd5b519069ffffffffffffffffffff8216820361031d57565b9081602091031261031d575160ff8116810361031d5790565b60ff16604d8111610afb57600a0a90565b6001600160a01b03168015610fe35760206004916040519283809263313ce56760e01b82525afa908115610fd8575f91610fbf575090565b610dff915060203d602011610e9157610e838183610b1c565b6040513d5f823e3d90fd5b5060129056fea26469706673582212201a9948f4be21c232aa56a108e4b2293b3972509b24f7a4874e838dbb986317fc64736f6c634300081800332f8788117e7eff1d82e926ec794901d17c78024a50270940304540a733656f0dad3228b676f7d3cd4284a5443f17f1962b36e491b30a40b2405849e597ba5fb5","linkReferences":{}},"methodIdentifiers":{"ASSET_MANAGER_ROLE()":"a4b32de8","DEFAULT_ADMIN_ROLE()":"a217fddf","ETH_ADDRESS()":"a734f06e","FUNDS_RECOVERY_ROLE()":"421c8a8c","OPERATIONS_MANAGER_ROLE()":"866be758","addToken(address,address)":"5476bd72","balances(address,address)":"c23f001f","bankCapInUsd()":"c1fcd84f","deposit(address,uint256)":"47e7ef24","getRoleAdmin(bytes32)":"248a9ca3","grantRole(bytes32,address)":"2f2ff15d","hasRole(bytes32,address)":"91d14854","recoverBalance(address,address,uint256)":"3b517888","renounceRole(bytes32,address)":"36568abe","revokeRole(bytes32,address)":"d547741f","setBankCapInUsd(uint256)":"655fd839","setWithdrawalLimitInUsd(uint256)":"3564ac77","supportsInterface(bytes4)":"01ffc9a7","tokenPriceFeeds(address)":"bd9c47e3","totalBankValueInUsd()":"cd2cf71a","withdraw(address,uint256)":"f3fef3a3","withdrawalLimitInUsd()":"dadc7790"},"id":36}