{"abi":[{"type":"function","name":"allowance","inputs":[{"name":"owner","type":"address","internalType":"address"},{"name":"spender","type":"address","internalType":"address"}],"outputs":[{"name":"","type":"uint256","internalType":"uint256"}],"stateMutability":"view"},{"type":"function","name":"approve","inputs":[{"name":"spender","type":"address","internalType":"address"},{"name":"value","type":"uint256","internalType":"uint256"}],"outputs":[{"name":"","type":"bool","internalType":"bool"}],"stateMutability":"nonpayable"},{"type":"function","name":"balanceOf","inputs":[{"name":"account","type":"address","internalType":"address"}],"outputs":[{"name":"","type":"uint256","internalType":"uint256"}],"stateMutability":"view"},{"type":"function","name":"decimals","inputs":[],"outputs":[{"name":"","type":"uint8","internalType":"uint8"}],"stateMutability":"view"},{"type":"function","name":"functionCall","inputs":[{"name":"target","type":"address","internalType":"address"},{"name":"data","type":"bytes","internalType":"bytes"}],"outputs":[{"name":"","type":"bytes","internalType":"bytes"}],"stateMutability":"nonpayable"},{"type":"function","name":"name","inputs":[],"outputs":[{"name":"","type":"string","internalType":"string"}],"stateMutability":"view"},{"type":"function","name":"scheduleReenter","inputs":[{"name":"when","type":"uint8","internalType":"enum ERC20Reentrant.Type"},{"name":"target","type":"address","internalType":"address"},{"name":"data","type":"bytes","internalType":"bytes"}],"outputs":[],"stateMutability":"nonpayable"},{"type":"function","name":"symbol","inputs":[],"outputs":[{"name":"","type":"string","internalType":"string"}],"stateMutability":"view"},{"type":"function","name":"totalSupply","inputs":[],"outputs":[{"name":"","type":"uint256","internalType":"uint256"}],"stateMutability":"view"},{"type":"function","name":"transfer","inputs":[{"name":"to","type":"address","internalType":"address"},{"name":"value","type":"uint256","internalType":"uint256"}],"outputs":[{"name":"","type":"bool","internalType":"bool"}],"stateMutability":"nonpayable"},{"type":"function","name":"transferFrom","inputs":[{"name":"from","type":"address","internalType":"address"},{"name":"to","type":"address","internalType":"address"},{"name":"value","type":"uint256","internalType":"uint256"}],"outputs":[{"name":"","type":"bool","internalType":"bool"}],"stateMutability":"nonpayable"},{"type":"event","name":"Approval","inputs":[{"name":"owner","type":"address","indexed":true,"internalType":"address"},{"name":"spender","type":"address","indexed":true,"internalType":"address"},{"name":"value","type":"uint256","indexed":false,"internalType":"uint256"}],"anonymous":false},{"type":"event","name":"Transfer","inputs":[{"name":"from","type":"address","indexed":true,"internalType":"address"},{"name":"to","type":"address","indexed":true,"internalType":"address"},{"name":"value","type":"uint256","indexed":false,"internalType":"uint256"}],"anonymous":false},{"type":"error","name":"AddressEmptyCode","inputs":[{"name":"target","type":"address","internalType":"address"}]},{"type":"error","name":"AddressInsufficientBalance","inputs":[{"name":"account","type":"address","internalType":"address"}]},{"type":"error","name":"ERC20InsufficientAllowance","inputs":[{"name":"spender","type":"address","internalType":"address"},{"name":"allowance","type":"uint256","internalType":"uint256"},{"name":"needed","type":"uint256","internalType":"uint256"}]},{"type":"error","name":"ERC20InsufficientBalance","inputs":[{"name":"sender","type":"address","internalType":"address"},{"name":"balance","type":"uint256","internalType":"uint256"},{"name":"needed","type":"uint256","internalType":"uint256"}]},{"type":"error","name":"ERC20InvalidApprover","inputs":[{"name":"approver","type":"address","internalType":"address"}]},{"type":"error","name":"ERC20InvalidReceiver","inputs":[{"name":"receiver","type":"address","internalType":"address"}]},{"type":"error","name":"ERC20InvalidSender","inputs":[{"name":"sender","type":"address","internalType":"address"}]},{"type":"error","name":"ERC20InvalidSpender","inputs":[{"name":"spender","type":"address","internalType":"address"}]},{"type":"error","name":"FailedInnerCall","inputs":[]}],"bytecode":{"object":"0x60803462000315576040906001600160401b03908083018281118282101762000301578352600491828252602063151154d560e21b8184015284519085820182811084821117620002ee578652600391828152621514d560ea1b82820152845191848311620001fb578354926001968785811c95168015620002e3575b83861014620002d0578190601f958681116200027d575b5083908683116001146200021a575f926200020e575b50505f1982871b1c191690871b1784555b8151948511620001fb5786548681811c91168015620001f0575b82821014620001dd5783811162000195575b50809285116001146200012b57509383949184925f956200011f575b50501b925f19911b1c19161790555b51610b1f90816200031a8239f35b015193505f8062000102565b92919084601f198116885f52855f20955f905b898383106200017a575050501062000160575b50505050811b01905562000111565b01519060f8845f19921b161c191690555f80808062000151565b8587015189559097019694850194889350908101906200013e565b875f52815f208480880160051c820192848910620001d3575b0160051c019087905b828110620001c7575050620000e6565b5f8155018790620001b7565b92508192620001ae565b602288634e487b7160e01b5f525260245ffd5b90607f1690620000d4565b604187634e487b7160e01b5f525260245ffd5b015190505f80620000a9565b90899350601f19831691885f52855f20925f5b878282106200026657505084116200024e575b505050811b018455620000ba565b01515f1983891b60f8161c191690555f808062000240565b8385015186558d979095019493840193016200022d565b909150865f52835f208680850160051c820192868610620002c6575b918b91869594930160051c01915b828110620002b757505062000093565b5f81558594508b9101620002a7565b9250819262000299565b602289634e487b7160e01b5f525260245ffd5b94607f16946200007c565b604186634e487b7160e01b5f525260245ffd5b634e487b7160e01b5f52604160045260245ffd5b5f80fdfe6080604090808252600480361015610015575f80fd5b5f3560e01c91826306fdde031461065957508163095ea7b3146105b157816318160ddd1461059357816323b872dd146104a1578163313ce5671461048657816370a082311461045057816395d89b4114610368578163a0b5ffb0146102d4578163a9059cbb146102a4578163cd594b63146100e5575063dd62ed3e14610099575f80fd5b346100e157806003193601126100e1576020906100b4610766565b6100bc61077c565b9060018060a01b038091165f5260018452825f2091165f528252805f20549051908152f35b5f80fd5b346100e15760603660031901126100e15780359060038210156100e15761010a61077c565b916044359067ffffffffffffffff928383116100e157366023840112156100e1578201359283116100e15760249336602485850101116100e15760ff60055491610100600160a81b039060081b169216906affffffffffffffffffffff60a81b16171760055561017b6006546107e4565b601f8111610245575b505f92601f83116001146101c357509181925f926101b5575b50505f19600383901b1c191660019190911b17600655005b60249250010135828061019d565b601f198316937ff652222313e28459528d920b65115c16c04f3efc82aaedc97be59f3f377c0d3f92915f905b868210610229575050836001951061020d575b505050811b01600655005b01602401355f19600384901b60f8161c19169055828080610202565b90919360206001819284888801013581550195019201906101ef565b7ff652222313e28459528d920b65115c16c04f3efc82aaedc97be59f3f377c0d3f601f840160051c8101916020851061029a575b601f0160051c01905b81811061028f5750610184565b5f8155600101610282565b9091508190610279565b82346100e157806003193601126100e1576020906102cd6102c3610766565b60243590336108cd565b5160018152f35b82346100e157806003193601126100e1576102ed610766565b916024359067ffffffffffffffff82116100e157366023830112156100e15781013592610319846107c8565b9061032684519283610792565b84825236602486850101116100e1575f60208661036497602461035197018387013784010152610a42565b9051918291602083526020830190610728565b0390f35b9050346100e1575f3660031901126100e157815191825f835461038a816107e4565b90818452602095600191876001821691825f146104295750506001146103cd575b50505061036492916103be910385610792565b51928284938452830190610728565b5f90815286935091907f8a35acfbc15ff81a39ae7d344fd709f28e8600b4aa8c65c6b64bfe7fe36bd19b5b82841061041157505050820101816103be6103646103ab565b8054848a0186015288955087949093019281016103f8565b60ff19168782015293151560051b860190930193508492506103be915061036490506103ab565b82346100e15760203660031901126100e1576020906001600160a01b03610475610766565b165f525f8252805f20549051908152f35b82346100e1575f3660031901126100e1576020905160128152f35b9050346100e15760603660031901126100e1576104bc610766565b6104c461077c565b906044359260018060a01b038216805f526001602052855f20335f52602052855f2054915f1983036104ff575b6020876102cd8888886108cd565b85831061056757811561055157331561053b57505f908152600160209081528682203383528152908690209185900390915582906102cd6104f1565b6024905f885191634a1406b160e11b8352820152fd5b6024905f88519163e602df0560e01b8352820152fd5b8651637dc7a0d960e11b8152339181019182526020820193909352604081018690528291506060010390fd5b82346100e1575f3660031901126100e1576020906002549051908152f35b82346100e157806003193601126100e1576105ca610766565b602435903315610643576001600160a01b031690811561062d5760209350335f5260018452825f20825f52845280835f205582519081527f8c5be1e5ebec7d5bd14f71427d1e84f3dd0314c0f7b2291e5b200ac8c7c3b925843392a35160018152f35b8251634a1406b160e11b81525f81860152602490fd5b825163e602df0560e01b81525f81860152602490fd5b83346100e1575f3660031901126100e15760035490825f610679846107e4565b808352602094600190866001821691825f146107065750506001146106ab575b505061036492916103be910385610792565b9085925060035f527fc2575a0e9e593c00f959f8c92f12db2869c3395a3b0502d05e2516446f71f85b915f925b8284106106ee57505050820101816103be610699565b8054848a0186015288955087949093019281016106d8565b60ff19168682015292151560051b850190920192508391506103be9050610699565b91908251928382525f5b848110610752575050825f602080949584010152601f8019910116010190565b602081830181015184830182015201610732565b600435906001600160a01b03821682036100e157565b602435906001600160a01b03821682036100e157565b90601f8019910116810190811067ffffffffffffffff8211176107b457604052565b634e487b7160e01b5f52604160045260245ffd5b67ffffffffffffffff81116107b457601f01601f191660200190565b90600182811c92168015610812575b60208310146107fe57565b634e487b7160e01b5f52602260045260245ffd5b91607f16916107f3565b6006545f929161082b826107e4565b808252916020906001908181169081156108a8575060011461084e575b50505050565b9293945060065f527ff652222313e28459528d920b65115c16c04f3efc82aaedc97be59f3f377c0d3f925f935b85851061089557505050602092500101905f808080610848565b805485850184015293820193810161087b565b92505050602093945060ff929192191683830152151560051b0101905f808080610848565b916001600160a01b0391828416908115610a2a578316918215610a125760055460ff811660038110156109a8576001146109ed575b50815f525f602052604094855f2054908282106109bc5750817fddf252ad1be2c89b69c2b068fc378daa952ba7f163c4a11628f55a4df523b3ef92602092855f525f845203875f2055845f52865f208181540190558651908152a36005549060ff821660038110156109a85760021461097a57505050565b6109a59260ff198316600555519161099c836109958161081c565b0384610792565b60081c16610a42565b50565b634e487b7160e01b5f52602160045260245ffd5b865163391434e360e21b81526001600160a01b03919091166004820152602481019190915260448101829052606490fd5b60ff198116600555604051610a0b91869061099c836109958161081c565b505f610902565b60405163ec442f0560e01b81525f6004820152602490fd5b604051634b637e8f60e11b81525f6004820152602490fd5b5f80610a7f9360208151910182855af13d15610a82573d91610a63836107c8565b92610a716040519485610792565b83523d5f602085013e610a86565b90565b6060915b90610aad5750805115610a9b57805190602001fd5b604051630a12f52160e11b8152600490fd5b81511580610ae0575b610abe575090565b604051639996b31560e01b81526001600160a01b039091166004820152602490fd5b50803b15610ab656fea26469706673582212206791aa1114b1a661f1cbb7d346fb2bd798d3a630f38c24dc0afca7bb2100a23264736f6c63430008180033","linkReferences":{}},"methodIdentifiers":{"allowance(address,address)":"dd62ed3e","approve(address,uint256)":"095ea7b3","balanceOf(address)":"70a08231","decimals()":"313ce567","functionCall(address,bytes)":"a0b5ffb0","name()":"06fdde03","scheduleReenter(uint8,address,bytes)":"cd594b63","symbol()":"95d89b41","totalSupply()":"18160ddd","transfer(address,uint256)":"a9059cbb","transferFrom(address,address,uint256)":"23b872dd"},"id":183}