{"abi":[{"type":"function","name":"checkReturnValues","inputs":[{"name":"multicallToken","type":"address","internalType":"contract ERC20MulticallMock"},{"name":"recipients","type":"address[]","internalType":"address[]"},{"name":"amounts","type":"uint256[]","internalType":"uint256[]"}],"outputs":[],"stateMutability":"nonpayable"}],"bytecode":{"object":"0x6080806040523461001657610465908161001b8239f35b5f80fdfe604060808152600480361015610013575f80fd5b5f3560e01c63b568d01614610026575f80fd5b34610170576060906060600319360112610170576001600160a01b03813581811692908390036101705760249267ffffffffffffffff928435848111610170576100739036908501610357565b92906044358681116101705761008c9036908701610357565b610098869592956103be565b946100a58c519687610388565b8686526100b1876103be565b60209b601f1998918901908d5f5b83811061034857505050505f5b8181106102c45750505050505087518092631592ca1b60e31b8252602482018987840152815180915260448301908a60448260051b8601019301915f905b8c83831061028257505050505091815f81819503925af1968715610279575f97610176575b5050505050505f5b82518110156101745761014a81846103fa565b518281805181010312610170578201518015908115036101705761017057600101610137565b5f80fd5b005b90919293949596503d805f843e61018d8184610388565b820191878184031261017057805190868211610170570194601f9280601f88011215610170578651946101bf866103be565b986101cc85519a8b610388565b868a528a808b019760051b8a010198838a11610170578b8101975b8a8910610205575050505050505050505050905f808080808061012f565b88518681116101705782019085603f83011215610170578d82015190878211610267578e61023b8a5191888d8601160182610388565b828152878a8486010111610170578f93849361025c918c868501910161040e565b8152019801976101e7565b8460418d634e487b7160e01b5f52525ffd5b513d5f823e3d90fd5b60019294965080809294966043198b82030186528b601f8a516102b08151809281875287808801910161040e565b01160101960192019201869493919261010a565b6102cf8183886103d6565b35858116809103610170578e8e918e6102e98589896103d6565b3592519363a9059cbb60e01b90850152830152604482015260448152608081018181108d821117610336578f5260019190610324828b6103fa565b5261032f818a6103fa565b50016100cc565b8d60418d634e487b7160e01b5f52525ffd5b8282828d010152018e906100bf565b9181601f840112156101705782359167ffffffffffffffff8311610170576020808501948460051b01011161017057565b90601f8019910116810190811067ffffffffffffffff8211176103aa57604052565b634e487b7160e01b5f52604160045260245ffd5b67ffffffffffffffff81116103aa5760051b60200190565b91908110156103e65760051b0190565b634e487b7160e01b5f52603260045260245ffd5b80518210156103e65760209160051b010190565b5f5b83811061041f5750505f910152565b818101518382015260200161041056fea2646970667358221220b581f26ff44452c47ce669525c8a195c127184dcf7f2b7c4e4b7869c12a3aabd64736f6c63430008180033","linkReferences":{}},"methodIdentifiers":{"checkReturnValues(address,address[],uint256[])":"b568d016"},"id":143}