{"abi":[{"type":"function","name":"emitMessage","inputs":[{"name":"message","type":"string","internalType":"string"}],"outputs":[],"stateMutability":"nonpayable"},{"type":"function","name":"getMessage","inputs":[{"name":"str","type":"string","internalType":"string"}],"outputs":[{"name":"","type":"string","internalType":"string"}],"stateMutability":"pure"},{"type":"function","name":"onReport","inputs":[{"name":"","type":"bytes","internalType":"bytes"},{"name":"report","type":"bytes","internalType":"bytes"}],"outputs":[],"stateMutability":"nonpayable"},{"type":"event","name":"MessageEmitted","inputs":[{"name":"message","type":"string","indexed":false,"internalType":"string"}],"anonymous":false}],"bytecode":{"object":"0x60808060405234610016576102f0908161001b8239f35b5f80fdfe608060409080825260049081361015610016575f80fd5b5f3560e01c9081630cc4e8d814610119575080632ac0df26146100c45763805f213214610041575f80fd5b346100c057816003193601126100c05767ffffffffffffffff9181358381116100c0576100719036908401610265565b50506024359283116100c0576100ae6100bb927f50ede1f15a65bab9edf83cef0d1ffb1f21234653b3e58170594c3d8685d30e7a94369101610265565b9290915192839283610293565b0390a1005b5f80fd5b50346100c05760203660031901126100c05780359167ffffffffffffffff83116100c0576100ae6100bb927f50ede1f15a65bab9edf83cef0d1ffb1f21234653b3e58170594c3d8685d30e7a94369101610265565b8383346100c057602092836003193601126100c057813567ffffffffffffffff928382116100c057366023830112156100c057818101359384116101fb5750601f199161016d601f8501841687018261020e565b8381528581019336602482850101116100c05786815f926024601f96018837830101526101d66034865180966101c68a83019573033b2ba26b2b9b9b0b3b2903932ba3ab937399d160651b875251809285850190610244565b810103601481018752018561020e565b6101f28551968795818752519283809288015287870190610244565b01168101030190f35b604190634e487b7160e01b5f525260245ffd5b90601f8019910116810190811067ffffffffffffffff82111761023057604052565b634e487b7160e01b5f52604160045260245ffd5b5f5b8381106102555750505f910152565b8181015183820152602001610246565b9181601f840112156100c05782359167ffffffffffffffff83116100c057602083818601950101116100c057565b90918060409360208452816020850152848401375f828201840152601f01601f191601019056fea2646970667358221220154aceb55a9a2f601a2cd436c56275a81ca5432a3ec5f91fe721a29b4e16ac8b64736f6c63430008180033","linkReferences":{}},"methodIdentifiers":{"emitMessage(string)":"2ac0df26","getMessage(string)":"0cc4e8d8","onReport(bytes,bytes)":"805f2132"},"id":7}