{"abi":[{"type":"function","name":"UPGRADE_INTERFACE_VERSION","inputs":[],"outputs":[{"name":"","type":"string","internalType":"string"}],"stateMutability":"view"},{"type":"function","name":"current","inputs":[],"outputs":[{"name":"","type":"uint256","internalType":"uint256"}],"stateMutability":"view"},{"type":"function","name":"increment","inputs":[],"outputs":[],"stateMutability":"nonpayable"},{"type":"function","name":"proxiableUUID","inputs":[],"outputs":[{"name":"","type":"bytes32","internalType":"bytes32"}],"stateMutability":"view"},{"type":"function","name":"upgradeToAndCall","inputs":[{"name":"newImplementation","type":"address","internalType":"address"},{"name":"data","type":"bytes","internalType":"bytes"}],"outputs":[],"stateMutability":"payable"},{"type":"event","name":"Upgraded","inputs":[{"name":"implementation","type":"address","indexed":true,"internalType":"address"}],"anonymous":false},{"type":"error","name":"AddressEmptyCode","inputs":[{"name":"target","type":"address","internalType":"address"}]},{"type":"error","name":"ERC1967InvalidImplementation","inputs":[{"name":"implementation","type":"address","internalType":"address"}]},{"type":"error","name":"ERC1967NonPayable","inputs":[]},{"type":"error","name":"FailedInnerCall","inputs":[]},{"type":"error","name":"UUPSUnauthorizedCallContext","inputs":[]},{"type":"error","name":"UUPSUnsupportedProxiableUUID","inputs":[{"name":"slot","type":"bytes32","internalType":"bytes32"}]}],"bytecode":{"object":"0x60a0806040523461002357306080526103fa908161002882396080518161015e0152f35b5f80fdfe60406080815260049081361015610014575f80fd5b5f3560e01c9081634f1ef286146101c257816352d1902d1461014a5781639fa6a6e31461012e578163ad3cb1cc1461008f575063d09de08a14610055575f80fd5b3461008b575f36600319011261008b575f54905f19821461007857600182015f55005b601190634e487b7160e01b5f525260245ffd5b5f80fd5b90503461008b575f36600319011261008b578051918183019083821067ffffffffffffffff83111761011b57508152600582526020640352e302e360dc1b60208401528151928391602083528151918260208501525f5b8381106101055750505f83830185015250601f01601f19168101030190f35b81810183015187820187015286945082016100e6565b604190634e487b7160e01b5f525260245ffd5b3461008b575f36600319011261008b576020905f549051908152f35b90503461008b575f36600319011261008b577f00000000000000000000000000000000000000000000000000000000000000006001600160a01b031630036101b557602090517f360894a13ba1a3210667c828492db98dca3e2076cc3735a920a3ca505d382bbc8152f35b5163703e46dd60e11b8152fd5b80915060031936011261008b5781356001600160a01b0381169290919083830361008b576024359367ffffffffffffffff851161008b573660238601121561008b57848201359261021a61021585610345565b61030b565b938085526020850196366024838301011161008b57815f926024602093018a3786010152843b156102f6577f360894a13ba1a3210667c828492db98dca3e2076cc3735a920a3ca505d382bbc80546001600160a01b0319168317905551907fbc7cd75a20ee27fd9adebab32041f755214dbc6bffa90cc0225b39da2e5c2d3b5f80a28251156102de5750505f6102d49381925190845af43d156102d6573d916102c561021584610345565b9283523d5f602085013e610361565b005b606091610361565b9250925050346102ea57005b63b398979f60e01b8152fd5b51634c9c8ce360e01b81529182015260249150fd5b6040519190601f01601f1916820167ffffffffffffffff81118382101761033157604052565b634e487b7160e01b5f52604160045260245ffd5b67ffffffffffffffff811161033157601f01601f191660200190565b90610388575080511561037657805190602001fd5b604051630a12f52160e11b8152600490fd5b815115806103bb575b610399575090565b604051639996b31560e01b81526001600160a01b039091166004820152602490fd5b50803b1561039156fea2646970667358221220d78b687424d5cb4786f692c144781f13244e4f1a144a44942b54bfef404add7464736f6c63430008180033","linkReferences":{}},"methodIdentifiers":{"UPGRADE_INTERFACE_VERSION()":"ad3cb1cc","current()":"9fa6a6e3","increment()":"d09de08a","proxiableUUID()":"52d1902d","upgradeToAndCall(address,bytes)":"4f1ef286"},"id":173}