{"abi":[{"type":"constructor","inputs":[{"name":"wrappedToken","type":"address","internalType":"contract IERC20"}],"stateMutability":"nonpayable"},{"type":"function","name":"CLOCK_MODE","inputs":[],"outputs":[{"name":"","type":"string","internalType":"string"}],"stateMutability":"view"},{"type":"function","name":"DOMAIN_SEPARATOR","inputs":[],"outputs":[{"name":"","type":"bytes32","internalType":"bytes32"}],"stateMutability":"view"},{"type":"function","name":"allowance","inputs":[{"name":"owner","type":"address","internalType":"address"},{"name":"spender","type":"address","internalType":"address"}],"outputs":[{"name":"","type":"uint256","internalType":"uint256"}],"stateMutability":"view"},{"type":"function","name":"approve","inputs":[{"name":"spender","type":"address","internalType":"address"},{"name":"value","type":"uint256","internalType":"uint256"}],"outputs":[{"name":"","type":"bool","internalType":"bool"}],"stateMutability":"nonpayable"},{"type":"function","name":"balanceOf","inputs":[{"name":"account","type":"address","internalType":"address"}],"outputs":[{"name":"","type":"uint256","internalType":"uint256"}],"stateMutability":"view"},{"type":"function","name":"checkpoints","inputs":[{"name":"account","type":"address","internalType":"address"},{"name":"pos","type":"uint32","internalType":"uint32"}],"outputs":[{"name":"","type":"tuple","internalType":"struct Checkpoints.Checkpoint208","components":[{"name":"_key","type":"uint48","internalType":"uint48"},{"name":"_value","type":"uint208","internalType":"uint208"}]}],"stateMutability":"view"},{"type":"function","name":"clock","inputs":[],"outputs":[{"name":"","type":"uint48","internalType":"uint48"}],"stateMutability":"view"},{"type":"function","name":"decimals","inputs":[],"outputs":[{"name":"","type":"uint8","internalType":"uint8"}],"stateMutability":"view"},{"type":"function","name":"delegate","inputs":[{"name":"delegatee","type":"address","internalType":"address"}],"outputs":[],"stateMutability":"nonpayable"},{"type":"function","name":"delegateBySig","inputs":[{"name":"delegatee","type":"address","internalType":"address"},{"name":"nonce","type":"uint256","internalType":"uint256"},{"name":"expiry","type":"uint256","internalType":"uint256"},{"name":"v","type":"uint8","internalType":"uint8"},{"name":"r","type":"bytes32","internalType":"bytes32"},{"name":"s","type":"bytes32","internalType":"bytes32"}],"outputs":[],"stateMutability":"nonpayable"},{"type":"function","name":"delegates","inputs":[{"name":"account","type":"address","internalType":"address"}],"outputs":[{"name":"","type":"address","internalType":"address"}],"stateMutability":"view"},{"type":"function","name":"depositFor","inputs":[{"name":"account","type":"address","internalType":"address"},{"name":"value","type":"uint256","internalType":"uint256"}],"outputs":[{"name":"","type":"bool","internalType":"bool"}],"stateMutability":"nonpayable"},{"type":"function","name":"eip712Domain","inputs":[],"outputs":[{"name":"fields","type":"bytes1","internalType":"bytes1"},{"name":"name","type":"string","internalType":"string"},{"name":"version","type":"string","internalType":"string"},{"name":"chainId","type":"uint256","internalType":"uint256"},{"name":"verifyingContract","type":"address","internalType":"address"},{"name":"salt","type":"bytes32","internalType":"bytes32"},{"name":"extensions","type":"uint256[]","internalType":"uint256[]"}],"stateMutability":"view"},{"type":"function","name":"getPastTotalSupply","inputs":[{"name":"timepoint","type":"uint256","internalType":"uint256"}],"outputs":[{"name":"","type":"uint256","internalType":"uint256"}],"stateMutability":"view"},{"type":"function","name":"getPastVotes","inputs":[{"name":"account","type":"address","internalType":"address"},{"name":"timepoint","type":"uint256","internalType":"uint256"}],"outputs":[{"name":"","type":"uint256","internalType":"uint256"}],"stateMutability":"view"},{"type":"function","name":"getVotes","inputs":[{"name":"account","type":"address","internalType":"address"}],"outputs":[{"name":"","type":"uint256","internalType":"uint256"}],"stateMutability":"view"},{"type":"function","name":"name","inputs":[],"outputs":[{"name":"","type":"string","internalType":"string"}],"stateMutability":"view"},{"type":"function","name":"nonces","inputs":[{"name":"owner","type":"address","internalType":"address"}],"outputs":[{"name":"","type":"uint256","internalType":"uint256"}],"stateMutability":"view"},{"type":"function","name":"numCheckpoints","inputs":[{"name":"account","type":"address","internalType":"address"}],"outputs":[{"name":"","type":"uint32","internalType":"uint32"}],"stateMutability":"view"},{"type":"function","name":"permit","inputs":[{"name":"owner","type":"address","internalType":"address"},{"name":"spender","type":"address","internalType":"address"},{"name":"value","type":"uint256","internalType":"uint256"},{"name":"deadline","type":"uint256","internalType":"uint256"},{"name":"v","type":"uint8","internalType":"uint8"},{"name":"r","type":"bytes32","internalType":"bytes32"},{"name":"s","type":"bytes32","internalType":"bytes32"}],"outputs":[],"stateMutability":"nonpayable"},{"type":"function","name":"symbol","inputs":[],"outputs":[{"name":"","type":"string","internalType":"string"}],"stateMutability":"view"},{"type":"function","name":"totalSupply","inputs":[],"outputs":[{"name":"","type":"uint256","internalType":"uint256"}],"stateMutability":"view"},{"type":"function","name":"transfer","inputs":[{"name":"to","type":"address","internalType":"address"},{"name":"value","type":"uint256","internalType":"uint256"}],"outputs":[{"name":"","type":"bool","internalType":"bool"}],"stateMutability":"nonpayable"},{"type":"function","name":"transferFrom","inputs":[{"name":"from","type":"address","internalType":"address"},{"name":"to","type":"address","internalType":"address"},{"name":"value","type":"uint256","internalType":"uint256"}],"outputs":[{"name":"","type":"bool","internalType":"bool"}],"stateMutability":"nonpayable"},{"type":"function","name":"underlying","inputs":[],"outputs":[{"name":"","type":"address","internalType":"contract IERC20"}],"stateMutability":"view"},{"type":"function","name":"withdrawTo","inputs":[{"name":"account","type":"address","internalType":"address"},{"name":"value","type":"uint256","internalType":"uint256"}],"outputs":[{"name":"","type":"bool","internalType":"bool"}],"stateMutability":"nonpayable"},{"type":"event","name":"Approval","inputs":[{"name":"owner","type":"address","indexed":true,"internalType":"address"},{"name":"spender","type":"address","indexed":true,"internalType":"address"},{"name":"value","type":"uint256","indexed":false,"internalType":"uint256"}],"anonymous":false},{"type":"event","name":"DelegateChanged","inputs":[{"name":"delegator","type":"address","indexed":true,"internalType":"address"},{"name":"fromDelegate","type":"address","indexed":true,"internalType":"address"},{"name":"toDelegate","type":"address","indexed":true,"internalType":"address"}],"anonymous":false},{"type":"event","name":"DelegateVotesChanged","inputs":[{"name":"delegate","type":"address","indexed":true,"internalType":"address"},{"name":"previousVotes","type":"uint256","indexed":false,"internalType":"uint256"},{"name":"newVotes","type":"uint256","indexed":false,"internalType":"uint256"}],"anonymous":false},{"type":"event","name":"EIP712DomainChanged","inputs":[],"anonymous":false},{"type":"event","name":"Transfer","inputs":[{"name":"from","type":"address","indexed":true,"internalType":"address"},{"name":"to","type":"address","indexed":true,"internalType":"address"},{"name":"value","type":"uint256","indexed":false,"internalType":"uint256"}],"anonymous":false},{"type":"error","name":"AddressEmptyCode","inputs":[{"name":"target","type":"address","internalType":"address"}]},{"type":"error","name":"AddressInsufficientBalance","inputs":[{"name":"account","type":"address","internalType":"address"}]},{"type":"error","name":"CheckpointUnorderedInsertion","inputs":[]},{"type":"error","name":"ECDSAInvalidSignature","inputs":[]},{"type":"error","name":"ECDSAInvalidSignatureLength","inputs":[{"name":"length","type":"uint256","internalType":"uint256"}]},{"type":"error","name":"ECDSAInvalidSignatureS","inputs":[{"name":"s","type":"bytes32","internalType":"bytes32"}]},{"type":"error","name":"ERC20ExceededSafeSupply","inputs":[{"name":"increasedSupply","type":"uint256","internalType":"uint256"},{"name":"cap","type":"uint256","internalType":"uint256"}]},{"type":"error","name":"ERC20InsufficientAllowance","inputs":[{"name":"spender","type":"address","internalType":"address"},{"name":"allowance","type":"uint256","internalType":"uint256"},{"name":"needed","type":"uint256","internalType":"uint256"}]},{"type":"error","name":"ERC20InsufficientBalance","inputs":[{"name":"sender","type":"address","internalType":"address"},{"name":"balance","type":"uint256","internalType":"uint256"},{"name":"needed","type":"uint256","internalType":"uint256"}]},{"type":"error","name":"ERC20InvalidApprover","inputs":[{"name":"approver","type":"address","internalType":"address"}]},{"type":"error","name":"ERC20InvalidReceiver","inputs":[{"name":"receiver","type":"address","internalType":"address"}]},{"type":"error","name":"ERC20InvalidSender","inputs":[{"name":"sender","type":"address","internalType":"address"}]},{"type":"error","name":"ERC20InvalidSpender","inputs":[{"name":"spender","type":"address","internalType":"address"}]},{"type":"error","name":"ERC20InvalidUnderlying","inputs":[{"name":"token","type":"address","internalType":"address"}]},{"type":"error","name":"ERC2612ExpiredSignature","inputs":[{"name":"deadline","type":"uint256","internalType":"uint256"}]},{"type":"error","name":"ERC2612InvalidSigner","inputs":[{"name":"signer","type":"address","internalType":"address"},{"name":"owner","type":"address","internalType":"address"}]},{"type":"error","name":"ERC5805FutureLookup","inputs":[{"name":"timepoint","type":"uint256","internalType":"uint256"},{"name":"clock","type":"uint48","internalType":"uint48"}]},{"type":"error","name":"ERC6372InconsistentClock","inputs":[]},{"type":"error","name":"FailedInnerCall","inputs":[]},{"type":"error","name":"InvalidAccountNonce","inputs":[{"name":"account","type":"address","internalType":"address"},{"name":"currentNonce","type":"uint256","internalType":"uint256"}]},{"type":"error","name":"InvalidShortString","inputs":[]},{"type":"error","name":"SafeCastOverflowedUintDowncast","inputs":[{"name":"bits","type":"uint8","internalType":"uint8"},{"name":"value","type":"uint256","internalType":"uint256"}]},{"type":"error","name":"SafeERC20FailedOperation","inputs":[{"name":"token","type":"address","internalType":"address"}]},{"type":"error","name":"StringTooLong","inputs":[{"name":"str","type":"string","internalType":"string"}]},{"type":"error","name":"VotesExpiredSignature","inputs":[{"name":"expiry","type":"uint256","internalType":"uint256"}]}],"bytecode":{"object":"0x610180346200050b57601f62002d1c38819003918201601f19168301916001600160401b03831184841017620002ec578084926020946040528339810103126200050b57516001600160a01b03811681036200050b5760405162000063816200050f565b600e81526d135e551bdad95b95dc985c1c195960921b90816020820152604051916200008f836200050f565b600e8352602083015260405192620000a7846200050f565b60038452624d544b60e81b602085015260405192620000c6846200050f565b60018452603160f81b60208501528051906001600160401b038211620002ec5760035490600182811c9216801562000500575b6020831014620003d95781601f8493116200048d575b50602090601f831160011462000404575f92620003f8575b50508160011b915f199060031b1c1916176003555b83516001600160401b038111620002ec57600454600181811c91168015620003ed575b6020821014620003d957601f811162000375575b50602094601f82116001146200030c579481929394955f9262000300575b50508160011b915f199060031b1c1916176004555b620001b1826200052b565b91610120928352620001c384620006e3565b9061014091825260208151910120938460e0526020815191012093610100948086524660a0526040519060208201927f8b73c3c69bb8fe3d512ecc4cf759cc79239f7b179b0ffacaa9a75d522b39400f8452604083015260608201524660808201523060a082015260a0815260c081019181831060018060401b03841117620002ec576040839052815190206080523060c08190526001600160a01b03851614620002d65750506101609182526040519261248b948562000891863960805185611353015260a0518561140e015260c0518561131d015260e051856113a2015251846113c8015251836108fa0152518261092301525181818161041f0152818161058f015281816107dd01526112a00152f35b6024925063438d6fe360e01b825260c430910152fd5b634e487b7160e01b5f52604160045260245ffd5b015190505f8062000191565b601f1982169560045f5260205f20915f5b8881106200035c5750836001959697981062000343575b505050811b01600455620001a6565b01515f1960f88460031b161c191690555f808062000334565b919260206001819286850151815501940192016200031d565b60045f527f8a35acfbc15ff81a39ae7d344fd709f28e8600b4aa8c65c6b64bfe7fe36bd19b601f830160051c810160208410620003d1575b601f830160051c82018110620003c557505062000173565b5f8155600101620003ad565b5080620003ad565b634e487b7160e01b5f52602260045260245ffd5b90607f16906200015f565b015190505f8062000127565b60035f9081527fc2575a0e9e593c00f959f8c92f12db2869c3395a3b0502d05e2516446f71f85b9350601f198516905b8181106200047457509084600195949392106200045b575b505050811b016003556200013c565b01515f1960f88460031b161c191690555f80806200044c565b9293602060018192878601518155019501930162000434565b60035f529091507fc2575a0e9e593c00f959f8c92f12db2869c3395a3b0502d05e2516446f71f85b601f840160051c81019160208510620004f5575b90601f859493920160051c01905b818110620004e657506200010f565b5f8155849350600101620004d7565b9091508190620004c9565b91607f1691620000f9565b5f80fd5b604081019081106001600160401b03821117620002ec57604052565b80516020919082811015620005c7575090601f8251116200056857808251920151908083106200055a57501790565b825f19910360031b1b161790565b90604051809263305a27a960e01b82528060048301528251908160248401525f935b828510620005ad575050604492505f838284010152601f80199101168101030190fd5b84810182015186860160440152938101938593506200058a565b6001600160401b038111620002ec576005928354926001938481811c91168015620006d8575b83821014620003d957601f8111620006a4575b5081601f84116001146200063e57509282939183925f9462000632575b50501b915f199060031b1c191617905560ff90565b015192505f806200061d565b919083601f198116875f52845f20945f905b8883831062000689575050501062000670575b505050811b01905560ff90565b01515f1960f88460031b161c191690555f808062000663565b85870151885590960195948501948793509081019062000650565b855f5284601f845f209201871c820191601f8601881c015b828110620006cc57505062000600565b5f8155018590620006bc565b90607f1690620005ed565b8051602090818110156200076f5750601f8251116200071057808251920151908083106200055a57501790565b90604051809263305a27a960e01b82528060048301528251908160248401525f935b82851062000755575050604492505f838284010152601f80199101168101030190fd5b848101820151868601604401529381019385935062000732565b906001600160401b038211620002ec57600654926001938481811c9116801562000885575b83821014620003d957601f81116200084e575b5081601f8411600114620007e657509282939183925f94620007da575b50501b915f199060031b1c19161760065560ff90565b015192505f80620007c4565b919083601f19811660065f52845f20945f905b888383106200083357505050106200081a575b505050811b0160065560ff90565b01515f1960f88460031b161c191690555f80806200080c565b858701518855909601959485019487935090810190620007f9565b60065f5284601f845f20920160051c820191601f860160051c015b82811062000879575050620007a7565b5f815501859062000869565b90607f16906200079456fe60806040526004361015610011575f80fd5b5f3560e01c806306fdde03146101b4578063095ea7b3146101af57806318160ddd146101aa578063205c2878146101a557806323b872dd146101a05780632f4f21e21461019b578063313ce567146101965780633644e515146101915780633a46b1a81461018c5780634bf5d7e914610187578063587cde1e146101825780635c19a95c1461017d5780636f307dc3146101785780636fcfff451461017357806370a082311461016e5780637ecebe001461016957806384b0196e146101645780638e539e8c1461015f57806391ddadf41461015a57806395d89b41146101555780639ab24eb014610150578063a9059cbb1461014b578063c3cda52014610146578063d505accf14610141578063dd62ed3e1461013c5763f1127ed814610137575f80fd5b610e9b565b610e44565b610d05565b610c38565b610c07565b610bc0565b610b1b565b610af0565b6109d8565b6108e2565b6108aa565b610872565b61080c565b6107c8565b6107a4565b61076b565b6106da565b610630565b61060e565b6105e9565b61054d565b6104a2565b610369565b61034c565b61031b565b61020b565b91908251928382525f5b8481106101e3575050825f602080949584010152601f8019910116010190565b6020818301810151848301820152016101c3565b9060206102089281815201906101b9565b90565b346102eb575f3660031901126102eb576040515f60035461022b81610f2f565b808452906020906001908181169081156102c15750600114610268575b6102648561025881870382610ff0565b604051918291826101f7565b0390f35b60035f90815293507fc2575a0e9e593c00f959f8c92f12db2869c3395a3b0502d05e2516446f71f85b5b8385106102ae5750505050810160200161025882610264610248565b8054868601840152938201938101610292565b8695506102649693506020925061025894915060ff191682840152151560051b8201019293610248565b5f80fd5b600435906001600160a01b03821682036102eb57565b602435906001600160a01b03821682036102eb57565b346102eb5760403660031901126102eb576103416103376102ef565b60243590336116ec565b602060405160018152f35b346102eb575f3660031901126102eb576020600254604051908152f35b346102eb576040806003193601126102eb576103836102ef565b906024356001600160a01b03831630811461048b5750331561047457335f908152602081905260409020549281841061044d57816104439394036103d63360018060a01b03165f525f60205260405f2090565b556103e48260025403600255565b83518281525f9033907fddf252ad1be2c89b69c2b068fc378daa952ba7f163c4a11628f55a4df523b3ef90602090a361041d8233611fc5565b7f0000000000000000000000000000000000000000000000000000000000000000611055565b5160018152602090f35b50815163391434e360e21b8152336004820152602481018490526044810191909152606490fd5b8151634b637e8f60e11b81525f6004820152602490fd5b60249083519063ec442f0560e01b82526004820152fd5b346102eb5760603660031901126102eb576104bb6102ef565b6104c3610305565b6001600160a01b0382165f9081526001602090815260408083203384529091529020604435919054926001840161050b575b6104ff9350611093565b60405160018152602090f35b82841061052757610522836104ff9503338361179a565b6104f5565b604051637dc7a0d960e11b81523360048201526024810185905260448101849052606490fd5b346102eb5760403660031901126102eb576105666102ef565b6024353033146105d1576001600160a01b038216913083146105b8576104ff92506105b38230337f000000000000000000000000000000000000000000000000000000000000000061119e565b6111e0565b60405163ec442f0560e01b815260048101849052602490fd5b604051634b637e8f60e11b8152306004820152602490fd5b346102eb575f3660031901126102eb57602061060361128b565b60ff60405191168152f35b346102eb575f3660031901126102eb57602061062861131a565b604051908152f35b346102eb5760403660031901126102eb576106496102ef565b60243561065543611434565b9165ffffffffffff83168210156106af576001600160a01b03165f90815260096020526040902061026492506001600160d01b039161069e919061069890611434565b90611496565b604051911681529081906020820190565b50604051637669fc0f60e11b8152600481019190915265ffffffffffff919091166024820152604490fd5b346102eb575f3660031901126102eb576106f343611434565b65ffffffffffff8061070443611434565b169116036107595761026460405161071b81610f7b565b601d81527f6d6f64653d626c6f636b6e756d6265722666726f6d3d64656661756c7400000060208201526040519182916020835260208301906101b9565b6040516301bfc1c560e61b8152600490fd5b346102eb5760203660031901126102eb5760206001600160a01b038061078f6102ef565b165f526008825260405f205416604051908152f35b346102eb5760203660031901126102eb576107c66107c06102ef565b3361156b565b005b346102eb575f3660031901126102eb576040517f00000000000000000000000000000000000000000000000000000000000000006001600160a01b03168152602090f35b346102eb5760203660031901126102eb576001600160a01b0361082d6102ef565b165f52600960205260405f205463ffffffff908181116108535760209160405191168152f35b604490604051906306dfcc6560e41b8252602060048301526024820152fd5b346102eb5760203660031901126102eb5760206106286108906102ef565b6001600160a01b03165f9081526020819052604090205490565b346102eb5760203660031901126102eb576001600160a01b036108cb6102ef565b165f526007602052602060405f2054604051908152f35b346102eb575f3660031901126102eb5761097b61091e7f0000000000000000000000000000000000000000000000000000000000000000611ba7565b6109477f0000000000000000000000000000000000000000000000000000000000000000611ca5565b6040519061095482610f9c565b5f8252610989602091604051958695600f60f81b875260e0602088015260e08701906101b9565b9085820360408701526101b9565b4660608501523060808501525f60a085015283810360c0850152602080845192838152019301915f5b8281106109c157505050500390f35b8351855286955093810193928101926001016109b2565b346102eb5760203660031901126102eb576004356109f543611434565b9065ffffffffffff91828116821015610ac95750610a1290611434565b600a54905f908260058111610a70575b50610a2d93506119f1565b80610a49575060205f5b6040516001600160d01b039091168152f35b610a5460209161147a565b600a5f525f80516020612436833981519152015460301c610a37565b9092610a7b826118b3565b8203918211610ac457610a2d94600a5f5280835f80516020612436833981519152015416908516105f14610ab25750915b5f610a22565b929150610abe90611488565b90610aac565b611466565b604051637669fc0f60e11b8152600481019290925265ffffffffffff166024820152604490fd5b346102eb575f3660031901126102eb576020610b0b43611434565b65ffffffffffff60405191168152f35b346102eb575f3660031901126102eb576040515f600454610b3b81610f2f565b808452906020906001908181169081156102c15750600114610b67576102648561025881870382610ff0565b60045f90815293507f8a35acfbc15ff81a39ae7d344fd709f28e8600b4aa8c65c6b64bfe7fe36bd19b5b838510610bad5750505050810160200161025882610264610248565b8054868601840152938201938101610b91565b346102eb5760203660031901126102eb576001600160a01b03610be16102ef565b165f526009602052602060018060d01b03610bfe60405f20611630565b16604051908152f35b346102eb5760403660031901126102eb57610341610c236102ef565b6024359033611093565b60ff8116036102eb57565b346102eb5760c03660031901126102eb57610c516102ef565b60443590602435606435610c6481610c2d565b834211610cec57610ce06107c694610ce7926040519060208201927fe48329057bfd03d55e49b547132e39cffd9c1820ad7b9d4c5307691425d15adf845260018060a01b0388166040840152866060840152608083015260808252610cc882610fb8565b610cdb60a4359360843593519020611658565b61167e565b9182611696565b61156b565b604051632341d78760e11b815260048101859052602490fd5b346102eb5760e03660031901126102eb57610d1e6102ef565b610d26610305565b60443590606435608435610d3981610c2d565b814211610e2b576001600160a01b038581165f8181526007602090815260409182902080546001810190915582517f6e71edae12b1b97f4d1f60370fef10105fa2faae0126114a169c64845d6126c99281019283529283019390935292861660608201526080810187905260a081019190915260c0810193909352610de4929091610dd18260e081015b03601f198101845283610ff0565b610cdb60c4359360a43593519020611658565b6001600160a01b0384811690821603610e0157506107c6926116ec565b6040516325c0072360e11b81526001600160a01b0391821660048201529084166024820152604490fd5b60405163313c898160e11b815260048101839052602490fd5b346102eb5760403660031901126102eb576020610e92610e626102ef565b610e6a610305565b6001600160a01b039182165f9081526001855260408082209290931681526020919091522090565b54604051908152f35b346102eb5760403660031901126102eb57610eb46102ef565b60243563ffffffff811681036102eb57610f03610f0991604093610ed661103d565b50610edf61103d565b506001600160a01b03165f9081526009602052849020610efd61103d565b50611e9a565b50611ec3565b8151815165ffffffffffff1681526020918201516001600160d01b031691810191909152f35b90600182811c92168015610f5d575b6020831014610f4957565b634e487b7160e01b5f52602260045260245ffd5b91607f1691610f3e565b634e487b7160e01b5f52604160045260245ffd5b6040810190811067ffffffffffffffff821117610f9757604052565b610f67565b6020810190811067ffffffffffffffff821117610f9757604052565b60a0810190811067ffffffffffffffff821117610f9757604052565b60c0810190811067ffffffffffffffff821117610f9757604052565b90601f8019910116810190811067ffffffffffffffff821117610f9757604052565b6040519061101f82610f7b565b565b67ffffffffffffffff8111610f9757601f01601f191660200190565b6040519061104a82610f7b565b5f6020838281520152565b60405163a9059cbb60e01b60208201526001600160a01b039092166024830152604482019290925261101f9161108e8260648101610dc3565b6117ea565b6001600160a01b0380821694939291908515611186578216801561116e576001600160a01b0382165f908152602081905260409020549584871061113f578461101f9697036110f18460018060a01b03165f525f60205260405f2090565b556001600160a01b0384165f908152602081815260409182902080548801905590518681527fddf252ad1be2c89b69c2b068fc378daa952ba7f163c4a11628f55a4df523b3ef9190a36120b6565b60405163391434e360e21b81526001600160a01b03841660048201526024810188905260448101869052606490fd5b60405163ec442f0560e01b81525f6004820152602490fd5b604051634b637e8f60e11b81525f6004820152602490fd5b6040516323b872dd60e01b60208201526001600160a01b03928316602482015292909116604483015260648083019390935291815261101f9161108e82610fb8565b91906001600160a01b038316801561116e57600254828101809111610ac4576002556001600160a01b0384165f90815260208181526040808320805486019055518481527fddf252ad1be2c89b69c2b068fc378daa952ba7f163c4a11628f55a4df523b3ef9190a3600254926001600160d01b0384116112655761101f929350612043565b604051630e58ae9360e11b8152600481018590526001600160d01b036024820152604490fd5b60405163313ce56760e01b81526020816004817f00000000000000000000000000000000000000000000000000000000000000006001600160a01b03165afa5f91816112dd575b506102085750601290565b9091506020813d602011611312575b816112f960209383610ff0565b810103126102eb575161130b81610c2d565b905f6112d2565b3d91506112ec565b307f00000000000000000000000000000000000000000000000000000000000000006001600160a01b0316148061140b575b15611375577f000000000000000000000000000000000000000000000000000000000000000090565b60405160208101907f8b73c3c69bb8fe3d512ecc4cf759cc79239f7b179b0ffacaa9a75d522b39400f82527f000000000000000000000000000000000000000000000000000000000000000060408201527f000000000000000000000000000000000000000000000000000000000000000060608201524660808201523060a082015260a0815261140581610fd4565b51902090565b507f0000000000000000000000000000000000000000000000000000000000000000461461134c565b65ffffffffffff90818111611447571690565b604490604051906306dfcc6560e41b8252603060048301526024820152fd5b634e487b7160e01b5f52601160045260245ffd5b5f19810191908211610ac457565b9060018201809211610ac457565b908154905f918060058111611522575b50915b8281106114d5575050806114bd5750505f90565b6114c69061147a565b905f5260205f20015460301c90565b90918082169080831860011c8201809211610ac457845f5265ffffffffffff808360205f20015416908516105f146115105750915b906114a9565b92915061151c90611488565b9061150a565b9061152c826118b3565b8203918211610ac457845f5265ffffffffffff808360205f20015416908416105f1461155a57505b5f6114a6565b925061156590611488565b91611554565b6001600160a01b038181165f81815260086020526040812080548685166001600160a01b03198216811790925561101f969416946115e69390928691907f3134e8a2e6d97e929a7e54011ea5485d7d196dd5f0ba4d4ef95803e8e3fc257f9080a46001600160a01b03165f9081526020819052604090205490565b91611a57565b600a54806115f957505f90565b805f19810111610ac457600a5f527fc65a7bb8d6351c1cf70c95a316cc6a92839c986682d98bc35f958f4883f9d2a7015460301c90565b80548061163d5750505f90565b5f19918183810111610ac4575f5260205f2001015460301c90565b60429061166361131a565b906040519161190160f01b8352600283015260228201522090565b91610208939161168d93611d62565b90929192611e0d565b6001600160a01b0381165f9081526007602052604090208054600181019091558092036116c1575050565b6040516301d4b62360e61b81526001600160a01b039190911660048201526024810191909152604490fd5b6001600160a01b03808216929190831561178257821693841561176a57806117607f8c5be1e5ebec7d5bd14f71427d1e84f3dd0314c0f7b2291e5b200ac8c7c3b9259461174b60209560018060a01b03165f52600160205260405f2090565b9060018060a01b03165f5260205260405f2090565b55604051908152a3565b604051634a1406b160e11b81525f6004820152602490fd5b60405163e602df0560e01b81525f6004820152602490fd5b906001600160a01b03808316156117825781161561176a5761174b6117cf9260018060a01b03165f52600160205260405f2090565b55565b908160209103126102eb575180151581036102eb5790565b5f806118329260018060a01b03169360208151910182865af13d1561188d573d9061181482611021565b916118226040519384610ff0565b82523d5f602084013e5b8361211d565b805190811515918261186b575b50506118485750565b604051635274afe760e01b81526001600160a01b03919091166004820152602490fd5b6118869250906020806118829383010191016117d2565b1590565b5f8061183f565b60609061182c565b811561189f570490565b634e487b7160e01b5f52601260045260245ffd5b80156119ec578061198561197e61197461196a61196061195661194c61194260016102089a5f908b60801c806119e0575b508060401c806119d3575b508060201c806119c6575b508060101c806119b9575b508060081c806119ac575b508060041c8061199f575b508060021c80611992575b50821c61198b575b811c1b61193b818b611895565b0160011c90565b61193b818a611895565b61193b8189611895565b61193b8188611895565b61193b8187611895565b61193b8186611895565b61193b8185611895565b8092611895565b90611ee7565b810161192e565b600291509101905f611926565b600491509101905f61191b565b600891509101905f611910565b601091509101905f611905565b602091509101905f6118fa565b604091509101905f6118ef565b9150506080905f6118e4565b505f90565b905b8281106119ff57505090565b90918082169080831860011c8201809211610ac457600a5f5265ffffffffffff80835f80516020612436833981519152015416908516105f14611a455750915b906119f3565b929150611a5190611488565b90611a3f565b6001600160a01b03808316939291908116908185141580611b9e575b611a7f575b5050505050565b81611b03575b505082611a94575b8080611a78565b6001600160a01b03165f9081526009602052604090207fdec2bacdd2f05b59de34da9b523dff8be42e5e38e818c82fdb0bae774387a72491611ae091611ada9091611ef9565b90611f2c565b604080516001600160d01b039384168152919092166020820152a25f8080611a8d565b6001600160a01b03165f908152600960205260409020611b2284611ef9565b611b2b43611434565b6001600160d01b03918280611b3f86611630565b169116900392828411610ac4577fdec2bacdd2f05b59de34da9b523dff8be42e5e38e818c82fdb0bae774387a72493611b9492611b7b92612357565b6040805192851683529316602082015291829190820190565b0390a25f80611a85565b50831515611a73565b60ff8114611be55760ff811690601f8211611bd35760405191611bc983610f7b565b8252602082015290565b604051632cd44ac360e21b8152600490fd5b50604051600554815f611bf783610f2f565b80835292602090600190818116908115611c815750600114611c22575b505061020892500382610ff0565b91509260055f527f036b6384b5eca791c62761152d0c79bb0604c104a5fb6f4eb0703f3154bb3db0935f925b828410611c6957506102089450505081016020015f80611c14565b85548785018301529485019486945092810192611c4e565b9150506020925061020894915060ff191682840152151560051b8201015f80611c14565b60ff8114611cc75760ff811690601f8211611bd35760405191611bc983610f7b565b50604051600654815f611cd983610f2f565b80835292602090600190818116908115611c815750600114611d0357505061020892500382610ff0565b91509260065f527ff652222313e28459528d920b65115c16c04f3efc82aaedc97be59f3f377c0d3f935f925b828410611d4a57506102089450505081016020015f80611c14565b85548785018301529485019486945092810192611d2f565b91907f7fffffffffffffffffffffffffffffff5d576e7357a4501ddfe92f46681b20a08411611de4579160209360809260ff5f9560405194855216868401526040830152606082015282805260015afa15611dd9575f516001600160a01b03811615611dcf57905f905f90565b505f906001905f90565b6040513d5f823e3d90fd5b5050505f9160039190565b60041115611df957565b634e487b7160e01b5f52602160045260245ffd5b611e1681611def565b80611e1f575050565b611e2881611def565b60018103611e425760405163f645eedf60e01b8152600490fd5b611e4b81611def565b60028103611e6c5760405163fce698f760e01b815260048101839052602490fd5b80611e78600392611def565b14611e805750565b6040516335e2f38360e21b81526004810191909152602490fd5b8054821015611eaf575f5260205f2001905f90565b634e487b7160e01b5f52603260045260245ffd5b90604051611ed081610f7b565b915465ffffffffffff8116835260301c6020830152565b9080821015611ef4575090565b905090565b6001600160d01b0390818111611f0d571690565b604490604051906306dfcc6560e41b825260d060048301526024820152fd5b90611f3643611434565b6001600160d01b03918280611f4a86611630565b16911601918211610ac457611f5e92612357565b9091565b611f6b43611434565b906001600160d01b03908180611f7f6115ec565b16911601908111610ac457611f5e91612232565b611f9c43611434565b906001600160d01b03908180611fb06115ec565b1691169003908111610ac457611f5e91612232565b61101f91906001600160a01b03908116801561202b575b611fed611fe884611ef9565b611f93565b50505f908152600860205260408120549080527f5eff886ea0ce6ca488a3d6e336d6c0f75f46d19b42c06ce5ee98e42c96d256c75482169116611a57565b61203c61203784611ef9565b611f62565b5050611fdc565b9061101f9161205461203783611ef9565b50506001600160a01b039081169081156120a3575b60086020527f5eff886ea0ce6ca488a3d6e336d6c0f75f46d19b42c06ce5ee98e42c96d256c7545f92835260409092205481169116611a57565b6120af611fe884611ef9565b5050612069565b61101f92916001600160a01b0391821691908190831561210a575b169182156120f7575b5f5260086020528060405f205416915f5260405f20541690611a57565b612103611fe885611ef9565b50506120da565b61211661203786611ef9565b50506120d1565b90612144575080511561213257805190602001fd5b604051630a12f52160e11b8152600490fd5b81511580612177575b612155575090565b604051639996b31560e01b81526001600160a01b039091166004820152602490fd5b50803b1561214d565b600a5490600160401b821015610f97576001820180600a55821015611eaf57600a5f52805160209091015160301b65ffffffffffff191665ffffffffffff91909116175f8051602061243683398151915290910155565b8054600160401b811015610f97576121f491600182018155611e9a565b61221f57815160209092015160301b65ffffffffffff191665ffffffffffff92909216919091179055565b634e487b7160e01b5f525f60045260245ffd5b600a5491929190811561232e5761226961226461224e8461147a565b600a5f525f805160206124368339815191520190565b611ec3565b805165ffffffffffff838116949116841061231c57856020936122e0956122a4612299865165ffffffffffff1690565b65ffffffffffff1690565b036122e457506122b961224e6122d29361147a565b9065ffffffffffff82549181199060301b169116179055565b01516001600160d01b031690565b9190565b905061231791506123046122f6611012565b65ffffffffffff9092168252565b6001600160d01b03871681850152612180565b6122d2565b604051632520601d60e01b8152600490fd5b612352915061233e6122f6611012565b6001600160d01b0384166020820152612180565b5f9190565b8054929392919082156124115761237e6122646123738561147a565b835f5260205f200190565b9061238f825165ffffffffffff1690565b65ffffffffffff8481169116811061231c576122e09460209488926123bd612299875165ffffffffffff1690565b036123de57506122d2926123d36122b99261147a565b905f5260205f200190565b915050612317916123fe6123f0611012565b65ffffffffffff9093168352565b6001600160d01b038816828601526121d7565b61235292506124216123f0611012565b6001600160d01b03851660208301526121d756fec65a7bb8d6351c1cf70c95a316cc6a92839c986682d98bc35f958f4883f9d2a8a2646970667358221220769e36e95aa256f7b343c86961906b75d359933695c424adaac4ba9e76373c9464736f6c63430008180033","linkReferences":{}},"methodIdentifiers":{"CLOCK_MODE()":"4bf5d7e9","DOMAIN_SEPARATOR()":"3644e515","allowance(address,address)":"dd62ed3e","approve(address,uint256)":"095ea7b3","balanceOf(address)":"70a08231","checkpoints(address,uint32)":"f1127ed8","clock()":"91ddadf4","decimals()":"313ce567","delegate(address)":"5c19a95c","delegateBySig(address,uint256,uint256,uint8,bytes32,bytes32)":"c3cda520","delegates(address)":"587cde1e","depositFor(address,uint256)":"2f4f21e2","eip712Domain()":"84b0196e","getPastTotalSupply(uint256)":"8e539e8c","getPastVotes(address,uint256)":"3a46b1a8","getVotes(address)":"9ab24eb0","name()":"06fdde03","nonces(address)":"7ecebe00","numCheckpoints(address)":"6fcfff45","permit(address,address,uint256,uint256,uint8,bytes32,bytes32)":"d505accf","symbol()":"95d89b41","totalSupply()":"18160ddd","transfer(address,uint256)":"a9059cbb","transferFrom(address,address,uint256)":"23b872dd","underlying()":"6f307dc3","withdrawTo(address,uint256)":"205c2878"},"id":162}